:1010000078FFE4B8200118F6D8F99000007F007E40
:1010100007E4F0A3DFFCDEFA758120022CB3900315
:10102000FDEFF0E0FF24021212FBE0601AEF121451
:10103000021210B512114C400E9003FDE024021272
:1010400012FBE4F07F01227F0022000228A0EFD3F0
:101050009403500D121258F583E5822D1210E9E425
:10106000F02200022E4875F002122707E0FCA3E0F0
:10107000FD75F088EFA42444F582E5F03400F58393
:10108000EE75F0020227079003FCE0FF75F002A462
:1010900024CAF582E5F03401F583E0FCA3E0FDEF1E
:1010A00075F002A42426F582E5F03400F58322755C
:1010B000F004122707E0F8A3E0F9A3E0FAA3E0FBAD
:1010C0009002E3E0FCA3E0FDA3E0FEA3E022900495
:1010D0000AE0FF900409E0FE75F088A424A7F582D9
:1010E000E5F03400F583E5822FF582E43583F5835E
:1010F0002290040BE0FEA3E0FF900409E0FD75F0F0
:1011000088A4247AF582E5F03400F58322E0FCA37C
:10111000E0FDEF75F088A42456F582E5F034002256
:10112000EF24C0FFEE34F9FE7C007D0A1226267DF6
:101130001E122638EF2440FFEE3406FEEB75F00257
:10114000A42420F582E5F03400F58322902750C3D3
:101150009BFBEE9AFAED99F9EC98F8E493FE740192
:1011600093FFE4FCFDC30226B975F002EBA4241A38
:10117000F582E5F03400F583E0FCA3E0FDEB75F0CB
:1011800002A42414F582E5F03400F58322C39DFF08
:10119000EE9CFEE075F088A42468F582E5F034004A
:1011A000F58322F583E493FC740193FD75F002EF5F
:1011B000A42275F088A4248CF582E5F03400F58330
:1011C000EC75F002022707900409E0FF75F088A48F
:1011D0002432F582E5F03400F58322900409E0FF23
:1011E00075F088A42444F582E5F03400F58322F0FC
:1011F00074E22EF582E43401F58322F0A3F0A3F02B
:10120000A3F0A3F0A3F0A322F0E4900013F0900267
:10121000D32224D0F582E5F03401F583ECF0A3ED80
:10122000F0EF25E0229003FCE0FF24DCF582E434BB
:1012300001F5832275F002EBA4241AF582E5F0345F
:1012400000F58322900409E0FD75F088A4248CF554
:1012500082E5F03400F58322EF75F009A424E7F568
:1012600082E4340222EF75F009A4244CF582E434C0
:10127000022290040AE0FF900409E075F088A4249B
:101280009EF582E5F0340022E4F075F088EEA424A7
:10129000B0F582E5F034002290040DE0FDEF9D747E
:1012A00080F86E9822900409E0FFA3E0FD229003ED
:1012B000FCE024DFF582E43401F583229003FCE0B6
:1012C000FF75F002A424D6F582E5F0340122EDF09A
:1012D000CBEFCBEBD394032275F088EEA424B9F5C1
:1012E00082E5F0340022E0FEA3E0FFD32274F02B6D
:1012F000F582E43401F5832274022BF582E4340094
:10130000F58322740A2BF582E43402F5832274D427
:101310002BF582E43402F58322C39BFBEE9AFAEDAF
:1013200099F9EC98F822E0FEA3E0C39D22E0FF25A6
:10133000E024FDF582E43403F58322EB25E02480EC
:10134000F582E43428F58322E0249EF582E434001B
:10135000F583E0640122EF25E02403F582E4340400
:10136000F58322242CF582E5F03400F583ECF0A31C
:10137000EDF00F22E4F0A3F075F08822900375E001
:1013800054F0F022E0FCA3E0FD75F08822FFEE347B
:10139000FEFE7C007D0A1226267D32122638EF22C0
:1013A000E0FCA3E0FDEC541F22EE8FF012268D75B9
:1013B000F088ED227406F09000137401F022902E54
:1013C000C3F0A37407F09003FCE0902EC922E490D0
:1013D00001E6F0900246F02275F024A42402F58282
:1013E000E43403F5832275F024A42467F582E43401
:1013F00002F5832225E025E024F3F582E43401F5AB
:10140000832225E025E02405F582E43400F58322DB
:1014100025E025E02439F582E43402F5832225E035
:1014200025E024D7F582E43402F58322900409E014
:10143000FFA3E0FD22A424A7F582E5F03400F583A4
:10144000E582229003FCE09003FBF022E0FF900392
:10145000FDE0FEEFC8EEC80822F582E43402F58311
:101460002275F002EF022707902EC6F0902EC57469
:1014700001F022F09001E5747EF0E4A3F02275F013
:10148000041227070226CAC3EF94F6EE6480947F05
:1014900022ECF0A3EDF0900409E0229003FCE004BC
:1014A000F022ECF0A3EDF09003FBE022F09001E7D6
:1014B000F0900247F0227402F090001314F0E4223E
:1014C000FFEE3401FE75F002EB22900409EFF0A369
:1014D000EDF090040D7403F0ED70037402F09004CD
:1014E00009E0FF121113F583C083C08290040AE063
:1014F000FED082D083121066121326FFEE9CFE905F
:10150000040BF0A3EFF0123397C3121298400302BA
:1015100015C71210F1C083C08290040AE0FCD0828B
:10152000D0831210811213A9121101EC1210811232
:1015300012E6940AEE6480948040241210F9C0836D
:10154000C08290040AE0FCD082D083121081E4F0C3
:10155000A3F0ED1211131211BEE475F001802B12ED
:1015600014875029900409E0FF1210FEC083C08246
:1015700090040AE0FED082D083121081E4F0A3F040
:1015800012111212107E74FFF5F012268D1212A5A0
:1015900012104E1212A512310A1212A5122E9FEF2E
:1015A00070030216F390040AE0FF900409E0FE12B3
:1015B000127B1210E4E4F0EF60030216F31212D86B
:1015C000F583E4F00216F390040AE0703EA3E0FE17
:1015D000A3E0FF12339790040DE02402FDE433FCF6
:1015E000D3EF9DEC6480F8EE64809840091212728B
:1015F0001210E47401F012172CD3121298402C90A0
:101600000409E075F0881212DC801B12172C90047C
:101610000DE0FDD312129D4012121272F583E58285
:101620002FF582E43583F5837401F01210F1C08345
:10163000C08290040AE0FCD082D083121081121381
:10164000A91211011211C01212E69464EE64809482
:101650008040231210F9C083C08290040AE0FCD0BD
:1016600082D083121081121374ED1211161211BE62
:10167000E475F0018031C3EF949CEE6480947F5058
:1016800029900409E0FF1210FEC083C08290040A72
:10169000E0FED082D083121081E4F0A3F012111288
:1016A00012107E74FFF5F012268DC390040BE064D7
:1016B00080948050321212A51230D11212A5122E2F
:1016C000F2EF60299004091211DEC083C0829004F9
:1016D0000AE0FED082D08312108112110D12107E0A
:1016E000ECF0A3EDF080061212A512104E1212A516
:1016F000123329900409E0FF121113F583C083C04F
:101700008290040AE0FED082D083121066E0FEA32D
:10171000E090040912118DC083C08290040AE0D0C9
:1017200082D083121081EEF0A3EFF02290040BE040
:10173000FEA3E0FF123397229003FB747EF090012A
:10174000EDE060030218519003FCF0900012E0FFFE
:101750009003FCE0FEC39F400302182E74DC2E129F
:10176000122CE0600302180674DF2E1212B4E0FFA0
:1017700070289003FCE075F002A424D0F582E5F017
:101780003401F583E0FCA3E0FD75F002EE1210A336
:10179000E0FAA3E0C39DEA9C500FEF6401705B1276
:1017A0001087121326EE9C40519003FCE0FF90033B
:1017B000FBF01212B27401F074DC2F12122C7401BF
:1017C000F09001E5E0FFB47E149003FCE0FE900190
:1017D000E5F0A374011211EF7401F0800D9003FC89
:1017E000E06F60069001E67402F09003FCE0FF12E7
:1017F000334F9003FCE0FF1232D6121946602612D6
:1018000012AEE4F0801F1212BC121098121326EED2
:101810009C400C121443123175EF60090218FB1240
:10182000122512322B9003FCE004F002174B9001BA
:10183000DEE0701D9001DDE070179001E6E0D394CA
:1018400000400E9001E5E024E21211F3740112143D
:10185000739001EDE0640160030219379003FCF01E
:10186000900012E0FE9003FCE0FFC39E40030219CB
:101870003712101EEF60031213CE9003FCE0121219
:101880002AE07061121087121326EE9C403B12145E
:101890004312122A7401F09001E6E004F09002462F
:1018A000F09003FCE0FF24E21211F37401F0123314
:1018B0004F9003FCE0FF12335E9003FCE0FF123216
:1018C0009C9003FCE0FF1232D612194660051212FA
:1018D000AEE4F09003FCE0FF1231D6EF6050E490EC
:1018E00001E70219291212BC121098121326EE9C5D
:1018F0004010121443123175EF60339001EF7402FF
:10190000F02212122512322B9003FCE0FF12336DED
:101910009003FCE0FF1232B99003FCE024E21211C4
:10192000F37401F09001E7E004F0900247F09003B7
:10193000FCE004F00218609003FBE0FF9001EBE094
:101940006F6002EFF0229003FCE0FF123143EF22C0
:101950009001EDE0FE703B9001EFE06402705B905F
:10196000024804F09001DEE0B401031213B79001C5
:10197000DDE0B401069002D37401F0900388E0B476
:10198000200890036E7401F08005E490036EF07FF0
:101990000222EEB401249001EFE0B4021D9002484F
:1019A0007401F0900388E0B4200890036E7401F095
:1019B0008005E490036EF07F0222E4FE900012E0C6
:1019C000FFEEC39F4003021B609001EDE0FC704DF1
:1019D0001211F0E06401704574DC2E12122CE0FF4D
:1019E000701912137CEEB40204E04409F0EE6401B5
:1019F0007024900375E0440AF0801BEF64017016B8
:101A000012137CEEB40204E04401F0EEB40107903E
:101A10000375E04402F01211F0E4F0C28AEC6401B4
:101A20006003021B5C1211F0E064016003021B5CA6
:101A300074DC2E12122CE0FC6003021AC012137C1C
:101A4000EE64027036900247E0FFB4011D9002463A
:101A5000E0900375B40109740912120804F0801BA8
:101A600074011212081214AC8011EF900375B402C5
:101A700004740580027401121208F0EE6401600320
:101A8000021B55900247E0FFB4011B900246E09014
:101A90000375B401061213B4E4801E740412120814
:101AA0001214AC021B55EF900375B4020474058048
:101AB000027404F0E4900013F09002D3F0021B557E
:101AC000EC64016003021B5512137CEE6402703C4F
:101AD000900246E0FFB4020A900375740A1213B62E
:101AE0008026EFB4011C9001E7E0900375B4010675
:101AF0001213B4E480121214B69002D3F01213CF72
:101B0000800A9003751214B69002D3F0EE6401704F
:101B100044900246E0B40212900375740AF09002F9
:101B2000D37401F0900013F0802B9001E6E0B40133
:101B30001A900247E0900375B4010474098011748F
:101B40000812120804F01213CE800A90037574086C
:101B500012120804F01211F0E4F0C28A0E0219BC4D
:101B60007F0422900409EFF0A3EDF090040D7404BB
:101B7000F0ED603F90009EE06401700280089004E8
:101B80000A121348702D1211C7C083C08290040A34
:101B9000E0FED082D083121066121491121249C056
:101BA00083C08290040AE0D082D083121081E4F0D6
:101BB000A3F0229004091211DEC083C08290040AAF
:101BC000E0FED082D083121081121384EFA424325D
:101BD000F582E5F0340012107E121326FFEE9CFE13
:101BE00090040BF0A3EFF012339790040DE0FDC3C7
:101BF00012129D4003021CC51210CEE06401703722
:101C000075F088EE121197EF1211C1E0FEA3E0C348
:101C1000941EEE648094804003021D0B1211C7C015
:101C200083C08290040AE0FED082D083121066EC5A
:101C3000F0A3EDF0021D0B90040BE0FEA3E0FF12F9
:101C40001244C083C08290040AE0FCD082D0831288
:101C50001081EE8FF012268DED1211B21212E69461
:101C600002EE648094804029121244C083C08290A6
:101C7000040AE0FCD082D083121081121374EDA408
:101C80002444F582E5F034001211BEE475F00180C1
:101C90002EC3EF94FEEE6480947F506F900409E0B1
:101CA000FF121249C083C08290040AE0FED082D0A5
:101CB00083121081E4F0A3F012107174FFF5F0129A
:101CC000268D021D0B1211C7C083C08290040AE04A
:101CD000FED082D083121066121491FF121194C0AC
:101CE00083C08290040AE0FED082D083121081E08B
:101CF000FCA3E0C3941EEC64809480400E75F088D1
:101D0000EF1214352E1210E97401F01210CEE064B7
:101D100001702812128A1210E4E0041212891210C3
:101D2000E4E0D39405401490040AE0FF75F088EED7
:101D30001210DB1212881210E4E4F022E49003FC8B
:101D4000F09003FCE0FFC394094003021EF0EF9003
:101D50002EC87014E0545FF0A3746AF0902EC37420
:101D60004AF0A37401F0800EE044F0F0902EC374AA
:101D700020F0A37409F09003FCE090273F93902E8D
:101D8000CAF0E49003FBF0900012E0FF9003FBE048
:101D9000FEC39F4003021EE774492E121459E0FF50
:101DA0009003FDF0E4F5E2EFC39408503B74151284
:101DB0001468C083C08212144C8002C333D8FCD094
:101DC00082D083F0902ECD7401F0C083C082E0FFFA
:101DD000C8EEC8088002C333D8FCD082D083F0900C
:101DE0002EC074C1F0021E739003FDE024F8F0745D
:101DF00016121468C083C08212144C8002C333D8F8
:101E0000FCD082D083F0902ECE7401F0C083C082CB
:101E1000E0FFC8EEC8088002C333D8FCD082D0836C
:101E2000F0EEB40506902EC97420F0EE6406701C26
:101E300074301213BE30E00B7420F0902E4E7402FA
:101E4000F080097418F0902E4E7404F0EE64077060
:101E50001C74B01213BE30E00B7420F0902E4F743F
:101E600082F080097418F0902E4F7404F0902EC008
:101E700074C2F0E4FF900000742EF0A3E4F090032D
:101E8000FBE02449121459E09003FDF0E5E220E262
:101E9000050FEFB4C8DF9003FDE0FD75F002A4FF6D
:101EA000AEF0900001E02FF0900000E03EF0ED90E9
:101EB000277093FF900000E475F0021226A385F0CE
:101EC00082F583121384EF1211CFC083C082900376
:101ED000FCE0D082D083121081ECF0A3EDF09003EF
:101EE000FBE004F0021D879003FCE004F0021D41BA
:101EF0009001E87401F022CBEFCB121234E0FEA384
:101F0000E0FF12117DE0FCA3E0FDC39FEC9E5003B7
:101F1000021FB6E42DFFEC3404FE121234E0FCA3E1
:101F2000E0FDC3EF9DFFEE9C12113BEEF0A3EFF03E
:101F3000121234E0FEA3E0FF12117DE0FCA3E0C327
:101F40009FFFEC9EFE75F002EB1210A3EEF0A3EFE4
:101F5000F012133BE493FE740193FF75F002EB1251
:101F600010A3E0FCA3E0FDD39FEC9E402412133BA2
:101F7000E493FE740193FFC3ED9FFFEC9EC313FE39
:101F8000EF13FF12133B7401932FFFE4933EFE8087
:101F90001775F002EB1210A3E0FEA3E0FF7C007DBA
:101FA000631226260D12263875F002EB1210A3EEEE
:101FB000F0A3EFF0803C12117DE0FEA3E0FF1212CF
:101FC00034E0FCA3E0C39FEC9EC3940475F002EBE5
:101FD00050121210A3E4F0A3F012113C7404F0A309
:101FE000E4F0800E1210A3E4F0A3F012113CE4F030
:101FF000A3F0EB6402705775F002EB1210A31212FB
:10200000E694CCEE94014013EF243412138D24CCCB
:102010001214C01210A3EEF0A3EFF075F002EB1251
:1020200010A31213A090037FF0EDA3F012113C1245
:1020300012E69440EE94064008121120EEF0A3EF51
:10204000F012113C1213A0900383F0EDA3F0EB64A7
:1020500001705775F002EB1210A31212E694D6EE3F
:1020600094014013EF242A12138D24D61214C012A7
:1020700010A3EEF0A3EFF075F002EB1210A3121311
:10208000A0900381F0EDA3F012113C1212E69440EF
:10209000EE94064008121120EEF0A3EFF012113C6E
:1020A0001213A0900385F0EDA3F022900409EFF045
:1020B000A3EDF090040D7403F0ED70037404F09040
:1020C000009EE064017002800890040A12134870B8
:1020D000381211DBC083C08290040AE0FED082D0A7
:1020E0008312108112110D12107EECF0A3EDF0900E
:1020F0000409121193C083C08290040AE0D082D0F8
:1021000083121081E4F0A3F022900409E0FF121181
:1021100013F583C083C08290040AE0FED082D0838E
:10212000121066121326FFEE9C90040BF0A3EFF042
:102130009004091212B1E06007E490040BF0A3F0E0
:1021400090040BE0FEA3E0FF12339790040DE0FD36
:10215000C312129D40030221E890040BE0FEA3E0AD
:10216000FF9004091210FCC083C08290040AE0FCB6
:10217000D082D0831210811213A91211011211C042
:102180001212E6940AEE64809480402690040912AC
:1021900010FCC083C08290040AE0FCD082D083127D
:1021A0001081121374ED1211161211BEE475F001B4
:1021B000802B1214875029900409E0FF1210FEC0F2
:1021C00083C08290040AE0FED082D083121081E4A2
:1021D000F0A3F012111212107E74FFF5F012268D8A
:1021E00012142C12104E8038C390040BE0648094BB
:1021F00080502D12142C1230D112142C122EF2EF0A
:10220000601E1211DBC083C08290040AE0FED082FF
:10221000D08312108112110D12107EECF0A3EDF09C
:10222000900409E0FF121113F583C083C08290046B
:102230000AE0FED082D083121066E0FEA3E0900494
:102240000912118DC083C08290040AE0D082D0832D
:10225000121081EEF0A3EFF0229001EFE024FE6077
:102260001E1470030223181470030223C224036097
:10227000030224059001EF7402F0E4900245F0128D
:102280002A709001EF7403F09001EDE0FD702C9046
:102290000248E064017024F0C28A12137C9000139B
:1022A000E06009E4F0900375E04409F09002D3E0A7
:1022B0006009E4F0900375E0440AF0ED64017058A1
:1022C000900248E064017050F0900013E0FF700647
:1022D0009002D3E06042EF60119002D3E0600B12F5
:1022E0001209F09003757405802B900013E06010C4
:1022F0009002D3E0700A12120AF090037504801560
:10230000900013E070129002D3E0600C121209F0FA
:102310009003757404F0C28A121D3C9001E8E070CD
:10232000030223A3900245E004F0E49003FAF09046
:102330000012E0FF9003FAE0C39F5067E4FF9003B0
:10234000FAE0FE1211CC121461121384EE1211166F
:10235000F58312146112136DEFB409E29003FAE0F1
:10236000FF1210A0E4F0A3F0EF12113D7404F0A3EB
:10237000E4F0EFB40210E490037FF0A3F090038345
:102380007404F0E4A3F0EFB40110E4900381F0A32F
:10239000F09003857404F0E4A3F09003FAE004F0F5
:1023A00002232F900245E0C394034059900011741A
:1023B0007EF0E49001E9F0900245F09001EF7404A2
:1023C000F022121D3C9001E8E0603A122406E490ED
:1023D00003FAF0900012E0FE9003FAE0FFC39E5073
:1023E0001612305B122F8D9003FAE0FF121EF79049
:1023F00003FAE004F080DC1231A7121738121950EA
:102400009001EFEFF022E49003FCF09003FCE0FD7C
:10241000C394095023E0FF75F0021211CFE0FAA334
:10242000E0FB75F002EF1211E3EAF0A3EBF0E4FF3A
:102430001214CA12149B80D3E49003FBF090001294
:10244000E0FF9003FBE0C39F40030225A612132D7B
:10245000E4F0A3F0121356E4F0A3F0EF70030225AA
:102460007EE49003FCF09003FCE0FDC39409501857
:102470009003FBE0FF121B639003FBE0FFA3E0FD72
:102480001220AB12149B80DEE49003FCF09003FC5E
:10249000E0FFC39409400302257E749E2F12134B64
:1024A00060109003FBE075F0881212DCF583E0B455
:1024B00001239003FBE0FF121194121384EF121119
:1024C00097C083C0829003FCE0D082D08312108139
:1024D000ECF0A3EDF09003FCE0FF70030225789090
:1024E00003FBE0FE121194121461E0FCA3E0C3941C
:1024F00003EC64809480501A75F088EE121197C036
:1025000083C0829003FCE0D082D083121081E4F07B
:10251000A3F09003FBE0FF121113F583C083C08288
:102520009003FCE0FED082D083121081E0FCA3E097
:10253000FD121356EC8DF012268D9003FBE0FF7513
:10254000F088A42468F582E5F0340012107E1211A0
:102550000DF583C083C0829003FCE0D082D083124B
:102560001081E0FEA3E02DFFEE3CFE9003FBE012A5
:10257000132FEE8FF012268D12149B02248D9003E0
:10258000FB12132DE0FCA3E0FDEF12117E1214A24A
:10259000FF121357E0FCA3E01211AB121239121410
:1025A000A204F002243DE49001E8F022BB01068978
:1025B000828A83E0225002E722BBFE02E322898264
:1025C0008A83E49322BB010CE58229F582E5833AF4
:1025D000F583E0225006E92582F8E622BBFE06E9F3
:1025E0002582F8E222E58229F582E5833AF583E443
:1025F0009322BB010689828A83F0225002F722BB14
:10260000FE01F322F8BB010DE58229F582E5833A4C
:10261000F583E8F0225006E92582C8F622BBFE05C4
:10262000E92582C8F222EF8DF0A4A8F0CF8CF0A4A7
:1026300028CE8DF0A42EFE22BC000BBE0029EF8D0B
:10264000F084FFADF022E4CCF875F008EF2FFFEE38
:1026500033FEEC33FCEE9DEC984005FCEE9DFE0F46
:10266000D5F0E9E4CEFD22EDF8F5F0EE8420D21CA1
:10267000FEADF075F008EF2FFFED33FD40079850E9
:1026800006D5F0F222C398FD0FD5F0EA22C5F0F886
:10269000A3E028F0C5F0F8E582158270021583E00A
:1026A00038F022A3F8E0C5F025F0F0E5821582703D
:1026B000021583E0C838F0E822EB9FF5F0EA9E426D
:1026C000F0E99D42F0E89C45F022ECF0A3EDF0A388
:1026D000EEF0A3EFF022A8828583F0D083D082129F
:1026E00026ED1226ED1226ED1226EDE473E493A3F7
:1026F000C583C5F0C583C8C582C8F0A3C583C5F02E
:10270000C583C8C582C822A42582F582E5F0358339
:10271000F58322EF4E6012EF60010EEDBB010B89D5
:10272000828A83F0A3DFFCDEFA2289F05007F709E2
:10273000DFFCA9F022BBFEFCF309DFFCA9F0223F7D
:102740003F3F3F3F3F3F3F3F00320032177002584C
:102750000004001E0032000A000F0064000A000A94
:102760000000000000000000000000000001010166
:102770000D0E0F030405060708090A0B0C000102E1
:1027800000320032003200320032003200320032B9
:1027900000320032003200320032003200320032A9
:1027A0000037003700370037003700370037003771
:1027B0000037003700370037003700370037003761
:1027C00000280028002800280028002800280028C9
:1027D00000280028002800280028002800280028B9
:1027E000002D002D002D002D002D002D002D002D81
:1027F000002D002D002D002D002D002D002D002D71
:10280000006E006E006E006E006E006E006E006E58
:10281000006E006E006E006E006E006E006E006E48
:102820000073007300730073007300730073007310
:102830000073007300730073007300730073007300
:102840000064006400640064006400640064006468
:102850000064006400640064006400640064006458
:10286000002D002D002D002D002D002D002D002D00
:10287000002D002D002D002D002D002D002D002DF0
:1028800000FA00FA00FA00FA00FA00FA00FA00FA78
:1028900000FA00FA00FA00FA00FA00FA00FA00FA68
:1028A000C0E0C083C082C0D0E8C0E0E9C0E0EAC0B8
:1028B000E0EBC0E0EFC0E0D2AFE5DB30E415E5DBF4
:1028C00030E1028022900374E5DFF09003F5E4F03C
:1028D000022979E5DB30E5059003718038E5DB30CE
:1028E000E126E5DB30E0119003F712320512320EDB
:1028F0001225C5F5DF0229799003F6E064017079AD
:10290000208A76D28A0229799003F5E0700DA3E53A
:10291000DFF09003F57401F00229799003F6E0905E
:102920002CF893FFB4FF0E900374E5DFF09003F6EC
:10293000E004F0803EEF640F9003F7702B12320535
:102940009003F6E0FF123222540F1225F29003F7A3
:102950001232059003F6E0FF04F0123222FFE5DFA9
:1029600054F04F1225F2800B12320512320EE5DFC1
:10297000122604900373E004F075DBFFD0E0FFD073
:10298000E0FBD0E0FAD0E0F9D0E0F8D0D0D082D0AF
:1029900083D0E032900388E0FE64107053FF900013
:1029A00012E0FDEFC39D4003022A45EF25E02420FD
:1029B000F582E434281211A31212122400F582E4E5
:1029C00034281211A324CAF582E5F0340112121A38
:1029D0002440F582E434281211A31212C512121AEF
:1029E0002460F582E434281211A312136302299E95
:1029F000EE64207062FF900012E0FEEFC39E50452F
:102A0000EF25E024A0F582E434271211A31212125C
:102A10002480F582E434271211A324CAF582E5F05C
:102A2000340112121A24C0F582E434271211A312C1
:102A300012C512121A24E0F582E434271211A312EF
:102A400013630229F69001CCA3E0900379F0900182
:102A5000CEA3E090037AF090038BE0FEB4100790D1
:102A600001ED7401F022EEB42005E49001EDF022B6
:102A70007E017FD97D007B017A0079141227131221
:102A80002FD890036EE090038870057410F08003D7
:102A90007420F0122994E4FE900012E0FFEEC39F30
:102AA000507BE4FC75F088EE1211011211C0121374
:102AB00074EE12127EF583E5822C1210E9E4F0EE3A
:102AC0001211B2121374EE1214352C1210E91212F4
:102AD00088F583E5822C1210E9E4F0CFEECFCDEC3F
:102AE000CD12104E1233290CEC640970B71212D8B3
:102AF000F583E4F0CFEECF12334F12336D12335E15
:102B000012337C74DC2E12122CE41211EFE4121436
:102B100073A3F0900246F0A3F00E022A989001EB06
:102B2000747EF0900011F0E49001EAF022E490034A
:102B3000FCF0FF9003FBF0EF14601E14603514608E
:102B40004C14605B240470749003FD7401F0A37452
:102B50002FF0A37458F0022BB6123202900001122B
:102B600025C5FED3941F400312321B1225AC6E7094
:102B70004B80431232029000021225C5FED3940608
:102B8000400312321B1225AC6E70318029123202C2
:102B90009000031225C5FE1225AC6E701F8017121F
:102BA00032029000041225C5FE648B600312321BB2
:102BB0001225AC6E70069003FBE004F00FEF640585
:102BC0006003022B379003FBE0B40504A37401F00B
:102BD0009003FCE0FD6007900389E0547FF0CFEDA7
:102BE000CF22758A50538AEF9004137411F0900429
:102BF000117422F09004147433F075997F759A80E3
:102C0000E4FFFEC29620970AD296309705E490041E
:102C100013F00FBF00010EEF640A4E70E67590FFCF
:102C200075993F759AC0E4FEFF20970690041174D1
:102C300027F020960C9004117426F0209703742836
:102C4000F00FBF00010EEF640A4E70DDE4F5AD75C4
:102C5000AEF075AF09F5AC7589FF75913F75991F99
:102C6000F59675931FF59BF595F592F59A75800C81
:102C7000D28A90041204F02202301FE493A3F8E4F5
:102C800093A34003F68001F208DFF48029E493A3C4
:102C9000F85407240CC8C333C4540F4420C88340DD
:102CA00004F456800146F6DFE4800B0102040810AC
:102CB000204080903097E47E019360BCA3FF543F96
:102CC00030E509541FFEE493A360010ECF54C025E4
:102CD000E060A840B8E493A3FAE493A3F8E493A3D4
:102CE000C8C582C8CAC583CAF0A3C8C582C8CAC538
:102CF00083CADFE9DEE780BE0FFFFF0000000000AF
:102D00000000FFFFFFFFFFFFFFFFFF0000000000CC
:102D100000000000000000000000000000000000B3
:102D200000000000000000000000000000000000A3
:102D30000000000000000000000000000000000093
:102D40000000000000000000000000000000000083
:102D50000000000000000000000000000000000073
:102D60000000000000000000000000000000000063
:102D700000000000000000009003FA7410F0A3E4CB
:102D8000F0A3743FF0A374FFF0E4FDFCF990037628
:102D9000E064AA705074AAF0758A10538AEF00009C
:102DA000009003FAE0FEA3E02DF582EE3CF583E40B
:102DB00093FF69F90DBD00010CBC2FE5BDFFE2904A
:102DC00003FCE0FEA3E0F5828E83E4936970089033
:102DD0000376740AF08005E4900376F0758A505308
:102DE0008AEF00000022902EC0E4F0902ECB74F405
:102DF000F0902F58E0540F2450902EC8F0902ECC15
:102E00007448F0902EC97428F0A3743FF0902E40BF
:102E100074811211FBF0A3F0A3041211FB7402F0F1
:102E2000A37482F0902EC67414F0902EC17490F0AA
:102E3000A37401F0A37420F0A37409F043E310120B
:102E40003279900012EFF022C0E0C0F0C083C0825F
:102E5000C0D0E8C0E0ECC0E0EDC0E0EEC0E0EFC004
:102E6000E0D2AF9001EEE004F0C3940A4017E4F022
:102E70001210C02401FFE43EFEE43DFDE43CFC9062
:102E800002E31226CAD0E0FFD0E0FED0E0FDD0E0A1
:102E9000FCD0E0F8D0D0D082D083D0F0D0E0329017
:102EA000040FEDF090040EEFF0A3E0FE121265F5B2
:102EB00083E5822E1210E9E0603590040EE01213D3
:102EC000E6C083C08290040FE0D082D0831210AF9E
:102ED00012131990275612115B401490040FE0FF53
:102EE00090040EE01212661210E4E4F07F01227FDB
:102EF000002290040FEDF090040EEFF0A3E0FE121C
:102F00001258F583E5822E1210E9E0603290040E2B
:102F1000E01213D8C083C08290040FE0D082D08327
:102F20001210AF90275412114F401490040FE0FF7D
:102F300090040EE01212591210E4E4F07F01227F97
:102F400000229001D4A3E09003CDF09001D2A3E041
:102F50009003CEF09001CEA3E09003CFF09001CC8F
:102F6000A3E09003D0F09001DAA3E09003D1F090B9
:102F700001D8A3E09003D2F09028847401939003C9
:102F8000D3F09028827401939003D4F0229004121D
:102F9000E06044900018E0FEA3E0FFC39470EE945C
:102FA0001750069004147426F0C3900017E0947034
:102FB000900016E0941750129004147427F0C3EF99
:102FC0009470EE941750037428F0E4900412F0907B
:102FD0000414E090037DF0227E007F807D007B0161
:102FE0007A0379751227139003757408F0A3740A95
:102FF000F0A37406F090038774ABF0900389748794
:10300000F0900413E090037BF0900411E090037CB7
:10301000F0900414E090037DF0122B2D022F4275E6
:10302000200153A87F122BE212338B12333D123250
:103030005243A880758DE01232F3EF24E0600A2439
:1030400010700AC283C2828004D283D28212299471
:10305000122D78438D2012225980DCCBEFCBEB640C
:10306000027017121169E09003C5F012117DA3E000
:103070009003C6F0ECA3F0EDA3F0EB64017017121F
:103080001169E09003C9F012117DA3E09003CAF02A
:10309000ECA3F0EDA3F022410245004101EE004116
:1030A000024800410013004102D30041036E004179
:1030B00001ED004103F5004103F60042036F0000FB
:1030C0004103710041037300410372004103741016
:1030D0000090040E1212CE503090040EE0FFEB125E
:1030E00012591210E4E07021EB1212591210E4741C
:1030F00001F01210C0FFEB1213D8C083C0829004FD
:103100000EE0D082D08312147E2290040E1212CED2
:10311000503090040EE0FFEB1212661210E4E070E3
:1031200021EB1212661210E47401F01210C0FFEBD2
:103130001213E6C083C08290040EE0D082D08312C6
:10314000147E229003FDEFF0E0FF24F01212F0E075
:103150006020EF1213F41210B512131990274A12BF
:10316000115B400E9003FDE024F01212F0E4F07FBA
:1031700001227F00229003FDEFF0E0FF24D4121320
:1031800011E06020EF12141E1210B51213199027CF
:103190004E12115B400E9003FDE024D4121311E493
:1031A000F07F01227F0022E4FFFE900012E0FDEE9E
:1031B000C39D501C12109FE0FCA3E0FDEE1210A076
:1031C000E0FAA3E0D39DEA9C4003CFEECF0E80DA75
:1031D0009001ECEFF0229003FDEFF0E0FF240A12E3
:1031E0001306E0601AEF1214101210B512114C40C1
:1031F0000E9003FDE0240A121306E4F07F01227F03
:1032000000229003FDE0FBA3E0FAA3E0F922900383
:10321000F6E0FF04F08F82758300229003FC7401B6
:10322000F022E92FF9E43AFA0225ACE4F012337CFB
:103230009003FCE0FF1212D050171212EDE0701153
:103240001212ED7401F01210C0FFEB1213F41226EB
:10325000CA229003F77401F0A37403F0A37475F00D
:10326000E4F5DA75DA4043DA2075D74075DA584369
:10327000A90875B80875F80822902EC5E4F0902EBC
:10328000CDF0A3F0FFFEEE90276093600974492F04
:10329000121459EEF00F0EEEB410EB221212D050B1
:1032A000171212F8E070111212F87401F01210C027
:1032B000FFEB1214021226CA221212D05017121358
:1032C00003E070111213037401F01210C0FFEB122F
:1032D00014101226CA221212D0501712130EE070C8
:1032E0001112130E7401F01210C0FFEB12141E1213
:1032F00026CA22E4FD900371E06011900375E0FEA0
:1033000054F0FDEE540FF0E4900371F0CFEDCF22B6
:103310009002E31226D6000000007E007F0B7D00A5
:103320007B017A0179FF022713EFD39403500D122A
:103330001265F583E5822D1210E9E4F02275B28E54
:1033400075B6F9E4F5B743B20143AA01023310EFB1
:10335000D39403500874F02F1212F0E4F022EFD34C
:103360009403500874022F1212FBE4F022EFD3945E
:10337000035008740A2F121306E4F022EFD39403CB
:10338000500874D42F121311E4F022122DE690018C
:10339000EF7401F0022A70EE30E707C3E49FFFE408
:1033A0009EFE22000000000000000000000000005F
:1033B000000000000000000000000000000000000D
:1033C00000000000000000000000000000000000FD
:1033D00000000000000000000000000000000000ED
:1033E00000000000000000000000000000000000DD
:103FF0000000000000000000000000000000000DB4
:00000001FF
