:100000000110120006000000002000009CC5000046
:1000100000040020F11400006D1400006D140000B5
:1000200010B572B610211A4801600322D204826012
:10003000816118484C210160174981600C21816160
:10004000164803210160642181601549EE20086093
:10005000182000F015FE7F22124852020260134958
:10006000114B0B6042605A1C0A6082158260981C1A
:1000700008600F49042088620E48402181604121B8
:10008000416042210160012001F05AFC10BD0000D6
:100090000000044000010440300010000003044050
:1000A000000302400003014040FF008000000140C7
:1000B00000000340000101400000000000000000BB
:1000C0000000000000000000000000000000000030
:1000D0000000000000000000000000000000000020
:1000E0000000000000000000000000000000000010
:1000F0000000000000000000000000000000000000
:1001000000000000000000000000000000000000EF
:1001100000F002F800F040F80CA030C808382418AD
:100120002D18A246671EAB4654465D46AC4201D12F
:1001300000F032F87E460F3E0FCCB6460126334221
:1001400000D0FB1AA246AB46334318472C1B0000D5
:100150005C1B0000103A02D378C878C1FAD8520765
:1001600001D330C830C101D504680C60704700006D
:100170000023002400250026103A01D378C1FBD8C3
:10018000520700D330C100D50B6070471FB5C04681
:10019000C0461FBD10B510BD03488546FFF7F6FFEA
:1001A00000F0D5F800F0C5F80004002003B4FFF714
:1001B000F1FF03BC00F0C4F8801C800804D000BF2D
:1001C000401EFDD100BF00BF7047EFF3108072B634
:1001D000704780F310887047002203098B422CD3AC
:1001E000030A8B4211D300239C464EE003460B4387
:1001F0003CD4002243088B4231D303098B421CD3E9
:10020000030A8B4201D394463FE0C3098B4201D3DA
:10021000CB01C01A524183098B4201D38B01C01A12
:10022000524143098B4201D34B01C01A5241030989
:100230008B4201D30B01C01A5241C3088B4201D338
:10024000CB00C01A524183088B4201D38B00C01AE5
:10025000524143088B4201D34B00C01A5241411A0C
:1002600000D201465241104670475DE0CA0F00D0EF
:100270004942031000D34042534000229C460309E8
:100280008B422DD3030A8B4212D3FC22890112BA6E
:10029000030A8B420CD3890192118B4208D3890146
:1002A00092118B4204D389013AD0921100E089095E
:1002B000C3098B4201D3CB01C01A524183098B423F
:1002C00001D38B01C01A524143098B4201D34B0128
:1002D000C01A524103098B4201D30B01C01A52418B
:1002E000C3088B4201D3CB00C01A524183088B4212
:1002F00001D38B00C01A5241D9D243088B4201D39B
:100300004B00C01A5241411A00D201466346524185
:100310005B10104601D34042002B00D54942704784
:1003200063465B1000D3404201B50020C046C04682
:1003300002BD0446C046C0462046FFF737FF000016
:1003400001491820ABBEFEE726000200704701F00D
:10035000B7FB01F001FCFEE7F0B5114E0023706819
:10036000F7013843706030684008400030601A463A
:100370000021084695012C5C401C091980B24028D8
:10038000F9D3521C5B1892B2802AF1D37068B8433B
:100390007060306801210843306098B2F0BD000001
:1003A0000000104010B50949094B4200094C095C96
:1003B0009B5AA35200230B3C235420460F308352F8
:1003C0000B382246405C0832505410BD341C0000EB
:1003D000C4000020DE000020F8B50646802400207E
:1003E00015460F469055A85D2043A855304600F0AD
:1003F0000EF9B84202D2A85DA043A8556408F2D114
:10040000F8BD0000F1B51F4900980C5C1E49600062
:100410000E5A0C310D5A08461B38075D401F0099D3
:1004200000F0EAF80099184A4900121F0028505AB3
:1004300009D0711B88421BDA134800221438009936
:1004400000F07AFA11E0711988420ED30E490B3987
:10045000085D401E0006000E085509D10A48012219
:100460001438009900F068FA02E007480B38075585
:1004700005480099143800F0BFF8002800D001208A
:10048000F8BD0000341C0000E600002010B5002478
:10049000204600F043F8641C022CF9D310BD000084
:1004A00010B5164A10681649C0B20871154B0109FB
:1004B000987809010007000F0843F02188439978D4
:1004C000090909010143116010480F498160104971
:1004D0004160104908680F2212049043032252041D
:1004E00010430860072000F085FB0B49072000F04F
:1004F000B5FB0321072000F091FB10BD00FF084071
:10050000B400002060F1FF0F00020001000008406D
:100510000008A0010000024025060000F8B50446CE
:100520001B480025025D801C005D96008100430091
:10053000C018174AC7B2083216489359005D1A68A6
:100540009C460F238B409A4363461A60022801D0D1
:10055000012800D00625FFF738FE03460C48183066
:10056000815908680722BA409043BD4005430D6099
:100570001846FFF72EFE06482830805902680449C5
:10058000891C0B5D012199408A430260F8BD00007F
:10059000301C0000C200002010B500F0C1F900F0CE
:1005A0007FF90021084600F05FF90021084600F0BD
:1005B0009BF9FF2000F066F9402000F0A3F9044900
:1005C0004868044A10434860072000F01DFB10BD36
:1005D000000008400010088010B50446641CE4B216
:1005E000022C05D02146034800F006F80028F5D07B
:1005F000204610BDB7000020CA084B075B0F012141
:100600009940805CC9B2084000D00120704770B5A5
:10061000002506462C46304600F05AF900F060F8F6
:100620000128FBD0304600F019F94519641CF2D0BE
:10063000A8B270BD70B5072000F0DCFA194901209E
:100640004861194C207800F053F8184D28780006BE
:1006500004D528784008400028701EE02078FFF775
:10066000BBFF20702078022803D2207800F062F8C7
:1006700013E02878400840002870287840060CD500
:100680000B4900200B4A0C4B0870C0B2145C1C5480
:10069000401C0006000E0870F7D0072000F0B4FAE6
:1006A00070BD000000000840B6000020B50000202A
:1006B00010010020B9000020B700002010B5002074
:1006C000064A01461154401C0228FBD3FFF7E8FEFE
:1006D000002000F059F9FFF7D9FE10BDC20000203C
:1006E00002484078C007C00F70470000B4000020E7
:1006F00010B50C4CE1680C4B42009952FFF70EFF0D
:10070000072000F077FA606808490840052149038E
:1007100008436060A06806490840A060072000F018
:1007200073FA10BD00000840C4000020FF1FDFFF67
:1007300000FF80FFFEB505464248405D8400424808
:100740000059019000F0ECF800F0AAF83E4E0021AC
:10075000083E705D401E80B200F086F8B71E785DDE
:100760000021401E80B200F0BFF8FF2000F08AF8A0
:10077000402000F0C7F8072000F03CFA33484068FA
:1007800040210843795D735D0E03711A2E4E80225D
:100790003459904309045C43A14200D210432B4CCE
:1007A0006060072000F030FA072000F023FAA0680C
:1007B0002749254A084024490E390C3A525D495DC3
:1007C000120402431143A160666822480640224891
:1007D0000643072000F018FA1A48001F405D0090F9
:1007E0001848801E405D410047188500FFF7EDFC6A
:1007F0008446009881001348001D405802680F236A
:10080000AB409A430423AB400E4813431430425884
:1008100015680720B840854315600A48001D4058F8
:1008200003606046FFF7D5FCFFF7CFFC0546666026
:100830003320FFF7C1FC0198E0602846FFF7C9FCB0
:10084000FEBD0000341C0000C8000020000008406D
:1008500000FF80FFFF1FDFFF200020000149400054
:10086000085A7047C4000020054B1A68000252075E
:10087000520FC9061043090E084318607047000064
:100880000003014005490A68002AFCDB00024030F1
:100890000122D207104308607047000000000140A9
:1008A000034801680029FCDB024901607047000031
:1008B000000001404000004003484068002802DA80
:1008C000024901200870704700000840D000002055
:1008D00010B5044900224A70887081224A70FFF7DF
:1008E00029FF10BDB4000020054B5A6800025207D2
:1008F000520FC9061043090E0843586070470000A4
:100900000003014005490A68002AFCDB000241306F
:100910000122D20710430860704700000000014028
:10092000034801680029FCDB0249016070470000B0
:10093000000001404100004030B5CC084D076D0F6C
:100940000123AB40C908415CDBB2002A01D0194346
:1009500000E09943015530BD014A11547047000031
:10096000BC000020014A400011527047E600002000
:10097000014A115470470000BA000020014A4000AB
:1009800011527047EA000020034A81075068490D60
:1009900001435160704700000000084010B5FFF7A8
:1009A0008BFF072000F026F90748416881221203D7
:1009B000914341604168490049084160FFF7B0FF39
:1009C000FFF76EFF10BD000000000840F8B51E4C98
:1009D0002078002803D1FFF771FE01202070FFF777
:1009E000DBFD1A4DA868032109068843A860164F4D
:1009F0000024174E1437305D552180003858000C04
:100A000048436421FFF7E8FB0F4A0146921D204648
:100A1000FFF7E2FC641C022CEDD30B4A0020921D70
:100A2000931C115C4C1C64081C5449081154401C54
:100A30000228F6D3A868012109060843A86068685F
:100A4000891008436860F8BDB40000200000084029
:100A5000341C000010B5072000F0CCF807484168AE
:100A60008122120391434160416849004908416075
:100A7000FFF756FFFFF714FF10BD0000000008400D
:100A8000F8B5044629486600005D42002848805AAF
:100A900000902848815B26480C38805B884207D844
:100AA000234D0023113D2B550B1A9DB2012714E055
:100AB000431A9DB21E4B00271B1D9B5AAB420CD202
:100AC0001B481138005D082803D32046FFF76AFC55
:100AD0001BE017491139401C1AE0009B9D4206D9C2
:100AE000134B1B1D9A5AAA4213D9002F11D1104A39
:100AF0000302173A125D1A435118081A01020A0C30
:100B00000B490C398A530B39085509490020113912
:100B10000855074900980839854203D9002F01D0AC
:100B20008D53F8BD00208853F8BD0000341C000030
:100B3000EA000020C400002010B500242146064829
:100B4000FFF75AFD002802D02046FFF799FF641CEA
:100B5000022CF3D310BD0000B700002000B5FFF752
:100B60008FFF00BD10B5FF20FFF7CCFEFF20FFF781
:100B700089FE03480078002801D0FFF70DFD10BD65
:100B8000D000002010B500F031FF084A08490128C4
:100B900006D001201073C879FB221040C87110BD27
:100BA00000201073C87904221043F7E76800002082
:100BB0001401002070B501260446074DF60303E03A
:100BC000E868FFF7F9FAA41BB442F9D8A8686043B3
:100BD000FFF7F2FA70BD0000A400002010B5034931
:100BE00009784843FFF7E8FA10BD0000A400002090
:100BF00000BE7047C106C90E012088400149086047
:100C00007047000080E100E0C106C90E0120884065
:100C1000014908607047000000E100E070B50E4631
:100C20000546032900D900BE092D00D300BEA80740
:100C3000C40EA41DFFF7C9FA0246A9080648890098
:100C4000081801680323A3409943A6400E43066099
:100C50001046FFF7BEFA70BD00E400E00122520723
:100C6000092800D300BE80008218106C1164704700
:100C70000248C16AC2031143C162704700000340C9
:100C800070B50446182805D0202C03D0302C01D094
:100C900000BE70BDFFF799FA1D4D0646A868C00852
:100CA000C000A860E8681B49000A00026118497B7F
:100CB0000843E8602869C008C0002861A869154990
:100CC000C009C00120396118097D4906490E084351
:100CD000A8613220FFF770FA182C15D90120E4061C
:100CE00040072018A968400FC908C9000843A86038
:100CF0003220FFF761FA012080072018A968400F11
:100D0000C908C9000843A8603046FFF762FA70BD01
:100D1000000F0340C0F1FF0F10B5FFF756FA064968
:100D2000498A064A516006490A6904231A430A613E
:100D300030BFFFF74EFA10BD40F1FF0F0000034037
:100D400000ED00E002484168012211434160704714
:100D50004000034002490148886370476588EDAC54
:100D6000000003400248C16849084900C16070475B
:100D7000400003400148C06B704700000000034082
:100D80000248C16801221143C1607047400003401E
:100D9000034600B50648C06A002801DBFFF768FF7C
:100DA000034940310A68120C12041A430A6000BD5C
:100DB00000000340F8B59B480068002800D0804739
:100DC000994804889948056899480668FF200230C8
:100DD000984F05422ED09749403908684000400896
:100DE000086095480278DF231A40027002781023C9
:100DF0001A4302708D4A40329368DB0617D48F4D38
:100E00002D78AC4203D0037808252B430370386A51
:100E100005235B0398433862844B0020803398603D
:100E20009060874A107008685A061043F6E003780D
:100E30000225EAE7F00603D57D490020803188606D
:100E40000A20064213D079488030C0687D4B4007A5
:100E500047D518687A4B1978002916D0012907D090
:100E60000020FFF7C5FE71490420803108606EE064
:100E7000754B1988002931D00122FA62734A126831
:100E80001055641C491E1980EDE771490988884294
:100E900024D20122FA626F4904460988884201D2AD
:100EA000081B00E0002080B267490828088001D2B2
:100EB0001A700AE00828386A0AD001214903084359
:100EC000386208205949803188605C480470CAE75C
:100ED00005214903084338620020F3E70220F86245
:100EE000C1E7386A800432D5B0070BD55548403881
:100EF0008068396A0007000F052252039143396266
:100F0000012107E050490888083880B20880082885
:100F10000DD80021002807D04C4A1268494B1B68A5
:100F20001355641C401EF9D1002903D00BE00820A2
:100F30000121F1E7386A0121C903084338623B49BE
:100F400000208031886039480C2180300160B00772
:100F500047D5E8062026002814DA344800218030DE
:100F60008160324840308160344A022012789442D5
:100F700000D00A20304A284013781843B04310703C
:100F80002F48017068062AD52B480178314301703B
:100F90002A480478786AC00611D52D482A49008865
:100FA000001B08802C484268012109040A43426062
:100FB00042688A4342601D491020403102E01B49CB
:100FC0000420803188601A4801228030026017486E
:100FD000224901608168102319438160FA62134835
:100FE000056013480068400719D518481A4B164A7F
:100FF0004033194D0168FF271088002805D00E5D89
:101000001E60641C401E108000E01F60A86800077E
:10101000000F0828F0D1054910204031086002482F
:101020000480F8BDFC00002008010020400F0640AD
:10103000000E064040000640000100200201002092
:101040000101002040030640120100200C01002095
:10105000040100200601002000020640FF0F0000EE
:1010600010B5044801688203114301600520FFF7B1
:10107000CBFD10BD0000064010B50520FFF7BAFDFE
:101080000548047801784909490101700520FFF7F6
:10109000BBFD204610BD00000001002010B5FF2060
:1010A000184901300860174917484031086218484C
:1010B0001649016000244460164A02611648016026
:1010C00044600520FFF796FD03210520FFF7A6FDEC
:1010D00012490520FFF7C2FD11488460FF20104926
:1010E0005230C03188600E48803084600D48846082
:1010F0000C48403884600C4844700470048184704B
:1011000010BD0000000006400008004007010080FC
:10111000000306404000FE0000020640A50D00004E
:10112000800E0640C00F064000010020014900204B
:1011300088607047800E0640014901208860704732
:10114000800E0640002A03D0024BDA609880D980D6
:10115000704700000001002010B5FFF7EDFF10BD43
:1011600010B5054C2078002803D1FFF797FF012028
:101170002070FFF775FF10BDF800002010B5FFF7D5
:10118000D5FF10BD03498A6838239A43C000024343
:101190008A60704700030440044A1168FD23C007B9
:1011A0001940800F0843106070470000000304409E
:1011B00003498A68D208D20002438A60704700005F
:1011C00000030440044A1168FE23C0071940C00F01
:1011D000084310607047000000030440F8B5694FF1
:1011E000F87A01280BD10024FFF746FF800606D5C8
:1011F0000220FFF7F3FC641CA4B2642CF4D3624E0B
:101200003121307875780140B478012904D0102953
:101210000ED0202913D019E0EE2C17D100233B75F6
:10122000317A01221143317290433070B3700DE076
:10123000397A00290AD101217972EF2104E0397A43
:10124000002903D17972DF2108403070002D01D0D0
:10125000002C06D0A80612D5AA2C04D0BB2C08D08E
:101260000DE00120F8BD2846DF2108407070002005
:1012700004E02846DF21084070700120F872E80978
:10128000BF2100280ED0AA2C1FD10022BA73F079FA
:10129000084080210843F07170784006400E70705D
:1012A000B27010E0680610D5AA2C0ED10120B873D8
:1012B000F07940224006400E1043F07170780840EB
:1012C00070700020B07000F021F9082D04D0012DBD
:1012D0000FD0042D30D052E0AA2C50D108207873C2
:1012E000F079C521084010210843F0710020B0704A
:1012F00045E0AA2C43D10120787300F06FF8F07913
:10130000C521084002210843F0710020B070502030
:101310007072B07201460020FFF724FB50210120BB
:10132000FFF720FB002414212046FFF727FB641C55
:10133000A4B2022CF7D322E0AA2C20D10420787387
:1013400000F04CF8F079C521084008210843F071FD
:101350000020B070282070721E20B072282100205A
:10136000FFF700FB1E210120FFF7FCFA00240F21EC
:101370002046FFF703FB641CA4B2022CF7D3002025
:10138000F8BD0000680000201401002004498A68AC
:1013900007239B049A43800402438A60704700003D
:1013A00000010440044A1168BF23C0071940400EE1
:1013B00008431060704700000001044010B5054A62
:1013C000054B00204100401C545AC0B25C52022818
:1013D000F8D310BDC4000020DE000020F8B500F0F6
:1013E0004DF900F0B5F80D4D00210A4C0A4B2E1FA7
:1013F0004800225A1A52094F2A523252083F3A5292
:101400003F1F491CC9B23A520229F1D3FFF794FB9E
:10141000F8BD0000C4000020DE000020980000207D
:1014200070B5FFF7D3FA1348807B01280ED1124D17
:101430000024AE1C295D2046FFF79AFA315D204654
:10144000FFF78AFA641CE4B2022CF3D35021002087
:10145000FFF788FA50210120FFF784FA00241421B5
:101460002046FFF78BFA641CE4B2022CF7D3FFF797
:10147000B5FF70BD68000020241C0000FEE70000DE
:10148000044A1168BF23C0071940400E084310608A
:101490007047000000000440044A1168FD23C007A3
:1014A0001940800F0843106070470000000104409D
:1014B00070B5114E0125717A3046104C807A0129A1
:1014C00001D101280DD001430AD10120FFF7D8FF37
:1014D0000120FFF7E1FFB572E07940084000E071BC
:1014E00070BD0020FFF7CCFF0020FFF7D5FF0020E4
:1014F000B072E0792843F2E7680000201401002070
:1015000010B5FFF727FCFEF703FE10BD70B5FFF71F
:10151000A1FA0120FFF74EFBFFF758FA0A48807B3B
:1015200001280ED1094D0024AE1C295D2046FFF78D
:101530001FFA315D2046FFF70FFA641CE4B2022C5B
:10154000F3D3FFF74BFF70BD68000020241C0000A0
:1015500030B5074A074B00204100545A5D5A401CE1
:101560006C432402240CC0B254520228F4D330BD80
:10157000C4000020281C0000F8B53B498879401CB5
:10158000C0B28871032805D93848827C521C827405
:10159000002088713448407B082858D000F06EF84D
:1015A000FFF7D6FF324E334F00256C00305B395BBE
:1015B000884201D9411A00E0091A4B2212019142D6
:1015C00004DD2949C87B401CC8732CE0264B283316
:1015D0001A5B191D0A530839095B19531B1F18534D
:1015E00010331A8059809880184600F057FA1E4A26
:1015F000014630533032105B884206D9491C89B20B
:101600003153884201D9491C315389B2884206D2EC
:10161000491E89B23153884201D2491E31531153B8
:101620002846FFF79BFA1448005BB4280BD90E49F3
:101630004879401CC0B248710F2804D1002048717D
:10164000385B401C38536D1CEDB2022DADD30648FB
:10165000C17A012906D1C17B012903D90021C173B7
:10166000FFF7BCFEF8BD0000680000203401002038
:10167000C4000020DE000020E2000020FEB50020B3
:1016800001466E468200401CC0B2B1500228F9D318
:10169000114F002500242046FFF71AF9FFF720F824
:1016A0000028FBD1A00062003158BA5A641C891886
:1016B000E4B23150022CEED36D1CEDB2042DE9D30F
:1016C00000208100715842008903090C401CC0B2FF
:1016D000B9520228F5D3FEBDC400002070B5FFF753
:1016E000CBFC0020FFF75EFE00240E4DFFF7C4FC8C
:1016F000800606D40220FFF771FA641CA4B2AC4243
:10170000F4D30024FFF7B8FC800606D50220FFF7CB
:1017100065FA641CA4B2962CF4D30120FFF742FEB4
:1017200070BD0000DC050000F8B50020FEF76AFE81
:1017300001247F4F0028B87C01D0204301E04008FD
:101740004000B8740120FEF75DFE02210028B87C3D
:1017500001D0084301E0FD221040B874C2B2387CC9
:101760000026824200D07E74787C401CC0B278741F
:101770003A743B7B002B01D0012B03D1002801D010
:101780007E74FC743B7D6B48002BFB7C11D0002BDE
:101790005AD005462035FE74012A56D0022A79D047
:1017A000032A75D0FE823E837E83F979012970D0A9
:1017B000B0E0002B48D0FE743E70D30700D03C70E0
:1017C000920702D53A780A433A703A787B789A427F
:1017D00024D05340FE70BB70DD0704D0D50701D084
:1017E000FC7000E0F970990707D59107F97801D5E9
:1017F000042200E008221143F970F978C170FFF764
:101800006DFFBE83FE833E71387A01281AD1387885
:10181000002801D07C7215E07E7213E0002A09D006
:10182000B88B401C80B2B883C8280BD9BE83FFF7A1
:10183000C5FD07E0F88B401C80B2F883FA2801D37D
:10184000FE833C7138787870F8BDF979002903D1AE
:10185000C470FFF743FFFC71387A012800D17C7215
:10186000F88A401C80B2F8823E837E83E875FE834E
:101870003E71C828E8D9304A304BFE820020410032
:10188000401C545AC0B25C520228F8D3F8BD01E0A3
:1018900022E038E0FA79002A03D1C170FFF71EFF79
:1018A000FC71387A012800D17C72388B401C80B2E0
:1018B0003883FE827E83E875FE833E71C828E5D9B1
:1018C0001D4A1E4B3E8300204100401C545AC0B2AA
:1018D0005C520228F8D3D9E7788B401C80B2788319
:1018E000FE823E83E875FE833E71C828CED9124A37
:1018F000124B7E8300204100401C545AC0B25C52FF
:101900000228F8D3C2E7C17808221143C170FFF75B
:10191000E5FEFE71F88B401C80B2F883FA2801D1F5
:10192000FE833C71387A0128B0D17E72AEE70000A8
:101930006800002014010020C4000020DE00002008
:10194000094A1168002802D09304194301E04900B4
:1019500049081160054B996A2022002801D01143E3
:1019600000E091439962704700200240000003406C
:1019700070B500241A4DFFF77FFB800606D50220C4
:10198000FFF72CF9641CA4B2AC42F4D3154C2079B7
:10199000002816D0192040012062FFF7E3F9FFF775
:1019A000E9F9216A80B24018FFF7F2F9FFF7E8F988
:1019B0000D48406AC007C00F06D00C20FFF7FAF8A8
:1019C00070BD09208001E7E7FEF7E8FFFFF7C4FBE1
:1019D000FFF7A2F9FFF7D2FBFFF7C4F870BD0000D4
:1019E000DC05000068000020400006400248406816
:1019F0004007C00F704700000003044010B5FFF718
:101A0000A1F9FFF7AFF9FFF7B5F9044980B2096A08
:101A10004018FFF7BDF9FFF7B3F910BD68000020CB
:101A2000F0B572B60020174E174F18494300CA5A36
:101A30001749C95A0C4654432402240C2502240A8F
:101A40002543DC19E583F35A59430902090C0D02B9
:101A5000090A0D43E5849A4201D9D11A00E0002118
:101A600089B20A02090A0A430A49E2820A5C391861
:101A70004A73094A125C401CC0B24A740228D4D38B
:101A800062B6F0BDDE00002014010020C40000207A
:101A90002C1C0000BA000020BC0000208288418875
:101AA00000888A4207D3814201D30846704790429A
:101AB000FCD3104670478242FBD28842F5D2704771
:101AC00070B50F4C206840084000206000200D4B8E
:101AD0000D4A01E0042802D28100595800E00B4968
:101AE0008500401C51511928F4D3FEF799FA084992
:101AF00000200860206801210843206070BD0000BC
:101B00000000104000000000000000206D140000E4
:101B10006400002010B50446FEF757FB04494A68EC
:101B2000C0239A43A3011A434A60FEF752FB10BD3B
:101B300000E400E010B5064910240C600549086572
:101B40000320FFF7E7FF02488038046010BD000063
:101B500080E100E0000000200120FFF791FC01205F
:101B6000FFF79AFC2F4D0127AF720420FFF70EFC00
:101B70000120FFF717FC2C4C0026267041206070D6
:101B8000A6700820E07012202071062060714020AD
:101B9000A0718220E07150206072A072267266757A
:101BA0002248E085FEF7D8FB2086224603213A2012
:101BB000FFF7C8FAFFF7D4FA0220FFF7E3FA022092
:101BC000FFF7F6FA0120FFF7E7FA0120FFF7FAFA2C
:101BD00062B6FFF7BFF81E20FEF7ECFF2E726F73A0
:101BE000AE73EF722F732F75286AFFF7D1F8FFF7E6
:101BF000C7F80F48FFF79EFFFFF712FCFFF7BCFC8A
:101C0000FFF792FDFFF7EAFAFFF752FCE87A0028A7
:101C100004D0FFF7ADFEFEF7B5FFEFE7FFF700FFDB
:101C2000F9E700006800002014010020080A000005
:101C3000ED1900000D060D06A60042008A01D8032A
:101C40000101030200010000000002400001024007
:101C50000002024000030240080004400801044062
:101C6000080204400803044000000440000104404E
:101C70000002044000030440981C00000000002003
:101C80006400000044010000FC1C0000680000200B
:101C9000AC00000044010000A81D00001401002059
:101CA0003C00000060010000000000000000000097
:101CB0000000000000000000000000000000000024
:101CC0000000000000000000000000000000000014
:101CD0000000000000000000000000000000000004
:101CE00000000000000000000000000000000000F4
:101CF00000000000000000000000000000000000E4
:101D000000000000000000000000000000000000D3
:101D100000000000000000000000000000000000C3
:101D20000000000000000000000000004002000071
:101D300000000000000000000000000000000000A3
:101D400000000000000000000C000000001BB700B5
:101D5000E02E00000000701700000003000040406B
:101D60004040040402020000000000000000FF1FC9
:101D70000000FF1F00000000000808010100000033
:101D800000000000000000000000320032001400DB
:101D90001400050005000200020000000000000021
:101DA0000000000000000000000000000000000033
:101DB0000000000000000000000000000000000023
:101DC0000000000000000000000000000000000013
:101DD0000000000000000000000000000000000003
:00000001FF
