:100000000110060000000000801E0000FF0000003C
:10001000020D96FFFFFFFFFFFFFFFF0218A27E0306
:100020009000BEE06F6007EFF0E49000C1F0900038
:10003000BEE07001FE9000C1E004F0C39E50037F5B
:1000400000229000C17403F07F01220219C6E4FB74
:10005000EB25E025E024ADF812025DEB25E025E07C
:1000600024BDF81202760BBB04E6220211E6BB01A6
:100070000689828A83E0225002E722BBFE02E32245
:1000800089828A83E49322EF8DF0A4A8F0CF8CF0CC
:10009000A428CE8DF0A42EFE22BC000BBE0029EFBA
:1000A0008DF084FFADF022E4CCF875F008EF2FFF5F
:1000B000EE33FEEC33FCEE9DEC984005FCEE9DFE2D
:1000C0000FD5F0E9E4CEFD22EDF8F5F0EE8420D274
:1000D0001CFEADF075F008EF2FFFED33FD400798E3
:1000E0005006D5F0F222C398FD0FD5F0EA22BB01ED
:1000F0000A89828A83E0F5F0A3E022500687F0099E
:10010000E71922BBFE07E3F5F009E3192289828A89
:1001100083E493F5F074019322E88FF0A4CC8BF084
:10012000A42CFCE98EF0A42CFC8AF0EDA42CFCEAB3
:100130008EF0A4CDA8F08BF0A42DCC3825F0FDE9ED
:100140008FF0A42CCD35F0FCEB8EF0A4FEA9F0EBE3
:100150008FF0A4CFC5F02ECD39FEE43CFCEAA42DEF
:10016000CE35F0FDE43CFC2275F008758200EF2FDF
:10017000FFEE33FECD33CDCC33CCC58233C5829B6D
:10018000ED9AEC99E58298400CF582EE9BFEED9A93
:10019000FDEC99FC0FD5F0D6E4CEFBE4CDFAE4CC2F
:1001A000F9A88222B800C1B90059BA002DEC8BF031
:1001B00084CFCECDFCE5F0CBF97818EF2FFFEE33EE
:1001C000FEED33FDEC33FCEB33FB10D70399400419
:1001D000EB99FB0FD8E5E4F9FA227818EF2FFFEE40
:1001E00033FEED33FDEC33FCC933C910D7059BE971
:1001F0009A4007EC9BFCE99AF90FD8E0E4C9FAE4CD
:10020000CCFB2275F010EF2FFFEE33FEED33FDCC6B
:1002100033CCC833C810D7079BEC9AE899400AED55
:100220009BFDEC9AFCE899F80FD5F0DAE4CDFBE4FD
:10023000CCFAE4C8F922EB9FF5F0EA9E42F0E99D82
:1002400042F0E89C45F022E8600FECC313FCED138C
:10025000FDEE13FEEF13FFD8F122E8600FEFC3337A
:10026000FFEE33FEED33FDEC33FCD8F122E6FC0863
:10027000E6FD08E6FE08E6FF22E6FB08E6F908E6EA
:10028000FA08E6CBF822ECF608EDF608EEF608EFF1
:10029000F622ECF208EDF208EEF208EFF222D0833B
:1002A000D082E493F608740193F608740293F6087A
:1002B000740393F6740473D083D082E493F20874C9
:1002C0000193F208740293F208740393F2740473B6
:1002D0008A838982E473E4F554E55425E025E0241B
:1002E000BDF8C00012025DC00774732554F8E6FF24
:1002F000FBE4FAF9F8D007120109D000120276E502
:100300005425E025E024BDF8C00012025D780712F4
:100310000237D000120276E55425E025E024BDF82E
:1003200012025DEC4D4E4F6076E55425E025E02449
:100330009DF812025DE55425E025E024BDF8120287
:1003400069C312022650037F0322E55425E025E00D
:10035000249DF8120269C000E55425E025E024BD83
:10036000F812025DD000C3EF9BF558EE9AF557EDF9
:1003700099F556EC98F555E47FFF7EFFFDFCAB58F0
:10038000AA57A956A855C312022640037F0322E5A7
:100390005425E02400F8E557F208E558F28015E509
:1003A00054C39404500BE55425E02410F8E4F208FB
:1003B000F27F03220554E554640460030202C9E499
:1003C000F554E55425E02408F8E2FE08E2FFE55480
:1003D00025E02400F8E2FC08E2FDD39FEC9E401EDD
:1003E000E55425E02408F8E2FE08E2FFC3ED9FFF94
:1003F000EC9EFEE48F5C8E5BF55AF5598009E4F5BE
:100400005CF55BF55AF559E554C3940440030204C6
:10041000B1AF5CAE5BAD5AAC59780712024A8F5C43
:100420008E5B8D5A8C59300940E55425E025E02437
:1004300040F8E2FC08E2FD08E2FE08E2FFE47B038C
:10044000FAF9F8120109EF255CFFEE355BFEED3598
:100450005AFDEC3559FC7802120237E55425E025A7
:10046000E02440F81202828033E55425E025E024A0
:1004700040F8E2FC08E2FD08E2FE08E2255CFFEE3F
:10048000355BFEED355AFDEC3559FC78011202372B
:10049000E55425E025E02440F8120282E55425E0E9
:1004A00025E02440F8E2FC08E2FD08E2FE08E2FF55
:1004B0007807120237E55425E02410F8EEF208EF31
:1004C000F20554E554640460030203B27F07228EF0
:1004D000568F57E4F559F55AF55B9000D3E0F55A7D
:1004E000A3E0F55BE4F5589000BFE070139000C105
:1004F000E0B4030CD37895E2940018E29400401E17
:10050000E55825E02484F8E4F208F2E55825E025D2
:10051000E0246CF81202A7000000000205D5E5589F
:1005200025E02485F9E3700219E3701AE55825E007
:100530002400F8E2FE08E2FFE55825E0247CF8EE0E
:10054000F208EFF28057E55825E0247CF8E2FE0837
:10055000E2FFE55825E02400F8E2FC08E2FD121D68
:1005600055D3EF955BEE955A4033E55825E02400CE
:10057000F8E2FE08E2FFE55825E0247CF8EEF208F8
:10058000EFF2E55825E02484F8E4F208F2E5582576
:10059000E025E0246CF81202A700000000E55825D1
:1005A000E02400F8E2FE08E2FFE55825E025E0241B
:1005B0006CF8C000E2FB08E2F908E2FA08E2CBF8C6
:1005C000E4FCFDEB2FFFEA3EFEED39FDEC38FCD0FC
:1005D00000120282E55825E02484F808E22401F2A2
:1005E00018E23400F20558E558C39404500302049D
:1005F000D7E4F558E55825E02485F9C3E395571964
:10060000E39556400205590558E558B404E6E55906
:10061000640460030206B274FF9000D5F0A3F0E416
:10062000A3F0A3F0F558E55825E02484F8E2FE088D
:10063000E2FF4E70030206B2E4FCFDC004A905AA65
:1006400006AB07E55825E025E0246CF8E2FC08E25B
:10065000FD08E2FE08E2FFD0001201948E5C8F5D7F
:10066000D39000D6E0955D9000D5E0955C4007E51D
:100670005CF0A3E55DF0C39000D8E0955D9000D7F5
:10068000E0955C5007E55CF0A3E55DF0E55825E0FA
:100690002408F8E55CF208E55DF2E55825E02484DD
:1006A000F8E4F208F2E55825E025E0246CF812029F
:1006B000A700000000C2080558E558640460030262
:1006C000061622E4F557F556E55625E025E0246C9C
:1006D000F81202A7000000000556E556B404E9121E
:1006E0001AFBE4F556E55625E025E0246CF8C00039
:1006F000E2FC08E2FD08E2FE08E2FFE55625E025FF
:10070000E024ADF8120269EF2BFFEE3AFEED39FD61
:10071000EC38FCD0001202820556E556B404C6053A
:1007200057E557C3940540B7E4F556AF57E4FCFDD1
:10073000FEC004A905AA06AB07E55625E025E0247E
:100740006CF8E2FC08E2FD08E2FE08E2FFD00012CD
:1007500001948F5B8E5A8D598C58AB5BAA5AA9595C
:10076000A858C00074732556F8E6FFE4FCFDFED0DF
:10077000001201098F5B8E5A8D598C58780712022E
:10078000378F5B8E5A8D598C58E47FE87E03FDFCD1
:10079000AB5BAA5AA959A858D31202264030E55B90
:1007A0002418FFE55A34FCFEE55934FFFDE55834C2
:1007B000FFFCE55625E025E0249DF8120276E5567B
:1007C00025E02400F87403F20874E8F2801EE55670
:1007D00025E025E0249DF812028E00000000E55679
:1007E00025E02400F8E55AF208E55BF2E55625E03D
:1007F00025E0246CF81202A700000000E55625E071
:100800002484F8E4F208F2E556C39404506BE556EC
:1008100025E02400F8E2FE08E2FFE55625E0240882
:10082000F8EEF208EFF2E55625E02400F8E2FE08C3
:10083000E2FFE55625E02428F8EEF208EFF2E5564F
:1008400025E02400F8E2FE08E2FFE4FCFD78071250
:10085000024AE55625E025E02430F8120282E556EA
:1008600025E02410F8E4F208F2E55625E025E0241E
:1008700040F81202A7000000000556E55664046027
:100880000302071B22E4F9FDED75F008A4247DF8AE
:10089000E6FE08E6FFED25E02420F8E2FA08E2FB98
:1008A000C39FEA9E4074EBAE027802CEC313CE1310
:1008B000D8F9FFED25E02424F8E2FA08E2C39FEA24
:1008C0009E40579000CAE0FEA3E04E6039ED25E05F
:1008D0002428F8E2FE08E2240AFFE43EFEED25E0CB
:1008E0002400F8E2FA08E2FBC39FEA9E5018ED25C7
:1008F000E02428F8E2FE08E224F6FFEE34FFFED3FF
:10090000EB9FEA9E500D7401A805088002C333D8FE
:10091000FC4201E49000CAF0A3F0ED75F008A424B5
:100920008DF8E6FE08E6FFED25E02424F8E2FA085B
:10093000E2FBC39FEA9E4078EBAE027802CEC3137F
:10094000CE13D8F9FFED25E02420F8E2FA08E2C33F
:100950009FEA9E405B9000CAE0FEA3E04E6039ED46
:1009600025E0242CF8E2FE08E2240AFFE43EFEED36
:1009700025E02404F8E2FA08E2FBC39FEA9E50183F
:10098000ED25E0242CF8E2FE08E224F6FFEE34FF29
:10099000FED3EB9FEA9E5011ED2402FF7401A807DD
:1009A000088002C333D8FC4201E49000CAF0A3F0EF
:1009B0000DED640260030208789000CAE0FEA3E037
:1009C0004E600BE024FFF09000CAE034FFF0300AE4
:1009D0000F9000CAE0FEA3E04E70031215B6C20AE3
:1009E00089222285BA5C53BA0F43BA10E4F556E562
:1009F0005625E025E024ADF812028E000000000527
:100A000056E556B404E975560575ABFF121C75E43E
:100A1000F557E55725E025E024ADF8C00012025D4A
:100A2000C004C005C006C00774CD2557F8E675F0B0
:100A300003A4246FF582E4341DF583E493FB740171
:100A400093FA740293F91202C0A804A905AA06AB8E
:100A500007D007D006D005D004EF2BFFEE3AFEED0D
:100A600039FDEC38FCD0001202760557E557C394E7
:100A700004409FE4F5AB121C75E4F557E55725E0FB
:100A800025E024ADF8C00012025DC004C005C00618
:100A9000C00774CD2557F8E675F003A4246FF582DE
:100AA000E4341DF583E493FB740193FA740293F923
:100AB0001202C0A804A905AA06AB07D007D006D029
:100AC00005D004C3EF9BFFEE9AFEED99FDEC98FC78
:100AD000D0001202760557E557C39404409E155680
:100AE000E55660030209F9E4F557E4755B10755AA1
:100AF00027F559F558AF5BAE5AAD59AC5878071287
:100B0000024A8F5B8E5A8D598C58E55725E025E0B7
:100B100024ADF81202691201948F5B8E5A8D598CA4
:100B20005874732557F8A6070557E557B404BB85D5
:100B30005CBA2230040E755700755814755900754B
:100B40005A64800C755700755814755900755A64AD
:100B5000E4FDED25E02458F8E2FE08E2FFED25E093
:100B60002419F9D3E39F19E39E4016ED25E02418DC
:100B7000F8E2FE08E2FFED25E02458F8EEF208EF77
:100B8000F2EDC39402506AE557C313FEE55813FF14
:100B9000ED25E02419F9D3E39F19E39E5023ED7569
:100BA000F008A4247DF8A65708A658E55825E0FFCC
:100BB000E55733F8ED25E02458C8F208EFF2020CAF
:100BC00045ED25E02419F9D3E3946419E39400502A
:100BD00003020C45ED25E02458F9E3C313FE09E3B5
:100BE00013FFED75F008A4247DF8A60608A607807B
:100BF00064E559C313FEE55A13FFED25E02419F906
:100C0000D3E39F19E39E5022ED75F008A4247DF8EC
:100C1000A65908A65AE55A25E0FFE55933F8ED250F
:100C2000E02458C8F208EFF2802BED25E02419F9F2
:100C3000D3E3949019E39401401BED25E02458F987
:100C4000E3C313FE09E313FFED75F008A4247DF858
:100C5000A60608A6070DED64046003020B42E4FD3E
:100C6000ED75F008A4247DF8E6FE08E6FFED25E02A
:100C70002460F8EEF208EFF20DBD04E42220CA036E
:100C8000020D957862E67003020D95E4786CF6F536
:100C90005474622554F8E6FF744A2554F8A6077484
:100CA000622554F8E4F60554E554B40AE4786CE699
:100CB000700320CA12E4F554744A2554F8E4F6058A
:100CC00054E554B40AF222E54A24E0601F24F0609F
:100CD0002224F0604224F0606224F0606624F06018
:100CE0006A2460706FE4FF121CE180687F01121CAF
:100CF000E18061787D760008761478857600087644
:100D000014788D7600087664789576000876647895
:100D100070E64410F6803D787D760008761478857C
:100D20007600087614788D760008766478957600DB
:100D30000876647870E654EFF680197870E644011E
:100D4000F680117870E654FEF68009E4FF121DB0BB
:100D50007872A607E54A54F064807049E54B454C2B
:100D60006043E54BFE7C00E4254CFFEC3EFEC3EF08
:100D7000940AEE9400402EE54A540FFDBD0F19E48D
:100D8000F554E55475F008A4247DF8A60608A607D6
:100D90000554E554B404EB22ED75F008A4247DF865
:100DA000A60608A60722439F04E453C6DFE5C60053
:100DB000B5C6F375830075820775FD0DE4E5FEF495
:100DC000FF75830075820675FD0DE4E5FEB5070429
:100DD000F59E8003759E0078100000D8FC53C6E095
:100DE00043C60843C68075960575970375830075DD
:100DF000820475FD0D85FE8F75830075820375FD78
:100E00000DE4E5FEF4FF75830075820275FD0DE4C7
:100E1000E5FEB50704F595800375958375BE0E5301
:100E200092FE9001007F007E02E4F0A3DFFCDEFA78
:100E300078007F00E4F208DFFC78FFE4F6D8FD7567
:100E400081D8020E730200000212CAE493A3F8E4F0
:100E500093A34003F68001F208DFF48029E493A312
:100E6000F85407240CC8C333C4540F4420C883402B
:100E700004F456800146F6DFE4800B0102040810FA
:100E80002040809017C6E47E019360BCA3FF543FCE
:100E900030E509541FFEE493A360010ECF54C02532
:100EA000E060A840B8E493A3FAE493A3F8E493A322
:100EB000C8C582C8CAC583CAF0A3C8C582C8CAC586
:100EC00083CADFE9DEE780BE7557FF30040B753B50
:100ED00000753C00753D338009753B00753C00751D
:100EE0003D2BE4F55CAB3BE53DF92402F53DE53CEB
:100EF000FA3400F53C1200DEFFE55C25E0243EF804
:100F0000A6F008A607055CE55CB404D9E4F55CE549
:100F10005C25E0243EF8E6FE08E6FFE55C25E024DB
:100F200011F9C3E39F19E39E4003020FC8E55C2556
:100F3000E02442F8E6FE08E6FFE55C25E02414F82C
:100F4000E2FC08E2FDC39FEC9E4003020FC8E55C93
:100F50007020E55C25E02410F8E2FE08E2FF241E84
:100F6000F55BE43EF55AEF24ECF559EE34FFF55805
:100F70008021E55CB4011C25E02410F8E2FE08E2C3
:100F8000FF241EF55BE43EF55AEF24ECF559EE34F0
:100F9000FFF558C3ED955BEC955A5008ED9559EC6B
:100FA00095585011E55C25E02411F9C3E3940A1922
:100FB000E394005023AF5C7401A807088002C33398
:100FC000D8FCF45257E55C2402FF7401A80708809E
:100FD00002C333D8FCF45257055CE55C640260033D
:100FE000020EFF855724227556077D0774017E0087
:100FF000A856088005C333CE33CED8F9FFACACEC8D
:10100000FBE4EF5B7003D556E3ED601D74017E00D9
:10101000A805088005C333CE33CED8F9FFACAEECBB
:10102000FBE4EF5B70031D80E0AF567401A8070876
:101030008002C333D8FCF5AC7401A805088002C354
:1010400033D8FCFFF5AD8FAE53AACF85BA5F53BA44
:101050000F43BA10E4F55AF559F558F557121C75B7
:10106000E4F55674CD2556F8E675F003A4246FF523
:1010700082E4341DF583E493740193FA740293F9C6
:101080001202C08F5E8E5D8D5C8C5BAB5AAA59A933
:1010900058A857C3120226500C855E5A855D5985A3
:1010A0005C58855B570556E556C3940440B5AF5A66
:1010B000AE59AD58AC577802120237E55A2FF55A9F
:1010C000E5593EF559E5583DF558E5573CF557AF1C
:1010D0005AAE59AD58FC78101202378FB3AF5AAEE2
:1010E00059AD58AC5778081202378FB2855AB143C0
:1010F000AA30855FBA75AC0375ADC075AEC022E489
:10110000F558F5593009030211E5E4F556F557AFE6
:1011100057EF25E02429F8E224F6FD18E234FFFC1D
:10112000EF25E02401F9D3E39D19E39C500302115C
:10113000ABAB57EB25E02400F8E2FE08E2FFE48FBA
:101140005D8E5CF55BF55AAD5BAC5A780712024ACE
:101150008F5D8E5C8D5B8C5AEB25E025E02430F8AA
:10116000E2FC08E2FD08E2FE08E2FFE47B3FFAF958
:10117000F8120109EF255DFFEE355CFEED355BFDF4
:10118000EC355AFC7806120237AB57EB25E025E028
:101190002430F8120282EB25E025E02430F8E2FC4E
:1011A00008E2FD08E2FE08E2FF7807120237EB25AD
:1011B000E02428F8EEF208EFF280080559E55970AE
:1011C0000205580557E557700205566404455660F8
:1011D000030210FFE559640445587019D20A9000C3
:1011E000CAE07002A3E0700D7F06121C0D9000CAC9
:1011F000EEF0A3EFF022C0E0C0F0C083C082C0D008
:1012000075D008C2CF30CD030212BF30CB4720CCFF
:10121000447861A6CEE6FFC39480403075F003EFBA
:10122000A4248DF582E5F03417F583E493FB740173
:1012300093FA7402938B478A48F5490549E549704A
:1012400002054814F912005EF5CE80097861E625A2
:1012500046F8E6F5CE30CC297861E6C39480401597
:10126000AB470549E549AA487002054814F9120040
:101270005EF5CE8056786106E62546F8E6F5CE8026
:101280004A20CB47AFCE7861E6FE702EBF100553E3
:10129000809F8037BF2005438060802FBF50087833
:1012A00070E64401F68024BF60087870E654FEF6CC
:1012B00080197862A60F18068011EEC3940A5008B0
:1012C0007861E62462F8A60F786106786C7601D022
:1012D000D0D082D083D0F0D0E032121D1D7D01E449
:1012E000FF121B6D7F01121CE17F01121D00121EF7
:1012F00069121E5C121C9B121837121BD8121C415B
:10130000D2AF751C01E51C24FD601114601924FE88
:10131000602614602A1460702407706F121A6C1211
:1013200016D1751C048064D2D8E51D70FC12003EF5
:10133000121D87751C0680531202C68F1C804CD369
:101340009000C7E094009000C6E09400400CA3E039
:1013500024FFF09000C6E034FFF0D37895E29400CB
:1013600018E29400400A08E224FFF218E234FFF287
:101370009000C3E004F070069000C2E004F0121781
:10138000501213AD8F1C8003751C049000D9E0B47B
:101390000124E4786CF6FF121E69E4F0F518F519E3
:1013A000000519E51970020518B42CF4E518B4010C
:1013B000EF7F01121E69120C6D0212F522E4F55442
:1013C00075550812151E1210EF121AB71216461292
:1013D0001BA39000BFEFF012000EEF60567F0112CA
:1013E0001C0DAD07AC06D39000C7E094009000C67A
:1013F000E094004010ECC4F854F0C868FCEDC4540C
:101400000F48FD8025300811EDAE047803CEC313DC
:10141000CE13D8F9FDAC06801120090EECC4F854A7
:10142000F0C868FCEDC4540F48FDAF05AE041204CB
:10143000BF8003AF55229000BEE0F554E554603400
:10144000E49000CCF0A3F09000C9E004F0700690A6
:1014500000C8E004F07F05121C0DD39000C9E09F86
:101460009000C8E09E4014E4FF12196AE49000C0A6
:10147000F07F0322E49000C8F0A3F09000C0E06584
:1014800054600BAF5412196A9000C0E554F0AF5588
:10149000227DFFE5227003021518787DE6FE08E63E
:1014A000FFC37821E29F18E29E4010788DE6FE0887
:1014B000E6FF7825E29F18E29E50707885E6FE08E8
:1014C000E6FFC37823E29F18E29E40107895E6FE7F
:1014D00008E6FF7827E29F18E29E504F7814E2FE5C
:1014E00008E2FF7811E22FF55818E23EF55778161A
:1014F000E2FE08E2FF7813E22FFF18E23EAB07FAA4
:10150000EB25E0FFEA33FEC3E5589FE5579E500305
:101510005305FAE55825E0FFE55733FEC3EB9FEA94
:101520009E50085305F580035305F08D2322E4F502
:1015300056E55625E02410F8E2F55708E2F558AED6
:1015400057FFE4FCFD7B64FAF9F8120109C006C0FC
:1015500007E55625E02496F582E43400F583E0FEA5
:10156000A3E0FFFBAA06E4F9F8D007D00612019425
:10157000E55625E02420F8EEF208EFF2AE57AF581A
:10158000E4FCFD7B64FAF9F8120109C006C007E526
:101590005625E02496F582E43400F583E0FEA3E0CE
:1015A000FFFBAA06E4F9F8D007D006120194E5562D
:1015B00025E02418F8EEF208EFF20556E55664042B
:1015C000600302152122E4FBEB25E025E024BDF8B1
:1015D00012025DEF2418FFEE34FCFEED34FFFDEC4B
:1015E00034FFFCEB25E025E0249DF8120276EB2584
:1015F000E02400F87403F20874E8F2EB25E024001C
:10160000F8E2FE08E2FFEB25E02428F8EEF208EF0E
:10161000F2EB25E02400F8E2FE08E2FFE4FCFD78AE
:101620000712024AEB25E025E02430F8120282EB93
:10163000C394045017EB25E02410F8E4F208F2EB11
:1016400025E02408F87403F20874E8F20BEB640454
:1016500060030215B822E4F556E55625E02408F8A3
:10166000E2FE08E2FFE55625E02400F8E2FC08E28D
:10167000FDC39FEC9E5048E55625E02409F8C3E2DF
:101680009DF55818E29CF557FEAF58E4FCFD7B64CD
:10169000FAF9F8120109C006C007E55625E02496BC
:1016A000F582E43400F583E0FEA3E0FFFBAA06E444
:1016B000F9F8D007D0061201948E598F5A8009E4A8
:1016C000F557F558F559F55AD3E55A940AE5599462
:1016D000004002D2080556E556640460030216492C
:1016E00022E4F554F555121D3AE49000BEF0900046
:1016F000C0F0A3F09000C8F0A3F09000CCF0A3F0ED
:101700009000DCF0A3F07894F208F2F521FFEF25C9
:10171000E02496F582E43400F583E0FCA3E0FD903C
:1017200000D4E02DF09000D3E03CF00FBF02DF903A
:1017300000D3E0FEA3E0FF7C007D0A120089900048
:10174000D3EEF0A3EFF0120FD71209D31206B37F36
:101750000A121C0D9000C6EEF0A3EFF0121D8722B6
:10176000E4FA300918EA75F008A4247FFFEA25E0BE
:101770002418F8E2FC08E2FD121D9C8023EA75F0B3
:1017800008A4247FFBEA25E02418F9E3FE09E378A6
:1017900002CEC313CE13D8F9FDAC06AF03121D9CC5
:1017A000EA75F008A42481FFEA25E02410F8E2FCA1
:1017B00008E2FD121D9CEA75F008A42483FFEA25C7
:1017C000E02400F8E2FC08E2FD121D9C0ABA049233
:1017D0007870E6F52022082B009600960096009679
:1017E0000833009600960096009608CD0204010387
:1017F0000605FFFF04D50000000060480096012C9C
:1018000001400064007800460046004600460102A0
:1018100004080506070800000000000000000000A2
:1018200000000000000000000000000000000000B8
:1018300000000000000000000000000000000000A8
:1018400000000000000000E4F554786DF6FF121D62
:10185000B08F54E554BFFF06786E76068004786E2C
:1018600076FF786F7606E408F6787276FF787DF674
:101870000876147885F6087614788DF608766478FC
:1018800095F6087664FFEF75F008A4247FF8E4F677
:1018900008F6EF75F008A42481F8E4F608F6EF7571
:1018A000F008A42483F8E4F608F60FBF04D87546C0
:1018B0006D22C0E0C0F0C083C082C0D075D000C02F
:1018C00000C004C005C006C007C28D758CD8758ADB
:1018D000F0051BE51B7002051AAE1AFF7C007D6443
:1018E000120089ED4C70219000C2E0FEA3E0FFD30E
:1018F000940AEE94004006A3EEF0A3EFF09000C22D
:10190000E4F0A3F0F51AF51BD007D006D005D004FB
:10191000D000D0D0D082D083D0F0D0E032FE000012
:10192000FE0008FE0008FE0010FE0010FE0018FE7B
:101930000018FE0020FE0020FE00280000AD000080
:10194000B50000BD0000C5FE0028FE0030FE0050BE
:10195000FE00400100C20000220100BE0100D701CC
:1019600000C00100D9FE00940100AE0100CA0100D0
:10197000BFFE0058FE0060FE00849000D9E0705564
:1019800004F0E4FEFDFC7401A804088002C333D80F
:10199000FCF9FB9000C0E05BB50313EC2404FA747F
:1019A00001A802088002C333D8FC42068003E94242
:1019B00006EF5BB50305E942058011EC2404FB74D6
:1019C00001A803088002C333D8FC42050CBC02B650
:1019D000EE5D786DF622C0E0C0F0C083C082C0D05A
:1019E00075D01053B9FD75600074CD2560F8E675AB
:1019F000F003A4246FF582E4341DF583E4937401AD
:101A000093FA740293F91202C0E56025E025E02400
:101A1000ADF81202760560E560C3940440CB751DF5
:101A200000D0D0D082D083D0F0D0E032A907E4FD3E
:101A3000FC74017E00A804088005C333CE33CED8E1
:101A4000F9FFE9FB7A00EAEF5B701DEC2402FF74FA
:101A5000017E00A807088005C333CE33CED8F9FF36
:101A6000EE5AFEEF5B4E600D7401A804088002C3BD
:101A700033D8FC42050CBC02B8AF0522E4FFFE746B
:101A8000CD2EF8E6901E729342070EBE04F1EF428F
:101A9000D4EF42F4EF42E4EFF452DC75AA3B75BA9E
:101AA0000C43BA4043B92053B9BF8FB4E4F5B375C2
:101AB000B24E75B12075BBFF75A950F5AB75AC037F
:101AC00075ADC075AEC0227820E2FE08E2FF8E56EA
:101AD000F5577D01ED25E02420F8E2FA08E2FBC38A
:101AE0009557EA955650048A568B57D3EB9FEA9E3A
:101AF0004004AE02AF030DBD02DA786AE556F20883
:101B0000E557F27868EEF208EFF222121C75E4F560
:101B10005C74CD255CF8E675F003A4246FF582E4CF
:101B2000341DF583E493740193FA740293F912025D
:101B3000C0E55C25E025E024ADF8120276055CE501
:101B40005CC3940440CB22E4FFFEEE75F008A424AD
:101B50007EF8E624FBFD18E634FFFCEE25E02419B0
:101B6000F9C3E39D19E39C400D7401A806088002A7
:101B7000C333D8FC42070EBE04D08F2522E4FE7C7E
:101B80000474CD2CF8E6901E729342060CBC06F14C
:101B9000EF6005EE42D48004EEF452D4EEF4FF522E
:101BA000F4EE42E4ED6005EE42EC8003EF52ECEF20
:101BB00052DC22120B23120875121481120EB81275
:101BC0001B379000BEE0700D852256E5235256E586
:101BD0002452568003852556E5566004D2098002BA
:101BE000C209AF56121A1C227E007FAEE4FDED251D
:101BF000E024C1F582E4341CF583E493F4601DED28
:101C000025E024C2F582E4341CF583E493FCEF2D37
:101C1000F582E43EF583ECF00DBD10D222755E0036
:101C2000755FAE7B017A00BFFF057F017E0022E574
:101C30005F2FF582E4355EF583E07A00FB9000C407
:101C4000E0FCA3E0FDAF037E00120077AA06AB071D
:101C50002243F80875CD4053CC7F43CC4043CC2081
:101C600043CC1043CC0453CCFD43CB0243CB0153B4
:101C7000CBBF43E80853E5FC43E30243F50343903D
:101C80000343ED032275BF0F0000000000000000B9
:101C900000000000000000000000D2D853B9FD434E
:101CA000B901E5B930E1FBE4F5BF22438901C28DFA
:101CB000D2A953B8FDE4F51AF51B9000C2F0A3F0C9
:101CC000A3F0A37464F0758CD8758AF0D28CD2AF6F
:101CD00022000201010201030104050506060607B0
:101CE00002080A09020A020B280C010D030E01FF6B
:101CF00001E4FE7D0474CD2DF8E6901E7293420639
:101D00000DBD06F1EF6004EE428022EEF452802217
:101D1000EF600543D504800353D5FB53F5FB53E532
:101D2000FB43E30443ED04E49000D9F022E4F5E33F
:101D3000439F10439F02FF0FBFFFFC539FEF75BEF1
:101D40000EE4F5BFF5B97592762253BAFEE5B920D7
:101D5000E004E51D6005E5B930E1FBE4F5BF53B9EA
:101D6000FE53B9FD22AB07AA06D3EB9DEA9C4007C0
:101D7000EB9DFFEA9CFE22C3ED9BFFEC9AFE22FF47
:101D80001DC4FF1DD7FF1DEAFF1DFDFF1E10FF1E16
:101D900023FF1E36FF1E4975BF0F43B92053B9FDFF
:101DA00043BA01751D0143B901D2D822AB07AF0474
:101DB000AE05C2AFA803A607E804F8A606D2AF2274
:101DC000E4FFF582F5837420FEE493F42FFFA3EE85
:101DD000B583F62253B9EF78D6A6B708A6B608A6FB
:101DE000B578D512025D2253B9EF78D6A6EB08A6D6
:101DF000EA08A6E978D512025D2253B9EF78D6A693
:101E0000F308A6F208A6F178D512025D2253B9EFC5
:101E100078D6A6FB08A6FA08A6F978D512025D22A4
:101E200043B91078D6A6B708A6B608A6B578D512D5
:101E3000025D2243B91078D6A6EB08A6EA08A6E907
:101E400078D512025D2243B91078D6A6F308A6F21F
:101E500008A6F178D512025D2243B91078D6A6FB08
:101E600008A6FA08A6F978D512025D22C2DA53D87C
:101E70000F43D8D0D2D8D2D922EF6003D29222C257
:101E800092220102040810204080A8FFFFFFFFFFFC
:00000001FF
