:100000000110020000000000201D0000FF000000A1
:10001000020C94FFFFFFFFFFFFFFFF02164275BFB8
:100020000F000000000000000000000000000000C1
:10003000000000D2D853B9FD43B901E5B930E1FB66
:10004000E4F5BF22FFFFFFFFFFFFFF02182BE4FBD9
:10005000EB25E025E024A9F812025DEB25E025E080
:1000600024BDF81202760BBB05E622020FE6BB01A7
:100070000689828A83E0225002E722BBFE02E32245
:1000800089828A83E49322EF8DF0A4A8F0CF8CF0CC
:10009000A428CE8DF0A42EFE22BC000BBE0029EFBA
:1000A0008DF084FFADF022E4CCF875F008EF2FFF5F
:1000B000EE33FEEC33FCEE9DEC984005FCEE9DFE2D
:1000C0000FD5F0E9E4CEFD22EDF8F5F0EE8420D274
:1000D0001CFEADF075F008EF2FFFED33FD400798E3
:1000E0005006D5F0F222C398FD0FD5F0EA22BB01ED
:1000F0000A89828A83E0F5F0A3E022500687F0099E
:10010000E71922BBFE07E3F5F009E3192289828A89
:1001100083E493F5F074019322E88FF0A4CC8BF084
:10012000A42CFCE98EF0A42CFC8AF0EDA42CFCEAB3
:100130008EF0A4CDA8F08BF0A42DCC3825F0FDE9ED
:100140008FF0A42CCD35F0FCEB8EF0A4FEA9F0EBE3
:100150008FF0A4CFC5F02ECD39FEE43CFCEAA42DEF
:10016000CE35F0FDE43CFC2275F008758200EF2FDF
:10017000FFEE33FECD33CDCC33CCC58233C5829B6D
:10018000ED9AEC99E58298400CF582EE9BFEED9A93
:10019000FDEC99FC0FD5F0D6E4CEFBE4CDFAE4CC2F
:1001A000F9A88222B800C1B90059BA002DEC8BF031
:1001B00084CFCECDFCE5F0CBF97818EF2FFFEE33EE
:1001C000FEED33FDEC33FCEB33FB10D70399400419
:1001D000EB99FB0FD8E5E4F9FA227818EF2FFFEE40
:1001E00033FEED33FDEC33FCC933C910D7059BE971
:1001F0009A4007EC9BFCE99AF90FD8E0E4C9FAE4CD
:10020000CCFB2275F010EF2FFFEE33FEED33FDCC6B
:1002100033CCC833C810D7079BEC9AE899400AED55
:100220009BFDEC9AFCE899F80FD5F0DAE4CDFBE4FD
:10023000CCFAE4C8F922EB9FF5F0EA9E42F0E99D82
:1002400042F0E89C45F022E8600FECC313FCED138C
:10025000FDEE13FEEF13FFD8F122E8600FEFC3337A
:10026000FFEE33FEED33FDEC33FCD8F122E6FC0863
:10027000E6FD08E6FE08E6FF22E6FB08E6F908E6EA
:10028000FA08E6CBF822ECF608EDF608EEF608EFF1
:10029000F622ECF208EDF208EEF208EFF222D0833B
:1002A000D082E493F608740193F608740293F6087A
:1002B000740393F6740473D083D082E493F20874C9
:1002C0000193F208740293F208740393F2740473B6
:1002D0008A838982E473E4F54CE54C25E025E0242B
:1002E000BDF8C00012025DC007746B254CF8E6FF34
:1002F000FBE4FAF9F8D007120109D000120276E502
:100300004C25E025E024BDF8C00012025D780712FC
:100310000237D000120276E54C25E025E024BDF836
:1003200012025DEC4D4E4F6076E54C25E025E02451
:1003300095F812025DE54C25E025E024BDF8120297
:1003400069C312022650037F0322E54C25E025E015
:100350002495F8120269C000E54C25E025E024BD93
:10036000F812025DD000C3EF9BF550EE9AF54FED09
:1003700099F54EEC98F54DE47FFF7EFFFDFCAB5008
:10038000AA4FA94EA84DC312022640037F0322E5BF
:100390004C25E02462F8E54FF208E550F28015E5BF
:1003A0004CC39404500BE54C25E02412F8E4F20809
:1003B000F27F0322054CE54C640560030202C9E4A8
:1003C000F555F556E4F54CE54C25E02463F8E225B7
:1003D00056FF18E23555F8E54C25E02400C8F20830
:1003E000EFF2E54C25E0240AF8E2FE08E2FFE54CD6
:1003F00025E02400F8E2FC08E2FDD39FEC9E401EBD
:10040000E54C25E0240AF8E2FE08E2FFC3ED9FFF79
:10041000EC9EFEE48F548E53F552F5518009E4F5BD
:1004200054F553F552F551E54CC3940440030204CE
:10043000E5AF54AE53AD52AC51780712024A8F5417
:100440008E538D528C519000D2E0F46040E54C25E3
:10045000E025E02442F8E2FC08E2FD08E2FE08E2C2
:10046000FFE47B03FAF9F8120109EF2554FFEE359A
:1004700053FEED3552FDEC3551FC7802120237E5A2
:100480004C25E025E02442F81202828043E47F03F9
:10049000FEFDFCAB54AA53A952A851120109E54C28
:1004A00025E025E02442F8E2FB08E2F908E2FA0838
:1004B000E2CBF8EB2FFFEA3EFEE93DFDE83CFC789D
:1004C00002120237E54C25E025E02442F8120282B0
:1004D000E54C25E025E02442F8E2FC08E2FD08E2D4
:1004E000FE08E2FF7807120237E54C25E02412F8F7
:1004F000EEF208EFF2054CE54C640460030203B72A
:100500007F07228E4E8F4FE4F551F552F553900040
:10051000E4E0F552A3E0F553E4F5509000D2E0B4E6
:10052000FF139000D4E0B4030CD378A7E294001832
:10053000E29400401EE55025E02494F8E4F208F22D
:10054000E55025E025E02478F81202A7000000001D
:1005500002060AE55025E02495F9E3700219E370DC
:100560001AE55025E02400F8E2FE08E2FFE55025F8
:10057000E0248CF8EEF208EFF28057E55025E024F5
:100580008CF8E2FE08E2FFE55025E02400F8E2FCEA
:1005900008E2FD121BEAD3EF9553EE95524033E586
:1005A0005025E02400F8E2FE08E2FFE55025E024B3
:1005B0008CF8EEF208EFF2E55025E02494F8E4F22E
:1005C00008F2E55025E025E02478F81202A70000A3
:1005D0000000E55025E02400F8E2FE08E2FFE550C7
:1005E00025E025E02478F8C000E2FB08E2F908E203
:1005F000FA08E2CBF8E4FCFDEB2FFFEA3EFEED3912
:10060000FDEC38FCD000120282E55025E02494F87D
:1006100008E22401F218E23400F20550E550C394D8
:1006200004500302050BE4F550E55025E02495F94C
:10063000C3E3954F19E3954E400205510550E5502F
:10064000B404E6E5516404600302070474FF9000FB
:10065000E6F0A3F0E4A3F0A3F0F550E55025E02484
:1006600094F8E2FE08E2FF4E70030206E7E4FCFDA8
:10067000C004A905AA06AB07E55025E025E02478CB
:10068000F8E2FC08E2FD08E2FE08E2FFD0001201F9
:10069000948E548F55D39000E7E095559000E6E096
:1006A00095544007E554F0A3E555F0C39000E9E008
:1006B00095559000E8E095545007E554F0A3E555B2
:1006C000F0E55025E0240AF8E554F208E555F2E596
:1006D0005025E02494F8E4F208F2E55025E025E006
:1006E0002478F81202A700000000C2080550E55067
:1006F0006404600302064B9000E6E0FEA3E0FFA363
:10070000E0FCA3E0FD121BEAD3EF9464EE940040FA
:100710000312171322E4F54FF54EE54E25E025E0D0
:100720002478F81202A700000000054EE54EB4053B
:10073000E91219A2E4F54EE54E25E025E02478F80B
:10074000C000E2FC08E2FD08E2FE08E2FFE54E25FB
:10075000E025E024A9F8120269EF2BFFEE3AFEED46
:1007600039FDEC38FCD000120282054EE54EB4058E
:10077000C6054FE54FC3940540B7E4F54EAF4FE4CF
:10078000FCFDFEC004A905AA06AB07E54E25E02541
:10079000E02478F8E2FC08E2FD08E2FE08E2FFD07F
:1007A000001201948F538E528D518C50AB53AA522C
:1007B000A951A850C000746B254EF8E6FFE4FCFD7B
:1007C000FED0001201098F538E528D518C50780744
:1007D0001202378F538E528D518C50E47FE87E0386
:1007E000FDFCAB53AA52A951A850D31202264030A7
:1007F000E5532418FFE55234FCFEE55134FFFDE5D6
:100800005034FFFCE54E25E025E02495F8120276F1
:10081000E54E25E02400F87403F20874E8F2802C19
:10082000E54E25E025E02495F812028E0000000038
:10083000AE52AF53E54E25E02462F8EEF208EFF237
:10084000E54E25E02400F8EEF208EFF2E54E25E053
:1008500025E02478F81202A700000000E54E25E00C
:100860002494F8E4F208F2E54EC394045033E54EC4
:1008700025E02400F8E2FE08E2FFE54E25E0240A28
:10088000F8EEF208EFF2E54E25E02412F8E4F20863
:10089000F2E54E25E025E02442F81202A700000010
:1008A00000054EE54E6405600302076D2220CA0371
:1008B0000209F9785AE670030209F9E47864F6F55A
:1008C0004C745A254CF8E6FF7442254CF8A6077480
:1008D0005A254CF8E4F6054CE54CB40AE47864E695
:1008E000700320CA12E4F54C7442254CF8E4F60576
:1008F0004CE54CB40AF222E54224E0602C24F0607E
:100900003024F0606324F0700302098F24F0700338
:1009100002099724F0700302099F24606003020912
:10092000A8E4FF121B580209A87F01121B580209F4
:10093000A8E4F54CE54CC394025010E54C75F00862
:10094000A42475F8760008761E800EE54C75F00834
:10095000A42475F87600087664054CE54CB404D4FC
:100960007868E64410F68050E4F54CE54CC39402F8
:100970005010E54C75F008A42475F8760008761E32
:10098000800EE54C75F008A42475F876000876967C
:10099000054CE54CB404D47868E654EFF680197839
:1009A00068E64401F680117868E654FEF68009E4B2
:1009B000FF121C45786AA607E54254F0648070492E
:1009C000E54345446043E543FE7C00E42544FFECF9
:1009D0003EFEC3EF940AEE9400402EE542540FFD14
:1009E000BD0F19E4F54CE54C75F008A42475F8A684
:1009F0000608A607054CE54CB404EB22ED75F0089B
:100A0000A42475F8A60608A6072285BA5453BA0F7F
:100A100043BA10E4F54EE54E25E025E024A9F8128E
:100A2000028E00000000054EE54EB405E9754E0546
:100A300075ABFF12000EE4F54FE54F25E025E024ED
:100A4000A9F8C00012025DC004C005C006C007744A
:100A5000D1254FF8E675F003A42404F582E4341C94
:100A6000F583E493FB740193FA740293F91202C0C4
:100A7000A804A905AA06AB07D007D006D005D00464
:100A8000EF2BFFEE3AFEED39FDEC38FCD000120200
:100A900076054FE54FC39405409FE4F5AB12000E79
:100AA000E4F54FE54F25E025E024A9F8C000120247
:100AB0005DC004C005C006C00774D1254FF8E675B7
:100AC000F003A42404F582E4341CF583E493FB745E
:100AD0000193FA740293F91202C0A804A905AA06A8
:100AE000AB07D007D006D005D004C3EF9BFFEE9A2A
:100AF000FEED99FDEC98FCD000120276054FE54F13
:100B0000C39405409E154EE54E6003020A20E4F5AD
:100B10004FE4755310755227F551F550AF53AE524F
:100B2000AD51AC50780712024A8F538E528D518CC2
:100B300050E54F25E025E024A9F81202691201943E
:100B40008F538E528D518C50746B254FF8A607052C
:100B50004FE54FB405BB8554BA2230040E754F00E3
:100B600075501E755100755264800C754F0075509C
:100B70001E755100755296E4FDED25E0245AF8E209
:100B8000FE08E2FFED25E0241BF9D3E39F19E39E65
:100B90004016ED25E0241AF8E2FE08E2FFED25E01C
:100BA000245AF8EEF208EFF2EDC39402506AE54FD2
:100BB000C313FEE55013FFED25E0241BF9D3E39F9B
:100BC00019E39E5023ED75F008A42475F8A64F088C
:100BD000A650E55025E0FFE54F33F8ED25E0245A17
:100BE000C8F208EFF2020C6CED25E0241BF9D3E308
:100BF000946419E394005003020C6CED25E0245A30
:100C0000F9E3C313FE09E313FFED75F008A424759F
:100C1000F8A60608A6078064E551C313FEE5521343
:100C2000FFED25E0241BF9D3E39F19E39E5022ED4D
:100C300075F008A42475F8A65108A652E55225E0DF
:100C4000FFE55133F8ED25E0245AC8F208EFF280B1
:100C50002BED25E0241BF9D3E3949019E394014094
:100C60001BED25E0245AF9E3C313FE09E313FFED5E
:100C700075F008A42475F8A60608A6070DED64040F
:100C80006003020B69E4FDED75F008A42475F8E635
:100C9000FE08E6FFED25E0246CF8EEF208EFF20D19
:100CA000BD04E422439F04E453C6DFE5C600B5C695
:100CB000F375830075820775FD0DE4E5FEF4FF759D
:100CC000830075820675FD0DE4E5FEB50704F59E0B
:100CD0008003759E0078100000D8FC53C6E043C620
:100CE0000843C68075960575970375830075820461
:100CF00075FD0D85FE8F75830075820375FD0DE40E
:100D0000E5FEF4FF75830075820275FD0DE4E5FED6
:100D1000B50704F595800375958375BE0E5392FE55
:100D20009001007F007E02E4F0A3DFFCDEFA780091
:100D30007F00E4F208DFFC78FFE4F6D8FD7581DC83
:100D4000020D710200000210CAE493A3F8E493A319
:100D50004003F68001F208DFF48029E493A3F854FD
:100D600007240CC8C333C4540F4420C8834004F480
:100D700056800146F6DFE4800B0102040810204093
:100D8000809016ADE47E019360BCA3FF543F30E534
:100D900009541FFEE493A360010ECF54C025E06008
:100DA000A840B8E493A3FAE493A3F8E493A3C8C5D6
:100DB00082C8CAC583CAF0A3C8C582C8CAC583CAC7
:100DC000DFE9DEE780BE754FFF300404854F242243
:100DD00075330075340075352BE4F554AB33E535C8
:100DE000F92402F535E534FA3400F5341200DEFF5B
:100DF000E55425E02436F8A6F008A6070554E55486
:100E0000B404D9E4F554E55425E02436F8E6FE08A8
:100E1000E6FFE55425E02413F9C3E39F19E39E4060
:100E200003020EBFE55425E0243AF8E6FE08E6FF8B
:100E3000E55425E02416F8E2FC08E2FDC39FEC9E91
:100E40004003020EBFE5547020E55425E02412F85B
:100E5000E2FE08E2FF2428F553E43EF552EF24B009
:100E6000F551EE34FFF5508021E554B4011C25E026
:100E70002412F8E2FE08E2FF2432F553E43EF55274
:100E8000EF24CEF551EE34FFF550C3ED9553EC95BC
:100E9000525008ED9551EC95505011E55425E02441
:100EA00013F9C3E3940A19E394005023AF54740177
:100EB000A807088002C333D8FCF4524FE55424023B
:100EC000FF7401A807088002C333D8FCF4524F0511
:100ED00054E55464026003020DF6854F2422754EDA
:100EE000077D0774017E00A84E088005C333CE330A
:100EF000CED8F9FFACACECFBE4EF5B7003D54EE36E
:100F0000ED601D74017E00A805088005C333CE3353
:100F1000CED8F9FFACAEECFBE4EF5B70031D80E0D4
:100F2000AF4E7401A807088002C333D8FCF5AC7437
:100F300001A805088002C333D8FCFFF5AD8FAE537E
:100F4000AACF85BA5753BA0F43BA10E4F552F551F8
:100F5000F550F54F12000EE4F54E74D1254EF8E62B
:100F600075F003A42404F582E4341CF583E493743F
:100F70000193FA740293F91202C08F568E558D5464
:100F80008C53AB52AA51A950A84FC3120226500C41
:100F900085565285555185545085534F054EE54E23
:100FA000C3940540B5AF52AE51AD50AC4F7802126C
:100FB0000237E5522FF552E5513EF551E5503DF52A
:100FC00050E54F3CF54FAF52AE51AD50FC7810128A
:100FD00002378FB3AF52AE51AD50AC4F780812020A
:100FE000378FB28552B143AA308557BA75AC0375B5
:100FF000ADC075AEC022C0E0C0F0C083C082C0D01A
:1010000075D008C2CF30CD030210BF30CB4720CC03
:10101000447859A6CEE6FFC39480403075F003EFC4
:10102000A424F7F582E5F03415F583E493FB74010D
:1010300093FA7402938B3F8A40F5410541E5417074
:1010400002054014F912005EF5CE80097859E625B4
:101050003EF8E6F5CE30CC297859E6C394804015A9
:10106000AB3F0541E541AA407002054014F912006A
:101070005EF5CE8056785906E6253EF8E6F5CE8038
:101080004A20CB47AFCE7859E6FE702EBF100553ED
:10109000809F8037BF2005438060802FBF50087835
:1010A00068E64401F68024BF60087868E654FEF6DE
:1010B0008019785AA60F18068011EEC3940A5008BA
:1010C0007859E6245AF8A60F78590678647601D044
:1010D000D0D082D083D0F0D0E032121BB27D01E4B8
:1010E000FF1219DE7F01121B587F01121B95121C83
:1010F000FE121CF1121B12121560121A14121A7D24
:10110000D2AF751E01E51E24FD601114601924FE86
:10111000602614602A1460702407706F1218D612AB
:1011200014DF751E048064D2D8E51F70FC12003EE7
:10113000121C1C751E0680531202C68F1E804CD3D3
:101140009000DAE094009000D9E09400400CA3E015
:1011500024FFF09000D9E034FFF0D378A7E29400A8
:1011600018E29400400A08E224FFF218E234FFF289
:101170009000D6E004F070069000D5E004F0121460
:101180005D1211AD8F1E8003751E049000EAE0B45D
:101190000124E47864F6FF121CFEE4F0F51AF51B56
:1011A00000051BE51B7002051AB42CF4E51AB40106
:1011B000EF7F01121CFE12089D0210F522754CFFF4
:1011C000754D0812133A1219211213D2121B77907F
:1011D00000D1EFF0121AE3EF60577F01121A49AD08
:1011E00007AC06D39000DAE094009000D9E09400B8
:1011F000400FED7802CEC313CE13D8F9FDAC0680B4
:1012000027300811EDAE047803CEC313CE13D8F9FE
:10121000FDAC068013C37875E2940A18E29400507E
:1012200007ECC313FCED13FDAF05AE041204F3800D
:1012300003AF4D229000D0E0F54CE522602DE49004
:1012400000DDF0A3F09000DCE004F070069000DB1D
:10125000E004F07F05121A49D39000DCE09F900073
:10126000DBE09E400D1215D57F0322E49000DBF0F9
:10127000A3F0E54C0470051215D58005AF4C121291
:1012800074AF4D22EFC3940450139000D2E06F600E
:101290000CE49000DBF0A3F09000D2EFF09000D2CD
:1012A000E0FFA3E06F7003021339EFC39403400320
:1012B0000213339000EAE0600302133304F090005D
:1012C000D3E0FFB4021F9000D2E0FE6306FF530696
:1012D0000174B82EF582E43400F583E0FDC454F0C7
:1012E0007865F6805EEFC3940250479000D2E0FF2D
:1012F000B40219A3E0FE6306FF53060174B82EF58D
:1013000082E43400F583E07865F680379000D3E01E
:1013100024B8F582E43400F583E0FDC454F0FE7493
:10132000B82FF582E43400F583E042067865A6061E
:1013300080119000D2E024B8F582E43400F583E017
:101340007865F69000D2E0A3F022E4F54EE54E2554
:10135000E02412F8E2F54F08E2F550AE4FFFE4FC4E
:10136000FD7B64FAF9F8120109C006C007E54E25B5
:10137000E024A8F582E43400F583E0FEA3E0FFFB5F
:10138000AA06E4F9F8D007D006120194E54E25E04C
:101390002422F8EEF208EFF2AE4FAF50E4FCFD7BF2
:1013A00064FAF9F8120109C006C007E54E25E024E9
:1013B000A8F582E43400F583E0FEA3E0FFFBAA0673
:1013C000E4F9F8D007D006120194E54E25E0241A7E
:1013D000F8EEF208EFF2054EE54E640460030213E6
:1013E0003D22E4F54EE54E25E0240AF8E2FE08E24F
:1013F000FFE54E25E02400F8E2FC08E2FDC39FEC87
:101400009E5048E54E25E0240BF8C3E29DF55018A8
:10141000E29CF54FFEAF50E4FCFD7B64FAF9F81254
:101420000109C006C007E54E25E024A8F582E43492
:1014300000F583E0FEA3E0FFFBAA06E4F9F8D0077D
:10144000D0061201948E518F528009E4F54FF55069
:10145000F551F552D3E552940AE55194004002D279
:1014600008054EE54E640460030213D522E4F54CF2
:10147000E54C75F008A42477FFE54C25E0241AF824
:10148000E2FC08E2FD121C31E54C75F008A4247959
:10149000FFE54C25E02412F8E2FC08E2FD121C31C5
:1014A000E54C75F008A4247BFBC003E54C25E02443
:1014B00062F8E2FE08E2FFE4FCFDE54C25E025E0F1
:1014C0002495F8120269EF2BFFEE3AFEED39FDECA0
:1014D00038FC7804120237AD07AC06D007121C3175
:1014E000054CE54CC3940440877868E6F52022E477
:1014F000F54CF54D121BCF9000D074FFF09000D248
:10150000F0A3F0E4A3F09000DBF0A3F0A3F0A3F0CD
:101510009000EDF0A3F078A6F208F2F521FFEF2598
:10152000E024A8F582E43400F583E0FCA3E0FD901C
:1015300000E5E02DF09000E4E03CF00FBF02DF900A
:1015400000E4E0FEA3E0FF7C007D0A120089900029
:10155000E4EEF0A3EFF0120ECE1209FA1207057FA7
:101560000A121A499000D9EEF0A3EFF0121C1C22C7
:10157000E4F54C7865F6FF121C458F4CE54CBFFF37
:1015800006786676028004786676FF78677602E4ED
:1015900008F6786A76FFFFEFC39402500FEF75F0FC
:1015A00008A42475F8760008761E800DEF75F00803
:1015B000A42475F87600087696EF75F008A42477D1
:1015C000F8E4F608F6EF75F008A42479F8E4F608D4
:1015D000F6EF75F008A4247BF8E4F608F60FBF04D4
:1015E000B6753E6522E49000DBF0A3F09000D27463
:1015F000FFF0A3E0FFF46053EFC394035035900075
:10160000EAE0702F04F09000D3E024B8F582E434CF
:1016100000F583E0FFC454F07865F67F0C121A4998
:1016200078A6EEF208EFF218E2C31379A6F308E207
:101630001309F37F0C121A4978A6EEF208EFF2189C
:10164000E2C31379A6F308E21309F39000D374FF01
:10165000F022C0E0C0F0C083C082C0D075D000C00E
:1016600000C004C005C006C007C28D758CD8758A3D
:10167000F0051DE51D7002051CAE1CFF7C007D649D
:10168000120089ED4C70219000D5E0FEA3E0FFD35D
:10169000940AEE94004006A3EEF0A3EFF09000D57C
:1016A000E4F0A3F0F51CF51DD007D006D005D0045A
:1016B000D000D0D0D082D083D0F0D0E032082B0040
:1016C000C800C800C800C808D1040203010005060C
:1016D000FF04D900000000604700A8015E01FE0081
:1016E0005A00640046004600460046010203040515
:1016F00006070800000000000000000000000000D5
:10170000000000FF00FFFF000000000000000000DC
:1017100000000000000000000000000000000000C9
:10172000000000E4FBEB25E025E024BDF812025D9B
:10173000EF2418FFEE34FCFEED34FFFDEC34FFFC2B
:10174000EB25E025E02495F8120276EB25E02462F3
:10175000F87403F20874E8F2EB25E02400F874034F
:10176000F20874E8F2EBC394045017EB25E024125E
:10177000F8E4F208F2EB25E0240AF87403F20874A6
:10178000E8F20BBB059F22FE0000FE0008FE000AE7
:10179000FE0012FE0012FE001AFE001AFE0022FEDB
:1017A0000022FE002A0000A90000B10000B90000DC
:1017B000C1FE0062FE006AFE0052FE00420100D53A
:1017C0000000220100D00100D20100D30100EAFE96
:1017D00000A60100C00100C80100D1FE005AFE00B1
:1017E0006CFE00947DFFE522604B7816E2FE08E275
:1017F000FF7813E22FF51918E23EF5187818E2FE8B
:1018000008E2FF7815E22FFF18E23EAB07FAEB255E
:10181000E0FFEA33FEC3E5199FE5189E50027DFA0A
:10182000E51925E0FFE51833FEC3EB9FEA9E50085B
:101830005305F580035305F08D2322C0E0C0F0C0AE
:1018400083C082C0D075D01053B9FD75580074D1D3
:101850002558F8E675F003A42404F582E4341CF559
:1018600083E493740193FA740293F91202C0E55869
:1018700025E025E024A9F81202760558E558C3941E
:101880000540CB751F00D0D0D082D083D0F0D0E0FF
:1018900032AD07E4F9ED604BE4FC74017E00A8046E
:1018A000088005C333CE33CED8F9FFEDFB7A00EACA
:1018B000EF5B701DEC2402FF74017E00A807088016
:1018C00005C333CE33CED8F9FFEE5AFEEF5B4E6040
:1018D000038C4F090CBC02C2E9D394014002894F2A
:1018E000AF4F227FFF22E4FFFE74D12EF8E6901D59
:1018F000079342070EBE05F1EF42D4EF42F4EF42E8
:10190000E4EFF452DC75AA3B75BA0C43BA4043B914
:101910002053B9BF8FB4E4F5B375B24E75B12075DD
:10192000BBFF75A950F5AB75AC0375ADC075AEC006
:10193000227822E2FE08E2FF8E4EF54F7D01ED2572
:10194000E02422F8E2FA08E2FBC3954FEA954E50F4
:10195000048A4E8B4FD3EB9FEA9E4004AE02AF0346
:101960000DBD04DA7876E54EF208E54FF27874EEB4
:10197000F208EFF222E4FFFEEE75F008A42476F8F8
:10198000E624FBFD18E634FFFCEE25E0241BF9C33A
:10199000E39D19E39C40149000D2E0FD7401A8057A
:1019A000088002C333D8FC420780040EBE04C98FEE
:1019B000252212000EE4F55474D12554F8E675F092
:1019C00003A42404F582E4341CF583E493740193A6
:1019D000FA740293F91202C0E55425E025E024A927
:1019E000F81202760554E554C3940540CB22E4FE78
:1019F0007C0574D12CF8E6901D079342060CBC07B9
:101A0000F1EF6005EE42D48004EEF452D4EEF4FF20
:101A100052F4EE42E4ED6005EE42EC8003EF52EC4E
:101A2000EF52DC227E007FC0E4FDED25E02438F596
:101A300082E4341BF583E493F4601DED25E0243942
:101A4000F582E4341BF583E493FCEF2DF582E43E4C
:101A5000F583ECF00DBD10D222754E00754FC07BA2
:101A6000017A00BFFF057F017E0022E54F2FF5823E
:101A7000E4354EF583E07A00FB9000D7E0FCA3E06C
:101A8000FDAF037E00120077AA06AB072243F808D9
:101A900075CD4053CC7F43CC4043CC2043CC104346
:101AA000CC0453CCFD43CB0243CB0153CBBF43E823
:101AB0000853E5FC43E30243F50343900343ED037E
:101AC00022E4FFFEEE75F008A42475F8E6FC08E6B3
:101AD000FDEE25E02423F9C3E39D19E39C400D743A
:101AE00001A806088002C333D8FC42070EBE04D406
:101AF0008F22227E039000D0E06F6007EFF0E49029
:101B000000D4F09000D0E0B4FF02E4FE9000D4E0F6
:101B100004F0C39E50037F00229000D47403F07F32
:101B20000122438901C28DD2A953B8FDE4F51CF509
:101B30001D9000D5F0A3F0A3F0A37464F0758CD8C9
:101B4000758AF0D28CD2AF2200020101020103019A
:101B50000405050606060702080A09020A020B2800
:101B60000C010D030E01FF01E4FE7D0574D12DF87B
:101B7000E6901D079342060DBD07F1EF6004EE42AB
:101B80008022EEF4528022120B4A121AB1120DB6C4
:101B9000E5226008F54EE524524E8003E4F54EAF91
:101BA0004E12188122EF600543D504800353D5FB04
:101BB00053F5FB53E5FB43E30443ED04E49000EAF3
:101BC000F022E4F5E3439F10439F02FF0FBFFFFCA9
:101BD000539FEF75BE0EE4F5BFF5B97592762253AB
:101BE000BAFEE5B920E004E51F6005E5B930E1FB88
:101BF000E4F5BF53B9FE53B9FD22AB07AA06D3EBF8
:101C00009DEA9C4007EB9DFFEA9CFE22C3ED9BFFF3
:101C1000EC9AFE22FF1C59FF1C6CFF1C7FFF1C92DC
:101C2000FF1CA5FF1CB8FF1CCBFF1CDE75BF0F43BC
:101C3000B92053B9FD43BA01751F0143B901D2D888
:101C400022AB07AF04AE05C2AFA803A607E804F8AD
:101C5000A606D2AF22E4FFF582F5837420FEE4935A
:101C6000F42FFFA3EEB583F62253B9EF78DAA6B7C7
:101C700008A6B608A6B578D912025D2253B9EF7846
:101C8000DAA6EB08A6EA08A6E978D912025D225383
:101C9000B9EF78DAA6F308A6F208A6F178D912020D
:101CA0005D2253B9EF78DAA6FB08A6FA08A6F97800
:101CB000D912025D2243B91078DAA6B708A6B60891
:101CC000A6B578D912025D2243B91078DAA6EB08DE
:101CD000A6EA08A6E978D912025D2243B91078DA9B
:101CE000A6F308A6F208A6F178D912025D2243B93C
:101CF0001078DAA6FB08A6FA08A6F978D912025DD0
:101D000022C2DA53D80F43D8D0D2D8D2D922EF602A
:101D100003D29222C292220102040810204080E6DF
:101D2000FFFFFFFFFFFFFFFFFFFFFFFFFFFFFFFFC3
:00000001FF
