:100000005555AAAA311700000000000000000000AA
:100010006B8900000000000000000000FFA1D2A9D1
:100020000002100005080000890200009F02000085
:10003000B5020000CB020000E10200000000000059
:10004000000000000000000000000000F52C00008F
:10005000F92C000000000000F7020000FB2C00005B
:10006000FD2C0000A32A0000A92D0000DB2A0000BF
:10007000172D00004B2D00004F2D00005D2D0000BE
:100080006F2D0000712D0000732D0000912D0000D8
:10009000932D0000AB2D00000000000000000000C8
:1000A000AD2D0000AF2D000000000000000000009A
:1000B00000000000B12D0000B32D0000EF2A000069
:1000C000B52D0000C32D000009030000DB2D00004A
:1000D000DD2D000000000000000000000000000016
:1000E0003117000000F002F800F05AF80AA090E87A
:1000F000000C82448344AAF10107DA4501D100F0E3
:100100004FF8AFF2090EBAE80F0013F0010F18BF55
:10011000FB1A43F00103184798730100B8730100FC
:100120000A444FF0000C10F8013B13F0070408BF1D
:1001300010F8014B1D1108BF10F8015B641E05D0BB
:1001400010F8016B641E01F8016BF9D113F0080F70
:100150001EBF10F8014BAD1C0C1B09D16D1E58BF02
:1001600001F801CBFAD505E014F8016B01F8016B39
:100170006D1EF9D59142D6D37047000000230024AC
:1001800000250026103A28BF78C1FBD8520728BFA7
:1001900030C148BF0B6070471FB51FBD10B510BD03
:1001A000DFF80CD0FFF7F8FF02F06DFF16F0C6FE87
:1001B0000002100003B4FFF7F1FF03BC16F0C6FE07
:1001C0000A484FF0FF0101704FF0000080F31188E2
:1001D0004FF0000080F3098805484FF002010170DC
:1001E00062B604484FF080510160704722ED00E094
:1001F0000002100004ED00E002484FF08051016061
:100200007047000004ED00E04FF0200080F31188FB
:10021000EFF3098098B112480068124909688842D2
:1002200017D0EFF309800E49096820E9F00F8860C4
:1002300000B50B48006800F0F2F85DF804EB0848E0
:1002400008490A68026000688168B1E8F00F81F32C
:1002500009884EF0040E4FF0000080F311887047BB
:100260000402100008021000EFF311804FF020018B
:1002700081F31188704700004FF0000080F311886F
:100280007047000062B6704772B6704740BA704758
:10029000C0BA7047401E0028FCDC704700BE7047A3
:1002A00040BA7047C0BA70471EF0040F0CBFEFF39E
:1002B0000880EFF309804FF0010102F082BC1EF0CC
:1002C000040F0CBFEFF30880EFF309804FF0020139
:1002D00002F077BC1EF0040F0CBFEFF30880EFF3C1
:1002E00009804FF0030102F06CBC1EF0040F0CBF3C
:1002F000EFF30880EFF309804FF0040102F061BCD6
:100300001EF0040F0CBFEFF30880EFF309804FF0ED
:10031000050102F056BC4FF0000000B504F04DF8A6
:100320005DF804EBFFF770BF1EF0040F0CBFEFF396
:100330000880EFF309804FF0000102F042BC00009A
:10034000194910B5012008701849002008601849A3
:100350000860184908601849086000F0B9F900F011
:100360004BF900F063F8002010BD10B5114800F003
:100370002AF90F4908600D490968884207D00A48E0
:100380000078022803D1BDE81040FFF735BF10BD4B
:1003900010B5FFF7EAFF044902200870FFF710FFCD
:1003A0004FF0FF3010BD00000002100004021000EA
:1003B000080210000C0210001002100070B50D466B
:1003C0000446C1698068CC2216F0BBFCE169A068D4
:1003D000084440384FF08071C163216A8163002175
:1003E00041630163C1628162C0E908514FF00B3182
:1003F000C1614FF00A3181614FF0093141614FF025
:10040000083101614FF00731C1604FF00631816062
:100410004FF0053141604FF00431016070BD8269D9
:100420008168914201D802F0E0BE704710B54FF4E8
:10043000B4714F4816F0AFFC002010BD70B50546F2
:1004400000EBC5014A4800EB8104FFF70DFF0646AB
:10045000207828B13046FFF70FFF6FF0010070BD24
:100460000320207000206560206204F11C0000F071
:1004700083F83046FFF700FF002070BD2DE9F04102
:100480000F463B49002500EBC00001EB80042E46DF
:10049000FFF7EAFE8046206A3843206204F11C0020
:1004A000074600F090F80CE0216A026C114203D07C
:1004B00000F066F9012600E06D1C2946384600F080
:1004C00078F80028F0D1012E01D1FFF74EFF404609
:1004D000FFF7D2FE0020BDE8F08170B50D4624493B
:1004E00000EBC00001EB8004FFF7BEFE216AA943C8
:1004F0002162FFF7C1FE002070BD70B50C461C499B
:1005000000EBC00001EB800500202060FFF7ACFE8F
:10051000296A2160FFF7B0FE002070BD2DE9F0418F
:100520000D46134900EBC0001E46904601EB8004C7
:10053000FFF79AFE07460F4800680564216A2942C2
:1005400003D104F11C0100F02DF93846FFF794FEA9
:10055000FFF78AFE216A29403160B8F1010F02D10C
:10056000216AA9432162FFF787FE0020B3E700005C
:10057000E8051000040210000021016008467047E1
:1005800030B50A6812B10B46C46B09E0002208605E
:10059000C0E903210BE000BF02F10C03D26812B1E5
:1005A000D56BA542F8DC1A68C0E903211860002069
:1005B00030BD0068002201E0C068521C8A4201D0B0
:1005C0000028F9D170470068704702690AB11168C4
:1005D00031B96FF00400704701F10C02C96839B1FC
:1005E0008142F9D1C9681160002101610846704754
:1005F0006FF003007047000010B54FF4C871324827
:1006000016F0C9FB002010BD2DE9F04188460546D3
:100610002D4900EB8500174601EBC004FFF724FECF
:100620000646207830B13046FFF726FE6FF0010015
:10063000BDE8F08102202070E7611422414604F1F8
:100640000800656016F038FB0020206204F12400E9
:10065000FFF792FF3046FFF70FFE0020E8E770B586
:10066000194900EB800001EBC004FFF7FDFD0546D2
:10067000D4E90701814205DB144804F12401006834
:1006800000F090F8206A401C20622846FFF7F4FD35
:10069000002070BD70B50C4900EB800001EBC00478
:1006A000FFF7E2FD0546206A08B1401E206204F112
:1006B0002400FFF788FF10B1606A00F011F82846A7
:1006C000FFF7DAFD002070BD500710000402100093
:1006D00010B54FF42A71404816F05DFB002010BDA4
:1006E00010B5044690F8380002280BD02046FFF7DA
:1006F0006CFF022084F8380038492046FFF740FF9D
:10070000FFF733FE002010BD2DE9F05F8B46064653
:10071000314900EB06109046DDE90AA911F82020C6
:100720001D461AB16FF00100BDE8F09F01EB800497
:10073000FFF79AFD074601202070C4E90165C4E96E
:100740000585C4E907A91422594604F1240016F0CE
:10075000B3FA002084F8370084F838006169E0605B
:100760002061C4E90F1020460C99FFF727FEA06016
:100770002046FFF7B5FF3846FFF77EFD0020D3E7A0
:1007800010B5044690F83800022809D02046FFF73B
:100790001CFF022084F8380010492046FFF7F0FEC5
:1007A000002010BD70B5044690F838000D460228B0
:1007B0000BD12046FFF709FF032084F838002946B3
:1007C0002046FFF7DDFEFFF7D0FD002070BD044896
:1007D0000068406870470000E00810000C0210003C
:1007E00004021000F0B58446002004460C4F14E0CB
:1007F0005CF824600323DD0046FA05F280EA02601B
:100800000825002802DA87EA400000E040006D1E5B
:10081000002DF6DC5B1EEED5641C8C42E8DBF0BDDF
:100820001B0000801248804712480047FEE7FEE7A1
:10083000FEE7FEE7FEE7FEE7FEE7FEE7FEE7FEE790
:10084000FEE7FEE7FEE7FEE7FEE7FEE7FEE7FEE780
:10085000FEE7FEE7FEE7FEE7FEE7FEE7FEE7FEE770
:10086000FEE7FEE7FEE7FEE7FEE7FEE7FEE7000045
:10087000AD080000C50000001E4800684FF00051A0
:10088000002891F8210000F01C000DD0042805D0AC
:10089000082805D00C2805D096200CE011200AE08D
:1008A000252008E04B2006E0042809D0082809D0BC
:1008B0000C2809D07020401E01F82C0F08707047DA
:1008C0000C20F8E71B20F6E73720F4E770470A49C9
:1008D00093200870D0E708490B200870CCE7054842
:1008E000006818B904480078932801D000207047A8
:1008F00001207047340400222100002070B504203C
:1009000000F0D2F9052000F0CFF9062000F0CCF974
:10091000072000F0C9F9082000F0C6F9182000F0FF
:10092000C3F9192000F0C0F91A2000F0BDF9F04910
:1009300000200860EE4A40321060ED4B183B186012
:10094000EB4B08331860EB4CE071E94B143B18603B
:10095000E74B0C3318602072E54B103B1860E44BFA
:10096000103318606072E24B0C3B1860E04B14339C
:100970001860A072DE4B083B1860DD4B183318601E
:10098000E072DB4B28331860A0731E1D3060E073EB
:10099000331D1860207401250D6015602570062137
:1009A000042000F099F90621052000F095F90621B0
:1009B000084600F091F90621072000F08DF9062184
:1009C000082000F089F90621182000F085F9062199
:1009D000192000F081F904211A2000F07DF904208B
:1009E00000F06EF9052000F06BF9062000F068F9C0
:1009F000072000F065F9082000F062F9182000F0E7
:100A00005FF9192000F05CF91A2000F059F9042070
:100A100000F03EF9052000F03BF9062000F038F91F
:100A2000072000F035F9082000F032F9182000F016
:100A30002FF91A2000F02CF9FF20E070356070BD0E
:100A400000EB8000AA494000002218390A60A94A38
:100A5000521F1070012008607047A5490020183906
:100A60000860704700EB8000A14940000022143963
:100A70000A60A04A121F10700120086070479C494C
:100A8000002014390860704700EB8000984940004E
:100A9000002210390A60974AD21E107001200860A7
:100AA00070479349002010390860704700EB8000C0
:100AB0008F49400000220C390A608E4A921E107045
:100AC0000120086070478A4900200C39086070478F
:100AD00000EB800086494000002208390A60854A00
:100AE000521E1070012008607047814900200839AB
:100AF000086070478049097848430A21B0FBF1F14A
:100B00007E48491E80F86010572181761121C176F8
:100B1000042280F860205B228276C1767047774895
:100B2000002180F860105B2181761121C176704729
:100B30006F4A10B5283214680123D10664B100242D
:100B4000146081F8350091F8420000BF91F84240EE
:100B50008442FBD0136010BD81F83500FAE700EB4A
:100B6000C00101EB00106FF0030101EB800010B534
:100B70006349644C0978B0FBF1F0401E80B2FF2855
:100B80000CD9010A2170494200EB01206070FF205E
:100B9000FFF7CEFF2078401E207010BD002121708D
:100BA0006170BDE81040C0B2C2E75148283001680A
:100BB000002909D000210160C10691F8420000BF60
:100BC00091F842208242FBD0704710B54D4C2178FD
:100BD000607851EA000207D051B1FF20FFF7A8FF6B
:100BE0002078401E207010BDBDE810400BF00FB8FB
:100BF000FFF79EFF0020607010BD3D4A10B53032F7
:100C000014680123590794B10024146081F8370057
:100C100091F8420091F842408442FBD0136091F871
:100C2000420000BF91F842208242FBD010BD81F803
:100C30003700F3E72E483030016800290AD0002140
:100C400001604FF0005191F8420000BF91F842203E
:100C50008242FBD0704700EB800040001921B0FBBE
:100C6000F1F028490004000C488001D01920E7E683
:100C7000704710B5234C0023608830B11920FFF76E
:100C8000DFFE6088401E608000E00123184610BD32
:100C900000F01F020121914040094FF0E02202EBD9
:100CA0008000C0F80011704700F01F020121914040
:100CB00040094FF0E02202EB8000C0F8801170473D
:100CC00000F01F020121914040094FF0E02202EBA9
:100CD0008000C0F8801270474907090E002803DA27
:100CE00000F00F00084A00E0084A815470470000F5
:100CF0001C05002233000020C0021000001000205C
:100D0000BF0210001402100014ED00E000E400E047
:100D100049480121016000210160704747480121D5
:100D2000016000210160704710B5002000F06BF8F1
:100D3000FFF7F4FFFFF7ECFF41490020086041494D
:100D4000A0200870002000F06AF8BDE810400020E4
:100D500000F04DB83A4801211C38016000210160C3
:100D6000704710B5002000F04EF8334901200860AC
:100D7000002000F054F8BDE81040002000F037B823
:100D80002D4901201C39086070472F4800782E49F2
:100D9000491C0978401A00F03F0070472B4902783F
:100DA0000A7042784A7082788A70C278CA70027972
:100DB0000A7142794A7182798A71C079C871704723
:100DC00023480068417882784FF00050437A0374DA
:100DD000204B1B78437443891B0A83744389C37473
:100DE00001754275C1798175017AC175704700F04E
:100DF0001F020121914040094FF0E02202EB8000E8
:100E0000C0F80011704700F01F0201219140400915
:100E10004FF0E02202EB8000C0F88011704700F034
:100E20001F020121914040094FF0E02202EB8000B7
:100E3000C0F88012704700005C840022A0000022ED
:100E40007C04002200E400E02004002000020020D6
:100E500038021000B402100010B5092000F054F858
:100E60000A2000F051F8092000F05AF80A2000F09A
:100E700057F80521092000F05FF805210A2000F04D
:100E80005BF833487F2141707C2282700171002120
:100E900000F848192F490A684FF0010192F8C8304C
:100EA000DC070AD09C0708D590F84A40C3F38203B8
:100EB00001FA03F39C4380F84A4092F81131DC07B1
:100EC00021D0C3F34203012B03D0234B4FF48064A2
:100ED0001C604830837802F211121478C4F3420483
:100EE00001FA04F4A343837003791478C4F3420431
:100EF00001FA04F42343037103781278C2F3420227
:100F000091400B43037010BD00F01F02012191407E
:100F100040094FF0E02202EB8000C0F880117047DA
:100F200000F01F020121914040094FF0E02202EB46
:100F30008000C0F8801270474907090E002803DAC4
:100F400000F00F00054A00E0054A81547047000098
:100F5000480000203802100000E100E014ED00E03D
:100F600000E400E0704710B5044602462A21002044
:100F700000F066F9221D2B21002000F061F904F138
:100F800008022C21002000F05BF904F10C020F2173
:100F9000032000F055F92068000E032825D304F142
:100FA00014022D21002000F04BF904F110022E2133
:100FB000002000F045F904F11C022F21002000F070
:100FC0003FF904F118023021002000F039F904F152
:100FD00024023121002000F033F904F120023221F3
:100FE000BDE81040002000F02BB910BD10B5BE4C7C
:100FF000072060700020207044F2C000608000BFB5
:1010000000BF00BF4CF2C000608000BF00BF00BF47
:101010004CF2E00060800920FFF73CF944F2E00068
:10102000608000BF00BF00BF4FF48040608010BDF3
:10103000F0B500252E464FF00054E02717E000BF22
:10104000883401F03F0160702170678000BF00BFED
:1010500000BFD4F808C043F825C06680883C00BFB4
:101060006D1C521E491C3F2901D9401CC0B2002AE8
:10107000E6DCF0BD2DE9F0479B4D0026AD1C044693
:101080002E80DFF868920121C9F880104FF4C05813
:10109000A5F8008000BF00BF00BF00BF00BF4FF435
:1010A00080572F803520FFF7F5F82E80FFF79EFF41
:1010B00000F0DCF85C2000F0EAF823460122082169
:1010C0000020FFF7B5FF231D012209210020FFF7B3
:1010D000AFFF04F1080301220A210020FFF7A8FF57
:1010E00004F10C0301220B210020FFF7A1FF04F102
:1010F000100301220C210020FFF79AFF04F11403D2
:1011000001220D210020FFF793FF00F0AFF8FFF759
:101110006DFF2F8000BF00BF00BF00BF00BF00BF3A
:1011200000BF00BF00BF00BFA5F8008000BF00BF28
:1011300000BF00BF00BF4FF440602880C9F8806046
:10114000BDE8F087F0B54FF0000C059C0CB14FF0F6
:10115000800CC5B200264FF00057644C28E000BF59
:1011600087F889504FEAC05EBEF1000F01F03F0ED4
:101170004EEA0C0E01DA4EF0400E87F888E053F884
:1011800026E0C7F88CE04FF0010EC4F8B0E04FF055
:10119000000EC4F8B0E0491CC9B2402902D36D1C4E
:1011A000EDB20021D4F8C0E0BEF1000FFAD1761CF8
:1011B0009642D5DBF0BD4FF0005282F88900002343
:1011C00009B1802002E0C00503D5402082F88800E4
:1011D00001E082F8883045480121C0F8AC10C0F821
:1011E000AC3000BFD0F8C0100029FBD17047F8B573
:1011F0000C4605464FF4F47600213046FFF7DBFF3E
:101200000020014600902B4622463046FFF79AFF09
:10121000F8BDF8B50C4605464FF4F8760021304687
:10122000FFF7C9FF00214FF4FC70FFF7C4FF002057
:10123000014600902B4622463046FFF783FFF8BD5B
:10124000294B587041F0800003F888092748002195
:10125000B4300160012140F8B41900BFD0F8C010CB
:101260000029FBD1D3F890001060704710B51E4CD8
:101270004FF48040A41C20800420FFF70BF80020CE
:10128000208000BF00BF00BF00BF00BF10BD70B511
:10129000154C2126A41C268000BF00BF00BF00BF44
:1012A00000BF40F02105258000BF00BF00BF00BF88
:1012B00000BF44F22101084320800420FEF7EAFF2A
:1012C000258000BF00BF00BF00BF00BF268000BF59
:1012D00000BF00BF00BF00BF0020208000BF00BFD4
:1012E00000BF00BF00BF70BD8800002000100022BA
:1012F000F8B5FF4C002635462670E660266166612B
:101300000120A66100F07EFF0C2000F07BFF03208F
:1013100000F078FF172000F075FF012000F07EFF3D
:101320000C2000F07BFF032000F078FF172000F076
:1013300075FF01F030F96A460221EE4801F0AAFB80
:10134000ED499DF8010008709DF80000532800D079
:1013500004260521012000F06DFF05210C2000F07E
:1013600069FF0621032000F065FF0621172000F029
:1013700061FF012000F03AFF032000F037FF172043
:1013800000F034FFA5706570E5703046F8BD70B5AB
:10139000D74B1889C0F38001C0F34016C0F3002476
:1013A0007140C0F3C0226140C0F3803551406940B4
:1013B000400840EAC130188170BD38B50D46009034
:1013C00014460421684601F083FFCC498978C90698
:1013D00002D5062D00D1401C0099E16484F8480034
:1013E00038BD506570472DE9F047C54D0646C34CE2
:1013F000286890F83404C00718D0608840F0800056
:101400006080FFF7C4FF296800F00700084490F8E7
:10141000350484F83500FFF7BAFF2968C0F30210DD
:10142000084490F83504800084F834004FF0000A36
:1014300084F841A028684FF002084FF0E90990F8BD
:1014400045176174AF49042EC1F30E0706D0032E71
:101450001FD0022E41D0052E5CD082E0A74A314633
:10146000A06AFFF7AAFFE06A6065A4F84270A0785E
:1014700080060028286890F8590703DA20F0060053
:1014800040F0040084F8460084F8478084F84490D3
:1014900067E09A4A3146A06AFFF78FFFE06A60650D
:1014A00096480421283001F013FF964901EB800093
:1014B000C0F30E00A4F84200A07880060028286837
:1014C00090F8590703DA20F0060040F0040084F891
:1014D000460084F84780ED2019E0884A3146A06A2A
:1014E000FFF76BFFE06A6065A4F84270A0788006A1
:1014F0000028286890F8590703DA20F0060040F029
:10150000040084F84600042084F84700E52084F8AD
:10151000440026E0A178890623D500F2C93028349A
:1015200001782174C178A1744178A1758078E07543
:1015300001206076714A31462068FFF73EFF71480E
:10154000F830C0F30E006083286890F8590720F047
:10155000060040F00200A07784F81F8084F81C90F9
:10156000283C286890F80A17C907A1784FEA8171CA
:101570001CD000291CDB90F80907C0070CD0002103
:10158000012003F058F814F8450F20F00300801CE8
:10159000207024F80FAC14E00121084603F04BF84A
:1015A00014F8450F40F0030020700AE0002904DA27
:1015B00090F86C0720F0030001E090F86C0784F8C5
:1015C00045004B484670BDE8F0474C4801F0EEB886
:1015D0004B484A49006890F800224A7790F8012267
:1015E000CA744A88D20504D490F8022202F00F028D
:1015F0008A7400F20320027802F03F020A75B0F804
:1016000001200A83C2788A763F4A0079127800F076
:10161000F00040EA1210C87670472DE9F047374CC9
:101620000546002084F84100DFF8D490E12084F8DA
:101630004400D9F80020344B2D4E92F845076074D1
:1016400092F80A075FEAC0782046B0F802C0C77C6B
:101650000CF0FF014CF0010004D05FEA8C7C01D457
:10166000012D08D0DFF8A480072D0BD0062D5ED009
:10167000082D79D030E0377171710A21E1746080F2
:10168000224812E0377171716080507D117D471CD6
:1016900094F858C007FB01F0BCF1010F03D901FB1E
:1016A0000CF101FB07F008EB4000C0F30E00A4F8BA
:1016B000420092F85307197800F0F00001F00F0192
:1016C0000843E07692F8550760770C4A29460120D6
:1016D000FFF773FEE06860656188C80705D094F87D
:1016E000440040F0020084F84400D9F800000FE004
:1016F0001802100004100020B4021000880B100023
:1017000038021000009E0120F6FF01000080012039
:1017100090F80A274FEA8171D20747D0002947DBAA
:10172000062D2FD0082D2DD0012D34D049E0517D2C
:10173000378B107D491C7943484308EB4000C0F3C8
:101740000E00A4F8420092F85307197800F0F00058
:1017500001F00F010843E07692F855076077F84AE8
:101760002946A068B4E7FFE7F648C0F30E00A4F8E6
:101770004200FFF72DFFF24A2946206AFFF71DFEBF
:10178000606AA8E73634E17B21F00301E173B0F829
:101790006E07208015E00021012002F04CFF14F8B4
:1017A000450F20F00300801C20700AE0002904DAB5
:1017B00090F86C0720F0030001E090F86C0784F8C3
:1017C00045007570BDE8F047DD4800F083BF06288E
:1017D0000ED008280CD001280AD0072808D00428E9
:1017E00005D0032803D0052801D0022801D1FAE54D
:1017F00013E770472DE9F84FD34D8246012901D1F7
:101800000020A871AC79DFF8489304F10104CF4EB1
:10181000DFF82C83A9F1280713E0306890F80A0755
:10182000C00706D098F80200800702D459F8242097
:1018300001E057F82420694650469047012805D01A
:10184000641C092CE9D90020BDE8F88FAC719DF823
:101850000000F9E72DE9F0410546008800283AD05C
:101860005C222946B64802F0D8FCFEF7B0FFB64C21
:101870000027B64EC4E90670306890F80A07C00722
:101880000AD0A878800707D4AD49088810F0760FF1
:1018900002D040F080000880607800281BD1012130
:1018A000A748FFF7A7FF050015D0AA490120087037
:1018B000306890F8101149070FD590F8430780075A
:1018C0000BD401F0AFF80220A07001F0AFF819209E
:1018D00001F0C5F86570BDE8F08127702846BDE8C5
:1018E000F04174E7002070478268120006D000883B
:1018F000C00503D5072008700120704700207047FD
:101900008268120006D00078C00703D00620087055
:101910000120704700207047026A120006D000784C
:10192000000703D508200870012070470020704789
:101930008268120005D00078000602D501200870E8
:10194000704700207047826A120008D0C26A32B124
:101950000078800603D5022008700120704700201F
:101960007047826A120006D00078C00603D50520B1
:1019700008700120704700207047826A120006D06C
:101980000078800703D504200870012070470020EC
:101990007047C26A32B10078400703D5032008704F
:1019A0000120704700207047002008700120704718
:1019B0002DE9F04162480421283001F089FC0446F9
:1019C0005F4804212C3001F083FC5F4F0546DFF8AF
:1019D00070817878604E042801D002280CD198F8E4
:1019E0000200800602D5A2005B4902E0620006EB1D
:1019F00044015A4802F011FC7878032801D00228EB
:101A000011D198F80200800603D5AA0006EB8401E4
:101A100004E005EB44006A0006EB4001BDE8F0413C
:101A20004F4802F0FABB56E730B587B001208DF879
:101A300000004648424D444C006890F80A07C00731
:101A40000AD0A878800707D46078012804D1022042
:101A50008DF800000AF0E4F800F06AFD41480190BA
:101A60003D4802903748E17800EB410003900020A8
:101A7000E07034487838049069686846884707B051
:101A800030BDF0B5314B47F6FF7201291B6803D01A
:101A90001B7D354C00211EE0334C5B7D3C3CF9E75F
:101AA0000D18EDB2314FEE18F6B237F815E007F128
:101AB000800C37F816703CF815503CF81660AEEB09
:101AC0000505BE1B35442DB224F81150954200DAAD
:101AD0002A46491CC9B29942E2D3002007E000BF60
:101AE00034F81010891A24F81010401CC0B2984223
:101AF000F6D3F0BD2DE9F84F144C0120009020687A
:101B00000026154D90F80017B346C90747D00C4979
:101B100091F83C7007B901270949DFF82C8091F84A
:101B20003B1091FBF7F10FFA81FA98F801100429A4
:101B300002D003291CD024E0407D46003DE0000097
:101B4000880B1000709F012018021000380210004E
:101B5000606F0100BD021000009E0120C8A6012098
:101B600040A701200080012090A5012054A401205D
:101B7000007D04214600FE4801F0AAFBFD4901EB6F
:101B8000800598F8010002280AD005280FD0042803
:101B900013D0032811D002280FD005280DD0D2E190
:101BA0002068F44D417D007D0844460005E0206832
:101BB000F04D3A2690F801A7F835D8F80C105145A9
:101BC000EDDC81B94FF4F871EB4815F0E4F898F8C2
:101BD0000100042807D12068407D420005EB400148
:101BE000284602F01AFBE5490020DFF89483D1F87B
:101BF0000CE04978DFF880932EE000BF59F82030E0
:101C000035F910C00429634449F8203001D0032974
:101C100021D1BEF1000F08D1D94B0022803B23F81F
:101C2000102047F6FF7228F81020DFF854C335F96A
:101C30001020ACF1800C3CF910309A4200DC1A46BE
:101C40002CF8102035F9102038F910309A4200DBBA
:101C50001A4628F81020401CB042CFDBC74A0EF1CC
:101C600001005045D0607CDB0023DFF818A39046CC
:101C7000D360042906D0032958D0022972D005293F
:101C800071D060E101210020FFF7FBFEDFF8E0B238
:101C9000ABF1280B9BF83D0058B12068407D410016
:101CA000B54802F069FCC8F810007821B64815F074
:101CB00050F80020D8F8103035E000BF39F8202067
:101CC0007A43A2EB030212B225F810209046226854
:101CD00092F848C45FEA8C7C20D59BF83DC0BCF1EB
:101CE000000F12D0B2F955C4E04502DDA8EB0C029A
:101CF00007E0B2F95924904502DAA8EB020200E0AD
:101D00000022DFF884C22CF810209F4A35F810C05A
:101D100032F81020ACEB020225F8102059F82020F0
:101D20004AF82020401CB042C8DB0CE100210846E4
:101D3000FFF7A7FEDFF838B2ABF1280B9BF83D00A8
:101D400058B12068007D41008B4802F015FCC8F8AE
:101D5000140080218D4814F0FCFF0020D8F81430C6
:101D600037E0EBE038E0D8E039F820207A43A2EB06
:101D7000030212B225F810209046226892F848C457
:101D80005FEA8C7C20D59BF83DC0BCF1000F12D0DF
:101D9000B2F957C4E04502DDA8EB0C0207E0B2F946
:101DA0005B24904502DAA8EB020200E00022DFF893
:101DB000DCC12CF81020754A35F810C032F810201C
:101DC000ACEB020225F8102059F820104AF8201038
:101DD000401CB042C8DBB6E06548283890F83D00AA
:101DE000C8B12068407D4100634802F0C5FBC8F8D7
:101DF00010002068017D427D490009EBC20002F01D
:101E0000BBFBC8F8140078215F4814F0A2FF8021C2
:101E10005E4814F09EFF002037E000BF39F8201024
:101E2000B8F810307943A1EB030109B225F810107E
:101E3000236893F848C45FEA8C7C21D5DFF830C171
:101E4000ACF1280C9CF83DC0BCF1000F10D0B3F9E8
:101E500055C4614502DDA1EB0C0106E0B3F959342C
:101E6000994201DAC91A00E00021474B23F810100B
:101E7000454935F8103031F81010591A25F810106E
:101E800059F820204AF82020401C2168497DB0EBF9
:101E9000410FC3DB2068407D4FEA40003AE000BFBD
:101EA00039F82010B8F814307943A1EB030109B2D6
:101EB00025F81010236893F848C45FEA8C7C22D57B
:101EC000DFF8ACC0ACF1280C9CF83DC0BCF1000FB1
:101ED00010D0B3F957C4614502DDA1EB0C0106E057
:101EE000B3F95B34994201DAC91A00E00021274BAB
:101EF00023F81B10254B35F810C033F81B10ACEB42
:101F0000010125F8101059F820204AF820200BF183
:101F1000010B401CB042C3DB15E0002049461C4ABF
:101F200009E000BF31F8203025F8103051F820309A
:101F300042F82030401CB042F4DB04E00846FFF7D2
:101F400046FC0020009000987EE40C4910B54A78C9
:101F50000120062A1FD18B69054C5B1C283C8B6134
:101F600094F85840A34217DA1046FFF730FC11E00E
:101F7000B00B1000009E0120849F01201802100069
:101F8000D4A4012074A1012040AF0120B8AF0120EA
:101F900064A30120002010BD00228A6110BD70B52D
:101FA000AA4909684B7D097D5B1C4B43A84991F800
:101FB0005840012C1ED9498849051BD50020A54A47
:101FC00015E001210AE000BF01FB030632F81050C2
:101FD00032F81660491C354422F810508C42F3DC6C
:101FE00032F9101091FBF4F122F81010401C9842C5
:101FF000E7D370BD047570BDF0B587B0FFF7D8FCAE
:10200000FFF7A3FF002828D0914DA878400603D4FD
:10201000FFF770FD002820D08C4F8F4C386890F867
:102020000A07C0070BD0A878800708D46078012879
:1020300005D12079E8746079688009F0F1FD607855
:10204000072803D12079E8746079688000218048EE
:10205000FFF7D0FB18B1FFF7BAFB07B0F0BD7F4820
:10206000002666700670386890F80A07C00706D028
:10207000A878800703D40021084602F0DCFA7849EA
:10208000A4200873386890F81001400702D5A670A4
:1020900000F0B6FC2078012819D08DF800600120EE
:1020A0008DF814006846FFF77AFF6A48019000F542
:1020B000F0500290E17800F5B87000EB4100039019
:1020C000E67068480490696868468847C5E7032059
:1020D0008DF80000E3E770B55C48604D4FF00004F8
:1020E000016891F8100142075B480AD591F843173F
:1020F000890706D48178012908D002290FD0032945
:1021000003D18470FFF790FC2C7070BD02218170A8
:1021100000F08CFCBDE87040322000F0A0BC032130
:1021200081704078BDE87040FFF751BBF0B50022E8
:102130004D1E12E0531C1F460BE000BF30F812602A
:1021400030F81340A64203D920F8136020F812405B
:102150005B1C9BB28B42F1D3BAB2AA42EADBF0BD60
:102160002DE9FF4100252E462946012002F063FAA1
:1021700000246F4600F0EFFC27F81400641CA4B2A2
:10218000082CF7D308216846FFF7D0FF5FF0020064
:1021900037F8101019B131446D1C8EB2ADB2401C2D
:1021A00080B20628F4D3B6FBF5F004B03BE438B5B2
:1021B0000C46054601226946104600F0B1FC9DF828
:1021C0000000000928709DF8000000F00300207056
:1021D00038BD08B501F0030141EA00118DF8001087
:1021E00001226946104600F001F908BD00F01F0207
:1021F0000121914040094FF0E02202EB8000C0F83D
:102200000011704700F01F020121914040094FF07A
:10221000E02202EB8000C0F88011704700F01F023E
:102220000121914040094FF0E02202EB8000C0F80C
:10223000801270474907090E002803DA00F00F00EA
:10224000094A00E0094A8154704700003802100032
:10225000880B10000080012018021000BD02100041
:1022600000100020F89E012014ED00E000E400E0E2
:10227000F94801680029FCD17047F0B527260022F3
:10228000F54DF6484FF4F8315C270C465FF000033B
:1022900003EB000E11F803C05B1C8EF860C00C2B22
:1022A000F6DB2B68002BFCD18276C77604F10C019B
:1022B00003EB000E11F803C05B1C8EF860C00C2B02
:1022C000F6DB29680029FCD1511C8176C776921C67
:1022D00004F13001B2EB460FD7DBF0BD2DE9F0473A
:1022E0009246089E5B1EC6F108010022DB4C01F0FD
:1022F000FF0C1546002189469A420BDA00EB0208D2
:10230000875C98F8018027FA06F708FA0CF847EA84
:10231000080703E007D1875C27FA06F701EB0408FA
:1023200088F8607003E001EB040888F8609001F120
:10233000010102F101020C29DEDBC7490F68002F01
:10234000FCD10AEB0501A1765C21E1766D1C022D22
:10235000D0DBBDE8F08718B5002411235C222146AC
:10236000BF480094FFF7BAFFBD481823622200213E
:1023700021300094FFF7B2FF18BD2DE9F04700248B
:10238000DFF8D482B5498246254626464FF05C09DF
:1023900000209C4206DA00EB010C1AF804708CF85D
:1023A000607002E0471887F86060641C401C0C28CD
:1023B000EFDB00BFD8F800000028FBD15019887669
:1023C00081F81B906D1C032DE2DBC2E7A44800B529
:1023D00016235E2200216C38FFF7CFFFA048202390
:1023E0006422002140385DF804EBC6E770B5002395
:1023F0009A4C05E0CD5C1E195B1C86F860505BB200
:102400009342F7DB94490B68002BFCD1A07642F095
:102410001000E07670BD30B5924C07220220216892
:1024200001F24271FFF7E2FF2168022201F24A71D4
:102430000920FFF7DBFF2168062201F24D710B2016
:10244000FFF7D4FF20688849884D90F85307097832
:1024500000F0F00001F00F01084328700122294626
:102460001120FFF7C3FF2168072201F254711220E7
:10247000FFF7BCFF7C480122401E007800F00F01EE
:10248000206890F85B0761F31F1028702946192017
:10249000FFF7ACFF2168042201F25C711A20FFF7FC
:1024A000A5FF71480222C01C2946007828706E489A
:1024B000401C007868701E20FFF798FF21680622F4
:1024C00001F262712020FFF791FF67480222001D90
:1024D0002946007828706448801C0078687026209F
:1024E000FFF784FF2168022201F26A712820FFF7BA
:1024F0007DFF2168072201F26C713C20FFF776FF17
:1025000021680A2201F5F5614320FFF76FFF21687A
:102510000A2201F2B2714D20FFF768FF206890F89F
:10252000C01753480170332141740B21817430BDB1
:102530005048002202604F481C3802604E48026139
:102540000121016182608160026001600260424994
:10255000A0F574700B68002BFCD140490B7B43F055
:1025600020030B730B7B23F040030B730B7B23F0D7
:1025700080030B730B7B23F020030B73C0F8D8236D
:10258000C0F8E0233D4802707047334818300168B6
:102590000029FCD1704730B53748002474300460FE
:1025A0003548803004603448C4600121C160C46093
:1025B0000460016004602E4D2020AD1D28706870FD
:1025C0002649593D0873A420087323481830016830
:1025D0000029FCD1FFF7ACFFFFF71DFFFFF7F6FE68
:1025E000FFF7B9FEFFF749FE2548046085F834403F
:1025F00030BD38B50546194CC06C00906073010AB7
:10260000A173010CE173000E2074042269462A2094
:10261000FFF7ECFE012205F148012E20FFF7E6FE50
:1026200095F84800A074686D0090E074010A217567
:10263000010C6175000EA075042269463420FFF775
:10264000D5FE0098800F84F84000084901220870E8
:102650003820FFF7CBFE38BD040B0022001000200D
:10266000ACF8010038021000F6FF0100E40B100086
:10267000530000201C0C0022D0030022190210007D
:102680004005002200EBC00101EB00106FF00301D8
:1026900001EB800010B5F749F74A0978146890FB00
:1026A000F1F0401EC1B2012358075CB10024146050
:1026B00080F8341090F8421090F842408C42FBD0E1
:1026C000136010BD80F83410FAE7EC480168012966
:1026D000FCD170477CB5044600208DF804002046EC
:1026E000FFF787FFE648B4F842100180217C00F82C
:1026F000011C94F844104173E24EA07C86F8360029
:10270000E14D286890F842078DF80000618889053E
:1027100003D520F012008DF8000001226946022046
:10272000FFF764FE042204F111010520FFF75EFEAD
:102730002968022201F24A710920FFF757FE02229E
:1027400004F116010C20FFF751FE022204F11801DA
:102750000E20FFF74BFE2868052204F11A0190F8BD
:10276000540720771020FFF741FE286890F80907EA
:10277000C0070AD0012201A94320FFF737FE022239
:1027800004F136013E20FFF731FE012204F145013C
:102790003C20FFF72BFEB94801680129FCD194F8D1
:1027A000440030732320FFF76DFF7CBD7EB50446E7
:1027B000FFF71FFFB248B4F84210018094F83910B7
:1027C00000F8011C94F844104173AF4D286890F84C
:1027D00042078DF800006188890503D520F01200BA
:1027E0008DF80000012269460220FFF7FFFD2868EE
:1027F00090F80A17C90730D0628891072DD4B0F835
:102800000D17ADF80410B0F87007ADF80800120607
:1028100009D594F835201044ADF8080094F8340038
:102820000844ADF80400022202A94020FFF7DEFDB3
:10283000022201A90920FFF7D9FD296891F80907AB
:10284000C0071DD0012201F5F5614320FFF7CEFD41
:10285000022204F136013E2010E090F80907C0077B
:1028600007D000208DF80400012201A94320FFF7C2
:10287000BDFD2968022201F24A710920FFF7B6FD69
:10288000022204F130011A20FFF7B0FD022204F108
:1028900032012220FFF7AAFD012204F138010720AE
:1028A000FFF7A4FD012204F13E010820FFF79EFD81
:1028B000012204F13F012020FFF798FD012204F1DD
:1028C00040012820FFF792FD012204F14601172064
:1028D000FFF78CFD012204F147011820FFF786FD68
:1028E00028686A49012290F8540720F0F000087027
:1028F0001220FFF77BFD94F84100624EC00708D01C
:10290000286800F2C67190F8C60786F836000122E2
:1029100006E094F83A0086F83600012204F13A0104
:102920000620FFF763FD012204F145013C20FFF77B
:102930005DFD28680122694690F8430740F00800D1
:102940008DF800000320FFF751FD4C480168012974
:10295000FCD194F8440030732320FFF793FE7EBD32
:1029600049494B4B0A6892F84D2702700A68B2F841
:102970005027428009681B7801F2547103F00F035D
:1029800011F8012C02F0F0021A4302714A89C28048
:102990004A8A0281CA7B8272CA7DC27249780173F7
:1029A000704710B50446014601220B20FFF71EFDBB
:1029B0000222A11C0E20FFF719FD0122211D11206A
:1029C000FFF714FD0222A11D1C20FFF70FFD0222BC
:1029D00004F108012420FFF709FD012204F10A0196
:1029E0002120FFF703FD012204F10B012920FFF74D
:1029F000FDFC04F10C010122BDE810401320F5E4B8
:102A0000204908B5042008731F4801226946006860
:102A100090F8430720F008008DF800000320FFF72E
:102A2000E5FC08BD17492020087370471549C020F0
:102A300008737047104900204039086070470E48FD
:102A4000016800290AD0002101604FF0005191F87F
:102A5000420000BF91F842208242FBD070470649F5
:102A6000002240390A60064A273A107001200860A7
:102A700070470000BF02100040050022000B00223A
:102A8000540000200010002038021000E40B100059
:102A9000F6FF010070B5414C2368002BFCD11D46A8
:102AA00003E0C6185B1C86F880508B42F9D323687C
:102AB000002BFCD102E0C45CD4545B1C8B42FAD3E3
:102AC00070BD10B501F094FCFFF7B9FF34480078F1
:102AD00078B13248183801680029FCD13148C078F3
:102AE000400602D5304901200870BDE81040FFF7CC
:102AF00083BA2E490020087010BD10B501F078FC93
:102B00002B4900200860BDE81040FFF7E4BA10B57B
:102B100001F06EFCFFF793FFBDE81040FFF7DBBA52
:102B2000204B10B59876DA761C4818380468002CCB
:102B3000FCD1012083F8E00018480468002CFCD187
:102B4000002005E0C41894F860400C54401C40B2CA
:102B50009042F7DB10BD08B543F6FF70ADF80000FA
:102B6000022269463E20FFF741FC0220ADF800003A
:102B7000012269463C20FFF739FC0A49E02008732E
:102B80004FF41670FDF786FB022269466D20FFF7B1
:102B9000C7FFFFF735FFBDF8000008BD1C0B002282
:102BA000190210000010002018021000BD021000D1
:102BB00000050022ED214EF6EC52084609F0B3F96B
:102BC000FEE70446012009F068F900210F20226881
:102BD00009F07BF901210F20626809F076F90221E2
:102BE0000F20A26809F071F903210F20E26809F0B3
:102BF0006CF90C210F20226909F067F90E210F20D2
:102C0000626909F062F90F210846A26909F05DF9CD
:102C100020210F20E26909F058F93D48026821217E
:102C20000F2009F052F93A481038026822210F208B
:102C300009F04BF936480C38026823210F2009F0BF
:102C400044F933480838026824210F2009F03DF97F
:102C50002F48001D026825210F2009F036F92C4865
:102C60003438026826210F2009F02FF9284814383B
:102C7000026827210F2009F028F9FDF7A8FD024678
:102C800030210F2009F021F9ED214EF6ED520846D2
:102C900009F049F9FFF78EFF012807D002280FD06D
:102CA000032805D0042805D004210AE0012108E00A
:102CB000032106E00021032009F0EFF8FFF77AFF77
:102CC0000221032009F0E9B810B5044601460420AA
:102CD00009F0E3F8012C01D1FFF76CFF10BD0146AC
:102CE000082009F0DAB80146062009F0D6B810B578
:102CF00004460146072009F0D0F8012C03D0022C2D
:102D000001D0032C01D1FFF755FF10BD0320EEE7E2
:102D100038ED00E001F06CBB70477047384810B5E3
:102D2000016821F00401016001F062FBBDE8104080
:102D300012F07EBC7047334810B5007801280DD0E2
:102D4000032811D1FDF789FE12F002F8FDF791FF7B
:102D5000002809D0BDE8104009F00CBAFDF77DFE4F
:102D6000BDE8104011F0F4BF10BD01F041BB10B53B
:102D700001F03EFBBDE8104009F014BB10B501F0B6
:102D800037FBBDE810404FF0005001F0F8BC704731
:102D9000704710B501F02CFB1B480078012803D0C8
:102DA000BDE8104008F04EBFBDE8104002F09EBAEA
:102DB000704710B501F01CFBBDE810404FF080508B
:102DC00001F0DDBC7047704770477047704770472F
:102DD0007047704710B501F00BFBBDE81040FDF7E0
:102DE000F4BE10B501F004FB07480078012803D1B8
:102DF000BDE8104002F056BA10BD704770470000A1
:102E000010ED00E0DA021000BC02100010B55A21EB
:102E1000AE4813F09EFFAD48AD49AE4A01808280B6
:102E2000AD494180AD4BC380AD4C0481AD4C448174
:102E3000AD4C8481AD4CC481AD4C0482AD4C448218
:102E4000AD4C8482AD4CC482AD4C0483AD4C448601
:102E5000AD4C8486AD4CC486AD4C0487C387418796
:102E60008287AC49A0F84010AB490968B1F86220EC
:102E7000A0F84220B1F8C621A0F84420B1F8A12062
:102E8000A0F84620B1F8F021A0F84820B1F854216C
:102E9000A0F84A20B1F85221A0F84C200022A0F856
:102EA0004E209E4A1288A0F850209A48B1F84E272A
:102EB0004280B1F85C27C280B1F86417018110BD6F
:102EC00097481322984903789648552B02D00270F0
:102ED00019200CE0904B1B6893F81131DB0702D0EE
:102EE0008F4A521C127802708D48801C007808703E
:102EF00070472DE9F047FF2228218C4813F021FF6D
:102F00008A48FEF730F8DFF824920E240126D9F81B
:102F10000410072545F2AA58414503D0D9F80810F6
:102F200041453BD1D9F80000D9F80820070E4245A9
:102F300006D1032F01D1C0F30136C0F3032502E00F
:102F40000120FFF7D0FED9F80410414504D199F8CB
:102F5000000000F01F0402E00220FFF7C4FE032F70
:102F600022D1D9F814304146714A48468B4201D1EA
:102F7000036900E06F4B1360C3696F4A8B4201D154
:102F8000836900E06D4B1360436A6D4A434502D18B
:102F9000D9F8200000E06B48106005E00120FFF741
:102FA000A2FE0220FFF79FFE5B48016891F8F00740
:102FB000400702D591F8F20704E006F003002A0763
:102FC00040EA126091F8DA16C90711D0B9F80C106E
:102FD0008AB242450CD05249891F0978C52907D1C8
:102FE00020F0F0014E48401F0078000741EA1060D1
:102FF000554981F86000012088761120C876534831
:10300000017864F304010170BDE8F08770B5FDF745
:103010005EFCFDF789FE404C20680078A52802D0B0
:103020000120FFF751FE4FF008500125C0F89853DA
:103030002068474A90F8271101F00101116090F8CB
:103040002701111DC0F340000860FDF78BFFFDF75D
:1030500055FCFEF74DF9042801D1FFF71DFEFDF7E1
:10306000AFFEFDF7F9FE3848802180F8601004219A
:1030700081761121C176FFF73CFFFFF721FF34482D
:103080000C38056070BD41F2317010B541074881C0
:10309000FFF7BCFFFFF7BAFE2E495F2008602E49FC
:1030A000002008602E482D49016001F508602D4977
:1030B00008602D4800F01CFDFDF7E6F800F056F81A
:1030C000FDF7E0F8FDF764F9012010BD00000120D4
:1030D00000800120D8DD012058D601205A000120AF
:1030E000009E01200A320120463201207442012054
:1030F000B0420120E447012020480120A62D0120F4
:10310000E22D0120FE31012080CE01208CCE012055
:103110009A2D01206C2E100038021000D6021000EB
:10312000F2FF0100C0021000BF0210008C2E100040
:10313000C402100040A5AE02C8021000008793032D
:10314000CC02100000366E0100100020200000208C
:103150008804002268360120B002100074131000A9
:103160007402100078021000742410007FB5FDF77F
:10317000E7F81F4D002400BF05EB441000F11002DA
:10318000017F4CCACDE90261CDE900230FC8FDF7EC
:10319000BBFA10B10220FFF7AAFD641C082CEBDB80
:1031A000144D002404EB440005EB8001091D55F883
:1031B000200006C9FDF728FA10B10220FFF797FD9D
:1031C000641C082CEEDB0B4D0024603505EBC400BD
:1031D000416855F83400FDF731F910B10220FFF7CE
:1031E00086FD641C072CF1DB7FBD4068FFF78EBDB8
:1031F000886F010088700100FA49405E7047F94A03
:10320000108051807047F748801EB0F90000704769
:10321000F449891E088070472DE9F0479246012540
:1032200047F6F87256429946AC460024089F16E0CD
:1032300030F8143031F81480A8EB03031BB29A4223
:1032400000DD1A469E4200DA1E46002B02DA4FF0DD
:10325000000502E001DD4FF0000C04F10104BC4266
:10326000E6DB55EA0C0306D0012D01D02DB108E0B4
:10327000BCF1010F05D1002203E0BCF1010F00D128
:10328000324600252C462B4611E000BF30F8136073
:1032900031F813C01644ACEB060636B24E4505DADB
:1032A000C9F1000C664501DD3544641C5B1CBB4262
:1032B000ECDB95FBF4F10A44002105E030F8113015
:1032C00013442AF81130491CB942F7DBBDE8F087F6
:1032D00070B5034600200246C34C09E09D5C521CB9
:1032E00005F00F0604EB1515A65D2D783044284433
:1032F0008A42F3DB70BD884200D30846704788429B
:1033000000D808467047884200D30846904200D350
:1033100010467047884200DB08467047884200DC50
:10332000084670472DE9F047D0F810C00568046AD8
:1033300085FB0C12A1FB041242694368914683FB92
:1033400002628269E246A6FB02677618D0E902179C
:1033500081FB07C8C069ACFB00C81CEB060682FBFA
:103360000A2CA2FB011280FB0902A0FB05024018F7
:1033700084FB0712A1FB03120818301A4FEAE07110
:10338000A4E72DE9F04389B0044600680090606826
:103390000190206902906068039020690490A06900
:1033A000059020690690A0690790E06908900D4695
:1033B0006846FFF7B7FF8046A0680190E068049078
:1033C0006069079089466846FFF7ACFF064660686B
:1033D0000190A068029020690490E0680590A069BF
:1033E0000790606908900F466846FFF79BFFC5E9A4
:1033F0000401C5E90267C5E9008909B0BDE8F083A9
:103400002DE9FF4F4FF0000A89B09B465746D14641
:10341000D0465646554654462021684613F0BBFC1C
:103420000B9810E00999824431F9102000FB00F15B
:1034300002FB01668844414302FB009901FB004402
:1034400017440D44401C5845ECDD0B99ABEB0100D3
:10345000401CCDE9000ACDE90654CDE90486CDE94A
:10346000027968460A99FFF78CFF0DB0BDE8F08F2E
:103470005E480068017B427B41EA0221827BC07B7F
:1034800041EA024141EA0060400070475748006845
:103490000179427941EA02218279C07941EA024107
:1034A00041EA0060704700B5FFF7E2FF40084000C6
:1034B00000BDF8B50E460446FFF7F5FF0090FFF794
:1034C000D7FF054604216846FFF702FF04EB4007DB
:1034D00000240099204623464FF0010C0CFA03F219
:1034E0000A4207D02A4204D037F8102026F81420C8
:1034F000641C401C5B1C1E2BF0DBF8BDC6E7FCB552
:103500000E460746FFF7CFFF0190FFF7BFFF009081
:10351000FFF7BCFF0546042101A8FFF7D9FE0446CA
:1035200004216846FFF7D4FE00EB440007EB400798
:1035300000200099044603464FF0010C0CFA03F2F8
:103540000A4207D02A4204D037F8142026F8102067
:10355000401C641C5B1C202BF0DBFCBD70B52349B8
:103560000020096801F5F57491F8E8518DB191F8E2
:10357000E6214FF00103D2070DD0002203FA02F634
:10358000354203D0A65C03FA06F10843521C062A12
:10359000F4DB400070BD91F8E91103FA01F0F8E79F
:1035A00070B512490020096801F5F57491F8E851E9
:1035B000002D09D091F8E6214FF00103D20704D085
:1035C00091F8E91103FA01F070BD03FA02F63542F1
:1035D00003D0A65C03FA06F10843521C062AF4DB6A
:1035E00070BD0000E4FF01002071010038021000EE
:1035F00070B50022FD4C012303FA02F6256895F808
:10360000E851354203D030F8125021F81250521CC4
:10361000062AF1DBE4E700B5FFF72AFF40F00100DE
:1036200000BD33E7F24A520102EB810101F108517A
:103630000860704701EB8010801001EB41014900E8
:10364000182291FBF2F300EB400000F5F83002FB8A
:103650001311006820F07F40C84000F03F00704721
:1036600001EB8010801010B501EB410149001823D7
:1036700091FBF3F403FB141300EB400000F5F8306A
:103680003F2401689C40A1439A400A430270110AFA
:103690004170110C817010BD821002EB4202114486
:1036A00000EB40004000182290FBF2F301F5F831E6
:1036B00002FB1302086820F07F40D04000F03F007A
:1036C0007047831003EB43031A4410B500EB40002E
:1036D0004000182390FBF3F403FB140302F5F832C7
:1036E0003F2410689C40A043994001431170080A90
:1036F0005070080C907010BD2DE9F14F4FF0000A8A
:103700008021009813F047FBFFF785FF4FEA500B2D
:10371000FFF7BCFE012781460025012000FA05F1D4
:1037200011EA0B0F24D04FF00008C446444601268E
:1037300006FA04F010EA090F16D021462846FFF7D2
:1037400079FF404509D00099009A06FA0CF651F825
:103750002710314342F8271003E00AF101011FFA54
:1037600081FA80460CF1010C641C202CDFDB7F1CED
:103770006D1C272DD1DB9F49A1F800A0BDE8F88F73
:103780002DE9F05F83464FF000084FF4787113F095
:10379000E0FAFFF740FF4FEA500CFFF777FE0746CD
:1037A00000244FF0010A00BF0AFA04F111EA0C0FDD
:1037B0001ED000252E4604F1010900BF0AFA06F0CA
:1037C000384212D031462046FFF734FF87490BEBD1
:1037D0000602A8420968097D01FB09F1885403D15A
:1037E00008F101011FFA81F80546761C202EE5DB61
:1037F000641C272CD8DB4046BDE8F09F7B4A136849
:10380000B3F83421821A002A01DAC2F1000290B220
:10381000B3F85023B0FBF2F0C0B202DAA1EB000023
:1038200001E002DD0844C0B27047084670472DE948
:10383000F0410C4680464FF470716F4813F089FADE
:103840006D48FFF79DFF00216B48684B2DE001227A
:1038500010E02E7D02FB0615ADB24719455DF65D01
:10386000AE4205D9761BB8F800503544A8F8005090
:10387000521C52B21D686E7D9642EADC95F9152005
:103880000FE01D682E7D02FB0615ADB2475DAD1B36
:10389000455DAF4203D22688ED1B35442580521E7C
:1038A00052B2012AEDDC491C49B21A68127D8A42E3
:1038B000CDDCBDE8F081F0B500244C4B2FE00125B4
:1038C00010E0377D05FB0746B6B200EB060C865DBF
:1038D00017F80C70B74203D9BE1B0F883E440E8008
:1038E0006D1C6DB21E68777DAF42EADC96F915500B
:1038F00011E01E68377D05FB0746B6B210F806C01A
:10390000F61B865DB44504D21788A6EB0C063E4430
:1039100016806D1E6DB2012DEBDC641C64B21D6857
:103920002D7DA542CBDCF0BD2DE9F043ADF57D7DCD
:103930004FF47871684613F02EFA00202B4CADF846
:10394000E003ADF8E403ADF8E803ADF8EC03236859
:10395000DFF8A89093F8F1070B2814D101214E4607
:103960000EE00A22002006E04D433718EA55521CAB
:10397000401C92B2C0B21D7D8542F5D8491CC9B227
:10398000587D8842EDD20126E84623E000251BE061
:1039900006FB005087B21A48B2F83431B2F850230F
:1039A000C15D184803EB020C30F91700844502DBB7
:1039B0009A1A824204DDFFF721FF08F8070001E0B0
:1039C00008F807106D1CEDB22268107DA842DFD800
:1039D000761CF6B22368587DB042D7D293F8F1072F
:1039E0000D2824D1012144464E461DE03802100026
:1039F0006836012096021000DA250120943E01204D
:103A000086320120F40B1000002008E001FB0205C3
:103A1000ADB24A433718655D401CD555C0B21A7D1A
:103A20008242F3D8491CC9B2587D8842ECD2F9A928
:103A3000F8A8FFF7FCFEFBAAFAA96846FFF73BFFD0
:103A4000BDF8E003BDF8E813884205D9BDF8E403EA
:103A5000BDF8EC13884203D800200DF57D7DCDE440
:103A60000120FAE7F0B5FE49844600200C680246C2
:103A70000125667D11E0237D01215B1E0AE000BF68
:103A80005CF822E005FA01F71EEA070F01D1401C9D
:103A900080B2491C8B42F3DC521C9642EBDCF0BD39
:103AA0002DE9F04381460026FFF7B5FD4FEA500CA3
:103AB000FFF7ECFC074600254FF0010808FA05F176
:103AC000394211D05FF0000408FA04F010EA0C0F3C
:103AD00007D029462046FFF7ADFD09F80600761C01
:103AE000B6B2641C272CEFDB6D1C202DE6DB85E4D1
:103AF0002DE9F14F7821009813F04DF9FFF78BFD78
:103B00004FEA5008FFF7C2FC4FF0000C81466646B2
:103B10004FF0010A0AFA06F111EA090F1DD000243C
:103B2000012725460AFA0CFB0AFA05F010EA080FED
:103B30000ED031462846FFF77DFDA04206D0009901
:103B400051F8272042EA0B0241F8272004467F1C47
:103B50006D1C272DE8DB0CF1010C761C202ED9DB27
:103B6000BF48006890F82000400603D5BDE8F84F34
:103B7000BC48C1E502E62DE9F04F8346B848002471
:103B80002246D0F800A001219AF81450A5F10106B0
:103B900021E003200123DFF8D0E203FA01F99AF8CB
:103BA000157015E05EF820C01CEA090F0FD0A0F1D7
:103BB000010300FB051C03FB05183BF91CC03BF986
:103BC0001830BCEB030300D55B421C44521C401C64
:103BD0008742E7DC491C8E42DBDC02B9012294FB00
:103BE000F2F043E42DE9F0439D49002633460F6887
:103BF000012297F815C020E03D7D0221A946A5F1DC
:103C0000010517E0974C54F82280012404FA01F4CE
:103C100018EA040F0DD002FB091430F9148000EBF0
:103C2000440434F9024CB8EB040400D56442264441
:103C30005B1C491C8D42E5DC521C9445DCDC03B95D
:103C4000012396FBF3F052E72DE9FF4F83B00021EB
:103C500001910C4600918549012B0C60804C216834
:103C600091F8775005F00F0700D1002791F814C0A4
:103C700091F87B10C7F1100B614500D28C460121F1
:103C8000B1E000BF4FF0000AD14601269EF8145063
:103C900040E0744B53F821400123B3401C4209D04B
:103CA000012E07D06B1EB34204D0012902D0029B23
:103CB0008B420AD101FB056330F9134000EB43034B
:103CC00033F9023CA4EB03040CE001FB056330F97B
:103CD000134000EB430333F9023CE31A00D55B4287
:103CE000049C1C1B002C00DA6442A244012E07D065
:103CF0006B1EB34204D0012902D0029B8B4200D13B
:103D00000024109B2BB1594BD3F80080444500DDB3
:103D10001C60761C6645BCDB634640E0514C54F8A1
:103D2000216001249C40264209D0012B07D06C1E43
:103D30009C4204D0012902D0029C8C420AD101FB92
:103D4000053430F9146000EB440434F9024CA6EB5E
:103D500004040CE001FB053430F9146000EB44046A
:103D600034F9024C341B00D56442049EA41B002C81
:103D700000DA6442A144012B07D06E1E9E4204D09B
:103D8000012902D0029E8E4200D10024109E2EB145
:103D9000364ED6F80080444500DD34605B1C9D4201
:103DA000BCDC019B53440193009B4B4400939EF861
:103DB0007A308B4216D11368019D7B430BFB053390
:103DC000DC1703EB14731B1113609368009D7B4396
:103DD0000BFB0533DC1703EB14731B1193600023FB
:103DE00001930093491C1E4BD3F800E09EF8153058
:103DF00002938B42BFF646AF5068019B78430BFBA2
:103E00000300C11700EB117000115060D068009BD7
:103E100078430BFB0300C11700EB11700011D06059
:103E200007B0DEE62DE9FF4F83B0002101910C467B
:103E300000910F49012B0C60094C216891F87750D3
:103E400005F00F0700D1002791F815C091F87A10FE
:103E5000C7F1100E614500D28C460021C1E0000080
:103E6000380210002C25100074241000900210005D
:103E70008C0210004FF00009CA46022644E0F94BBC
:103E800053F8264001238B401C4209D041B16B1EE0
:103E90008B4205D0022E03D0029B5B7DB3420CD136
:103EA00006FB051330F91340A6F1010303FB0513CC
:103EB00030F91330A4EB03040EE006FB051330F9D0
:103EC0001340A6F1010303FB051330F91330E31A85
:103ED00000D55B42049C1C1B002C00DA6442A14408
:103EE00041B16B1E8B4205D0022E03D0029B5B7D3D
:103EF000B34200D10024109B2BB1DB4BD3F80080E0
:103F0000444500DD1C60761C6645B8DB029C6346B8
:103F100094F815B040E0D34C54F8236001248C4051
:103F2000264207D031B16C1E8C4203D0022B01D047
:103F30009B450CD103FB051430F91460A3F1010477
:103F400004FB051430F91440A6EB04040EE003FB57
:103F5000051430F91460A3F1010404FB051430F9D1
:103F60001440341B00D56442049EA41B002C00DACC
:103F70006442A24431B16E1E8E4203D0022B01D0A6
:103F80009B4500D10024109E2EB1B74ED6F800807C
:103F9000444500DD34605B1C9B45BCDA019B4B440F
:103FA0000193009B53440093029B93F87B308B4218
:103FB00016D11368019D7B430EFB0533DC1703EB21
:103FC00014731B1113609368009D7B430EFB053334
:103FD000DC1703EB14731B11936000230193009310
:103FE000491CA24B1B6802931D7D8D423FF742AFD7
:103FF0005068019B78430EFB0300C11700EB117062
:1040000000115060D168009879430EFB0010C11771
:1040100000EB11700011D06002E7F0B500245F1EC4
:1040200025E02546661C07E030F915C030F916E09A
:10403000F44500DB3546761C9E42F5DB30F8146013
:1040400030F815C020F814C020F8156031F814605D
:1040500031F815C021F814C021F8156032F8146049
:1040600032F815C022F814C022F81560641CBC4256
:10407000D7DBF0BD2DE9F04F8CB00746002007904C
:104080000890059006900290039078480125784E9C
:10409000804628E002241EE0087D04FB005036F92B
:1040A0001000B84216DD032302AA07A905A8FFF7EE
:1040B000B4FFD8F80000BDF91410007D04FB0050D7
:1040C00036F91000814205DAADF81C50ADF8140045
:1040D000ADF80840641CD8F8001040464A7D521ED6
:1040E000A242D9DC6D1C0168097D491EA942D1DCC0
:1040F00000240DF11C0BB246C146002502A83BF975
:1041000014C030F91430D9F80000017D504603FB8B
:1041100001C63AF91660BE4234DD564E76571E444B
:1041200006FB01C2731C03FB01C130F812203AF8F0
:1041300011006146101A0FFA80F8701EFFF77AFA24
:10414000049061463046FFF775FA01460498401A1C
:10415000002807D0D9F800000DDAB0F83E14414528
:1041600010DB0CE0D9F80000B0F93A24424506DA39
:10417000B0F83E1401E0B0F93A14414502DC0020E9
:104180000CB02EE56D1CEDB2022DB7D3641CE4B269
:10419000032CB2D30120F3E72DE9F04F334900237C
:1041A00018460C6894F84814257DC1F3C001B4F892
:1041B00065B4B4F867A4A5EB010924E00322DFF895
:1041C000A4E0DFF8B480667D19E000BF5EF822C08D
:1041D000012707FA01F71CEA070F0ED102FB0517AA
:1041E00038F917C0A2F1010707FB051738F9177056
:1041F000BCEB070700D57F423B44521CD2B296422B
:10420000E4D8491CC9B28945D8DC1C499B450B60E0
:1042100002D2534500D20120E3E403E011F8013B50
:1042200000F8013B521EF9D270477CB50D4604469A
:10423000FFF739F90090FFF729F901900098042160
:10424000400800906846FFF743F80646042101A89D
:10425000FFF73EF83044820021462846FFF7DDFF95
:104260007CBD0000742410008C0210003802100085
:10427000F40B1000EB02100058D601208802100049
:104280000B46F74909684A7D097D521C4A4301469D
:1042900052001846C1E72DE9F04104465C2112F0B6
:1042A0007AFD0025EE4E25806580306890F8C507C0
:1042B00000F0010045EA40106080316891F8451730
:1042C000C90940EA011060806560FFF7A4F9A060A9
:1042D000FFF7DCF8E34FE0607888E082306800F2B6
:1042E0004670C27A817A02F03F0241EA02212183BC
:1042F0004178E17490F87A1021740178A174817882
:104300002175017BA176D849407B097800F0F00047
:1043100001F00F010843E076FFF720F92062FFF774
:104320003FF96062FFF7BFF8A062FFF7AFF8E06205
:10433000F88820866086306800F24E7090F873101E
:1043400084F8381090F8751084F8391090F87610C9
:1043500084F83A1010F84C1C84F83B10012184F8C2
:104360003C1084F83D5090F8742084F83E20027D83
:1043700084F83F20027F84F84020027AA277827F6F
:1043800084F8452084F8355084F83450028CE28655
:1043900010F8562CA0F24E70D2070BD090F8F90608
:1043A00000F00F0084F85800608840F4806060805E
:1043B000BDE8F08184F85810FAE710B50446FBF721
:1043C00063FF012C0BD1A648006890F8100180070C
:1043D00005D5FCF784FA38B1FCF77DFA04E0FCF768
:1043E0007EFA08B9FCF773FABDE81040FBF74ABF44
:1043F0000020E2E79A4B10B51A68947E640704D552
:10440000D28A0468A2EB040202601A68947EA407B0
:1044100003D5128B0C68121B0A600268002A00DAAE
:10442000002202601C68E48AA24200DD224602608B
:104430000A68002A00DA00220A601C68248BA24263
:1044400000DD22460A601B689B7EDB0702D0036802
:104450000B60026010BDF0B5814E00252C46366819
:104460000FE000BF31F9147030F914C0A7EB0C074E
:10447000974205DD777D6D1C7F1EA74200D16D1C24
:10448000641C9C42EEDB012D01D90120F0BD00200F
:10449000F0BD2DE9F04F9246DDE909B7012547F659
:1044A000F87256429946AC46002416E030F81430B3
:1044B00031F81480A8EB03031BB29A4200DD1A46C0
:1044C0009E4200DA1E46002B02DA4FF0000502E0A1
:1044D00001DD4FF0000C04F10104BC42E6DB55EABB
:1044E0000C0306D0012D01D02DB108E0BCF1010F65
:1044F00005D1002203E0BCF1010F00D132460025B6
:104500002C462B4611E000BF30F8136031F813C081
:104510001644ACEB060636B24E4505DACBF1000C7C
:10452000664501DD3544641C5B1CBB42ECDB95FB3E
:10453000F4F10A44002105E030F8113013442AF860
:104540001130491CB942F7DB66E6F0B5064600209B
:1045500004460546521C059F0AE000BF36F911C00B
:104560009C4504DDA44502DD64460D460120491C3E
:104570009142F3DB3D60F0BD30B502680025134683
:104580000AE000BF50F82540944201DD224602E0D7
:104590009C4200DA23466D1C8D42F3DBD01800EB01
:1045A000D070401030BD70B52D4B1B685C7D1B7DFD
:1045B000641C5C4308E000BF32F8135030F813600D
:1045C000AD1B21F813505B1CA342F5DB70BD2749DE
:1045D000012008608102264812F0BBBB2DE9F041A2
:1045E000064615460F46302801D1FFF7F0FF1F4C55
:1045F00020682844401CB0F5806F01D2206801E09B
:10460000012020601A4908700E542DB10844401C46
:104610002A463946FFF701FE20682844401C2060E6
:10462000C6E6144800210122017042708170704773
:1046300010480078704730B5094A126892F80A2786
:10464000D3070BD0D5060C4A4FF000034FF00104FE
:1046500016D5151F2860012910D1136030BD000048
:10466000380210006C2E1000F6FF0100400210000E
:104670009A290120E8021000280A00221460EDE7C0
:10468000704D28600129F9D0E7E72DE9F84F6E4C0D
:1046900000264FF00057206890F80A07450997F860
:1046A000510000D101250720FBF7D9FFFCF78FF857
:1046B000DFF89881C8F8080020684FF0010490F8EE
:1046C0000A07C00603D5062087F8510001E087F8E5
:1046D000514000210120FFF7AEFF4FF41670FBF7A9
:1046E000D9FD4FF0E02A4FF480594FF0000BCAF883
:1046F00080924FF040514446D8F80800FBF7EDFE99
:10470000DFF84C81012088F80000E8B2FCF7CEF910
:10471000CAF800916B4600224FF04051A068FBF7A9
:10472000FDFE4FF04051A068FBF7D7FE0098C00097
:1047300000D501262078B04202D1607801280CD142
:1047400097F85100AEB140EA0522DD20A16807F0DC
:10475000BCFB00BF84F801B0267000210846FFF7BB
:104760006AFF88F800B00720FBF794FF2078BDE8C7
:10477000F88F40EA0521092007F08FFBEAE710B522
:10478000044634484FF480510160FCF79CF92F48EF
:1047900021468068BDE81040FBF770BE70B52A481E
:1047A000006890F8D010CA072B491DD090F8D1208E
:1047B00002F00F02531C0A2B01D90A2200E0521CFE
:1047C00000F1D20400234D8805E000BF34F81360E7
:1047D000B5420CD05B1C9342F8DBB0F84E274A8000
:1047E000B0F8E8200A8002E0B0F84E274A8090F83E
:1047F0008023D2071FD090F8812302F00F035A1CA8
:104800000A2A01D90A2300E05B1C00F28235002449
:10481000CA8804E035F81460B2420BD0641C9C4294
:10482000F8DBB0F85C27CA80B0F864270A81B0F8DA
:10483000AC03888070BDB0F85C27CA80B0F864070C
:10484000088170BD200A002238021000E802100022
:10485000BD02100080E100E06C2E100010B5014692
:104860001822FB48FFF7D9FCBDE810404FF4006167
:104870000120FBF703BE2DE9F04198B080460D46BC
:1048800014466846FFF707FDE0074FF0010701D027
:10489000ADF80070A00705D5BDF8000040F0080095
:1048A000ADF80000600733D5EA4E306890F80A078B
:1048B000C0070DD0FFF7E9FE0621012805D0BDF89D
:1048C000020040F00200ADF80200ADF8001005E073
:1048D000BDF8000040F00600ADF80000A00711D1BF
:1048E000BDF8000040F00100ADF80000306800F2B3
:1048F000211041788DF8131001788DF81A10807806
:104900008DF81E00D4480088800501D58DF83D70D3
:10491000ADF83250ADF81680ADF83050AFF2C300AC
:10492000CB4E03244FF4006501906846FCF792FFDC
:1049300017AB002229460120FBF7F0FD2946012094
:10494000FBF7CBFD3078002804D0FEF7A5F9641EF4
:10495000002CEADC18B0BDE8F0812DE9F041BD4A39
:10496000002421461268254610F4D17F04D092F825
:10497000221004254FEA111110F0050F05D092F80E
:10498000213045F001054FEA1314C00604D592F812
:10499000210045F0020504098C4200DA0C46641C33
:1049A000002DD8D00026AD4F05E0F98878882A463A
:1049B000FFF761FF761CA642F7DBCCE72DE9F35F3A
:1049C000DFF890828B46D8F80000457D017D90F895
:1049D00021006D1C00F00F074D437F1C4FF48851E0
:1049E0009F4812F0D8F900269D4CDFF87092DFF84E
:1049F00060A218E0B9F8061001220098FFF73BFF0B
:104A00009849DAF8040006F0E4F99649002007E036
:104A100054F8202031F910301A4444F82020401C6A
:104A2000A842F5DB761CBE42E4DBD8F8000090F823
:104A3000210000F00F01491C002006E054F820205E
:104A400092FBF1F22BF81020401CA842F6DBBDE8E7
:104A5000FC9F2DE9F34F7F4D87B08B4628681821C6
:104A600090F8210000F00F077F1C684612F093F9C0
:104A700000266C46DFF8E491DFF8D4A1DFF8E88186
:104A800019E000BFB9F8061002220798FFF7F3FEFD
:104A90007549DAF80C00FEF7ABFD00204FEA08017B
:104AA00054F8202031F910301A4444F82020401CDA
:104AB0000628F5DB761CBE42E4DB286890F821006E
:104AC00000F00F01491C002001222B6802FA00F6B9
:104AD00093F8E831334205D054F8203093FBF1F3DA
:104AE0002BF81030401C0628EFDB09B0BDE8F08F32
:104AF0002DE9F74F574D84B09146286830F83B1F99
:104B0000039140880290FEF7CEFC0090FEF7F6FC81
:104B1000019004216846FEF7DBFB8046042101A8D2
:104B2000FEF7D6FB404446002868B10090F822000A
:104B300000F00F04641C4A4812F02DF9296891F81E
:104B4000F002C20706D0800704D491F8F1020444B1
:104B500005F0E4FD0027DFF808B1AA462FE03F4842
:104B6000042205994088FFF786FEDAF800103848DD
:104B700091F8C5178568C90704D001692A462846F7
:104B800005F078FEDAF8000090F8F002C10707D0CF
:104B9000800705D43549284605F0DCFD70B1334D5A
:104BA0000020594608E000BF51F8202035F91030A8
:104BB0001A4441F82020401CB042F5DB7F1CA7427C
:104BC000CDDBDAF80010264C504691F8221001F0A7
:104BD0000F0303F101034FF000011CE05BF82120FB
:104BE000056892FBF3F295F8F0725FEAC77C08D093
:104BF000BF0706D595F8F1727F1C5743B5F8F2222E
:104C0000BA1AB1EB480F01DA039D00E0029D2A4475
:104C100024F81120491CB142E0DB049810F0220F67
:104C200009D02046D9F80010FEF743FC2046D9F8F9
:104C30000410FEF764FC07B058E72DE9F0479A46E8
:104C4000044B894600210125094E1C682DE0000017
:104C5000904C1000380210004C0210006C2E100016
:104C600074131000F40B1000FE310120D0A50120B8
:104C70001A2F012032F8113030F81170DB1B1FB2EF
:104C800000230AE0C3EB031C06EB8C0C5B1C3CF816
:104C900011801BB2B8442CF8118094F880C305EB46
:104CA0009C1C9C45EEDC491C09B2637D8B42E1DC17
:104CB0000020FD4A19E000BF3AF8103039F8101012
:104CC000591A0BB2002108E002EB8116491C36F894
:104CD000107009B21F4426F8107094F8806305EB39
:104CE00096168E42F0DC401C00B2217D8142E3DC4E
:104CF000BDE8F08770B5ED4DED4E00242868C4EB9B
:104D0000041100EB440006EBC111B0F8EF00FFF70F
:104D100055FE641C042CF1DB70BD2DE9FE4F00250F
:104D20008246E24C2F46DFF88C83DFF87C93012625
:104D300012E000BF00EB4500C5EB0512B0F8B2135E
:104D400008EB8200009009EB8510CDE901076A4667
:104D50005046FFF7CDFE6D1C206890F8801306EBDF
:104D60009111A942E6DC90F85011C90710D090F8D3
:104D7000911109060CD5407DCE494200CE48FFF77F
:104D80004CFA2068C849007D4200CC48FFF745FA3C
:104D9000BDE8FE8FFEB5C54AC9490024126801234B
:104DA00000F4907592F88063C98803EB961306E0CF
:104DB00002EB4406B6F8B263B14202D0641CA342CF
:104DC000F6DCA34219DDC5B192F85001C00703D14A
:104DD00092F8B001C0070FD0B649C4EB041001EB44
:104DE00080013C22B748FFF718FAAF48402200EB99
:104DF0008411B548FFF711FAFEBD00220292B14AB4
:104E00000092B14A01926A46FFF772FEFEBD2DE99B
:104E1000F047A648AD4CDFF8B8C201680022AD4F9C
:104E20004B7D087D22705B1C8CF8002043433A7058
:104E3000A94DAA4E0122E246B94618E035F910C044
:104E4000B1F84C73BC4501DD8AF80020B1F84A8303
:104E5000C44501DA89F8002036F910C0B1F848835A
:104E6000C44500DA2270BC4500DD2270401C984227
:104E7000E4DB3DE72DE9F84304460020FBF7EFFBB8
:104E80000320FBF7ECFB894D286890F820104907B8
:104E900001D424F4006490F85011C90705D190F8AA
:104EA000B011C90701D124F0620490F880134907BA
:104EB00001D424F4B07490F8D010490701D424F040
:104EC000040490F8E81109B924F0100490F80403E0
:104ED00008B924F4C07460060AD53C227949804898
:104EE000FFF79BF97E48402277493C30FFF795F960
:104EF0007C490020401C8842FCD3200502D5204676
:104F0000FFF72BFD600701D5FFF7F4FE14F4907F47
:104F100002D02046FFF701FFDFF8A491E00744D05C
:104F2000B9F802006D49FFF749FD286890F82000A4
:104F300000072ED56948FEF71EFE6B4EDFF8AC81E8
:104F40003060286890F82000400604D56348FEF7DA
:104F500049FEC8F80000002700970123644A5F4813
:104F60003168FEF75FFF286890F82000400607D5FB
:104F7000009701235F4A5948D8F80010FEF764FEF5
:104F8000286890F81107400603D580215A4811F08F
:104F9000E0FE286890F84804C00706D0574800781B
:104FA000012802D1204602F00BFDE00604D5B9F835
:104FB00002005349FFF74DFD14F0820F0AD020463E
:104FC000FFF7E8FE286890F84804800702D52046DD
:104FD00002F038FE600606D541493B4B394A3C3168
:104FE0003F48FFF72AFE47490120087046490870EC
:104FF00006F004FE0020FBF74DFBBDE8F84303205C
:10500000FBF748BBF0B429490022294C0B68B3F8E0
:10501000EF10814213D2B3F8F510814201D8032278
:105020000DE0012103EB4105B5F8EF50A84201D195
:105030000A4602E00DD2A1F101028A420DD1C2EB73
:10504000021004EBC011F0BC4FF4F0622348FFF7EC
:10505000E4B8491C0429E5DBF1E703EB41031F4DEC
:1050600033F8ED2FC1EB01115B88801A00029A1A08
:1050700090FBF2F300204FF4707604EBC11100BFF7
:1050800001EB4002A2F5F06231F91040B2F90020C4
:10509000A41A5C4302EB242225F81020401CB042E5
:1050A000EEDBF0BC704700004630012038021000F3
:1050B000DA0701201A2F01200A3001204631012091
:1050C0006C2E1000A62D0120E22D01207C02100084
:1050D0007D0210007E021000F40B10005A00012027
:1050E000144C100020A10700800210008402100060
:1050F000EC241000FC2410009436012076031000EC
:105100009A2D012052021000AA0210002DE9F04150
:105110009E4900259E4A09689E4EB1F8B2338342EB
:1051200019D291F880339C0901EB4407B7F8B273A8
:10513000874209D9012404EB931312E001EB4407E1
:10514000B7F8B273B84201D1254602E008D2A4F103
:105150000105A5421CD191F85001C00708D103E018
:10516000641CA342EADCF6E791F8B001C0074CD01A
:10517000C5EB051002EB80013C228748FFF74DF894
:1051800006EB8511BDE8F04140228448FFF745B8A1
:1051900001EB4405B5F8B033B5F8B253C01A0002BC
:1051A000EB1A90FBF3F391F85001C00703D191F88B
:1051B000B001C00729D0784DC4EB0411002002EBE8
:1051C000810100BF01EB400231F9107032F93C2C33
:1051D000BF1A5F4302EB272225F81020401C1E282F
:1051E000F0DB6E4D002006EB841100BF01EB4002A6
:1051F00031F9104032F9402CA41A5C4302EB24220E
:1052000025F81020401C2028F0DBBDE8F0812DE9B6
:10521000F04163480124634E047000253560192075
:1052200000F0A8F8192000F08DF85F4F05203872C3
:105230004FF41670FBF72EF85A4844380560FF21EA
:10524000397034600460E0E770B55548574C01256B
:105250000570207F40F0040020774C48006890F8EB
:105260001101C00705D00A2000F084F80A2000F0E0
:1052700069F8002184F860105B22A2761120E076A4
:1052800084F860505723A376E076464B443B196080
:10529000454EFF213170042184F86010A276E0763B
:1052A0001D6070BD70B53F480024443804603E4D19
:1052B00008352E79192000F051F8C6F1FB00297845
:1052C000C0B2491CB0FBF1F0394908703448047091
:1052D0002E48006890F81101C00702D0BDE8704068
:1052E000B2E733495520891E087070BD10B52F4CA8
:1052F000207F40F0040020772448006890F81101D6
:10530000C00702D00A2000F029F827490A7B254B64
:105310000020443B186084F860005B23A3761123CF
:10532000E3760978891A89B24FF4FA42B2FBF1F1B7
:105330001F4A0909521E11705521521E1170184939
:10534000087010BD00F01F020121914040094FF08C
:10535000E02202EB8000C0F80011704700F01F024D
:105360000121914040094FF0E02202EB8000C0F89B
:105370008011704700F01F020121914040094FF059
:10538000E02202EB8000C0F8801270473802100063
:105390001A2F012046300120A62D0120E22D0120E8
:1053A000BC021000480500222E0000200010002042
:1053B000F4FF010010B501461822FE48FEF72DFF4C
:1053C0008021BDE810400120FBF758B830B599B0F6
:1053D00004466846FEF75FFF0021012C02D0022C34
:1053E00002D008E0012000E008208DF81210ADF88E
:1053F00000008DF81010BDF80200AFF2470140F434
:10540000A670EC4D0191ADF8020003246846FCF74C
:1054100021FA17AB002280210120FBF77FF88021C1
:105420000120FBF75AF82878002804D0FDF734FC57
:10543000641E002CEADC19B030BD2DE9FC5F4FF092
:10544000000BFEF78BF80446FEF7AAF8DA49074688
:105450000020086048608860D8494FEA54098046B7
:105460000860486088604FF0010A0220FFF7AEFF35
:10547000D04800242646C068CDF800000AFA06F09D
:1054800010EA090F38D000250AFA05F1394230D068
:10549000CB490AFA04F0096891F8E811014228D0D2
:1054A00029463046FEF7C6F8C549C34A096832F9AD
:1054B0001430B1F80AC2B3EB0C01009B33F914307D
:1054C000A3EB0C0C00D54942BCF1000F01DACCF182
:1054D000000C614504DBB94922F8143021F81400AE
:1054E0003F2805D2401CC2B229463046FEF7B8F824
:1054F000641C6D1C202DC7DB761C272EBEDBFCF741
:10550000BCFE08F10108B8F1400FAEDB01200090AD
:105510000220FFF75BFFD0460026DFF8A4A2354645
:1055200008FA05F010EA090F1ED0002408FA04F169
:10553000394216D0DAF8001008FA06F091F8E811AE
:1055400001420ED09D48214610F8160001900246F7
:105550002846FEF785F801983F2801D300200090E7
:10556000761C641C202CE1DB6D1C272DD8DB0098F9
:1055700010B90520FDF7B3FBFCF77FFE0220FFF713
:1055800025FF8C488F49C068FEF732F8DAF80040F2
:105590008C4D002094F8E831424600BF02FA00F139
:1055A0000B421CD035F91010002902DC4BF0020030
:1055B00005E040F6FF76B14203DB4BF00100834685
:1055C00010E0B4F80A72B4F8BE6107EB060C8C4523
:1055D00005DABF1B8F4202DD0EB14BF0040B401CFD
:1055E0000628DBDB5846BDE8FC9F2DE9F05F7449D7
:1055F0000A6892F8300105067348037803F00F0437
:1056000007D492F83E1121F00F0121430170BDE84B
:10561000F09F0025DFF89CA1834604702E460127E9
:1056200089460220FFF7D2FE6649DAF80C00FDF742
:10563000DFFFD9F80020634B002092F8E81100BF8B
:1056400007FA00FC11EA0C0F05D033F910C0B2F8CC
:105650000882C445DBDB401C0628F1DB0F2D08D295
:105660006D1CEDB244EA0510761C8BF80000102E7C
:10567000D7DBBDE8F05F0420FDF731BBF0B54D4945
:1056800000204D684E490A68537D117D5B1C01FB6B
:1056900003F41CE035F91130002B02DC40F020004F
:1056A00014E040F6FF76B34202DB40F010000DE05C
:1056B000B2F83471B2F8BE6107EB060C9C4505DA0E
:1056C000BF1B9F4202DD0EB140F04000491C8C42DE
:1056D000E0DCF0BD024618215FF0010000FA01F3A2
:1056E000134201D1491EF9D5491C88401043704727
:1056F0002DE9FF5F00200090FDF78DFF0446FDF7C8
:1057000090FF2F4D0746286890F84507000603D5FF
:105710002046FFF7DFFF04464FEA540B4FF4F061D9
:105720002A4811F016FB23484FF027098021183032
:1057300011F031FB002002900120FFF747FE1D48C9
:10574000D0F804A01E480068047D012000250390C5
:105750007FE0012000FA05F111EA0B0F78D0002656
:10576000012000FA06F818EA070F67D01148183030
:1057700050F8251011EA080F5FD131462846FDF791
:1057800059FF0F4901903AF914000968B1F8341132
:10579000884246DC0D4A32F914305A1AA0EB010156
:1057A00000D55242002900DA49428A4224DC01989D
:1057B000401E0DE0A84C100080CE01208CCE0120B0
:1057C00038021000FE310120F6FF010058D60120FA
:1057D000C0B20246019031462846FDF741FFC0485D
:1057E0003AF9141030F91400401A01D5C0F1000044
:1057F00000990844009008E0B94A191A00D54942B6
:10580000009B1944009122F81400B649019821F830
:105810001400B54850F8251041EA080140F8251059
:105820000BE001983146401CC2B22846FDF718FF34
:10583000AB483AF8141020F81410641C761C202E83
:105840008EDBA94850F82500B84201D00020039013
:105850006D1C4D45FFF67DAF039838B9FCF70DFD83
:105860000298401C02904028FFF666AF9F484FF018
:10587000010A00250068067D1DE0012000FA05F1FF
:1058800011EA0B0F16D000240120A04038420ED0A0
:105890009448214610F81600804602462846FDF737
:1058A000DFFEB8F13F0F01D34FF0000A761C641CF5
:1058B000202CE9DB6D1C4D45DFDBBAF1000F02D176
:1058C0000320FDF70CFAFCF7D8FC0120FFF77EFD62
:1058D000FFF7D4FE064685480068017D407D4143C0
:1058E0000098B0FBF1F420B2FDF792FC0025ADF872
:1058F0000050ADF8045001A96846FDF798FFBDF8C7
:105900000000BDF8041000B2FDF779FC224600212A
:10591000202006F0DAFABDF80420BDF80010662059
:1059200006F0D3FA724C2078012802D17148FDF7B5
:1059300027FF2570304604B069E62DE9F05F6B4A19
:10594000116891F83001C4076B48037803F0F00543
:1059500016D0057000264B7D0C7DDFF88CA15B1CFA
:10596000B046AAF1180A914604FB03F783460120CA
:10597000FFF72CFD2046DAF80420D9F800100EE0DD
:1059800091F83E1101F00F01294301703FE600BF7D
:1059900032F91030B1F832C16345F7DB401C874261
:1059A000F6DC0F2E0AD2761CF6B245EA060108F1A3
:1059B00001088BF80010B8F1100FD8DBBDE8F05FDC
:1059C0000220FDF78CB970B501244FF404614FF447
:1059D000F83011F0E0F9FCF750FCFFF7AEFFFFF7ED
:1059E00087FE424D44EA0064286890F8E80128B137
:1059F000FFF7FBFDFFF721FD44EA00443E482A681B
:105A0000401D017892F8FB2701F0F00102F00F022F
:105A1000114301703948FEF76BF82046BDE870402D
:105A200006F043BB2DE9F047FDF798FD8146FDF7F1
:105A3000B7FD074600264FF0010808FA06F0454674
:105A400010EA090F0CD0002405FA04F0384204D003
:105A5000002221463046FDF703FE641C202CF3DBB8
:105A6000761C272EE9DBBDE8F08710B5D124FFF7BF
:105A7000D9FFFCF702FC1D48006890F8E80128B146
:105A8000FFF7B3FDFFF7D9FC44EA00442046BDE828
:105A9000104006F00ABB7CB5044600200D46ADF868
:105AA0000000ADF8040001A96846FDF7C0FE2A46D3
:105AB0002146F42006F009FABDF80420BDF80010D4
:105AC000F52006F002FABDF80000844205D9BDF8C1
:105AD0000400854201D901207CBD00207CBD00006E
